:020000040800F2
:1000000000C00020C53B0008592F00085B2F0008E6
:100010005D2F00085F2F0008612F0008000000001E
:10002000000000000000000000000000632F000836
:10003000652F000800000000672F0008692F0008E6
:10004000093C0008093C0008093C0008093C00087C
:10005000093C0008093C0008093C0008093C00086C
:10006000093C0008093C0008093C0008792E0008FA
:10007000093C0008093C0008093C0008093C00084C
:100080007530000885300008093C0008093C00086C
:10009000093C0008093C0008093C0008752F0008CD
:1000A000093C0008093C0008093C0008093C00081C
:1000B000093C0008093C000861390008093C0008B7
:1000C000093C0008093C0008093C0008093C0008FC
:1000D000093C0008093C0008093C0008093C0008EC
:1000E000E92F0008093C0008093C0008093C000809
:1000F000093C0008093C0008093C0008093C0008CC
:10010000093C0008093C0008093C0008093C0008BB
:10011000093C0008093C0008093C0008093C0008AB
:10012000093C0008093C0008093C0008093C00089B
:10013000093C0008093C0008093C0008093C00088B
:10014000093C0008093C0008093C0008093C00087B
:1001500010B5054C237833B9044B13B10448AFF301
:1001600000800123237010BDE0000020000000008B
:10017000C451000808B5034B1BB103490348AFF352
:10018000008008BD00000000E4000020C451000809
:10019000034613F8012B002AFBD1181A01387047C7
:1001A00001F0FF01102A2BDB10F0070F08D010F828
:1001B000013B013A8B422DD010F0070F42B3F6D12C
:1001C000F0B441EA012141EA014122F007047FF045
:1001D00000070023F0E80256083C85EA010586EA9C
:1001E000010685FA47F5A3FA87F586FA47F6A5FAD8
:1001F00087F68EB9EED1F0BC01F0FF0102F00702E4
:1002000032B110F8013B013A83EA010313B1F8D18E
:100210000020704701387047002D06BF354603386F
:10022000073815F0010F07D1013015F4807F02BFA8
:10023000013015F4C03F0130F0BC0138704700BFF9
:1002400081F0004102E000BF83F0004330B54FEA87
:1002500041044FEA430594EA050F08BF90EA020FF4
:100260001FBF54EA000C55EA020C7FEA645C7FEA87
:10027000655C00F0E2804FEA5454D4EB5555B8BFAA
:100280006D420CDD2C4480EA020281EA030382EA1B
:10029000000083EA010180EA020281EA0303362DAD
:1002A00088BF30BD11F0004F4FEA01314FF4801C80
:1002B0004CEA113102D0404261EB410113F0004F92
:1002C0004FEA03334CEA133302D0524263EB430349
:1002D00094EA050F00F0A780A4F10104D5F1200EE7
:1002E0000DDB02FA0EFC22FA05F2801841F1000142
:1002F00003FA0EF2801843FA05F359410EE0A5F116
:1003000020050EF1200E012A03FA0EFC28BF4CF046
:10031000020C43FA05F3C01851EBE37101F00045FC
:1003200007D54FF0000EDCF1000C7EEB00006EEB09
:100330000101B1F5801F1BD3B1F5001F0CD3490893
:100340005FEA30004FEA3C0C04F101044FEA4452EA
:1003500012F5800F80F09A80BCF1004F08BF5FEA71
:10036000500C50F1000041EB045141EA050130BD51
:100370005FEA4C0C404141EB010111F4801FA4F1F4
:100380000104E9D191F0000F04BF01460020B1FA49
:1003900081F308BF2033A3F10B03B3F120020CDA81
:1003A0000C3208DD02F1140CC2F10C0201FA0CF05F
:1003B00021FA02F10CE002F11402D8BFC2F1200CC4
:1003C00001FA02F120FA0CFCDCBF41EA0C0190407A
:1003D000E41AA2BF01EB0451294330BD6FEA0404C3
:1003E0001F3C1CDA0C340EDC04F11404C4F12002AE
:1003F00020FA04F001FA02F340EA030021FA04F3C0
:1004000045EA030130BDC4F10C04C4F1200220FA16
:1004100002F001FA04F340EA0300294630BD21FA54
:1004200004F0294630BD94F0000F83F4801306BF1A
:1004300081F480110134013D4EE77FEA645C18BF0E
:100440007FEA655C29D094EA050F08BF90EA020FA5
:1004500005D054EA000C04BF1946104630BD91EA9D
:10046000030F1EBF0021002030BD5FEA545C05D1A0
:100470004000494128BF41F0004130BD14F58004DF
:100480003CBF01F5801130BD01F0004545F0FE4153
:1004900041F470014FF0000030BD7FEA645C1ABF88
:1004A000194610467FEA655C1CBF0B46024650EABF
:1004B000013406BF52EA033591EA030F41F40021EB
:1004C00030BD00BF90F0000F04BF0021704730B571
:1004D0004FF4806404F132044FF000054FF0000146
:1004E00050E700BF90F0000F04BF0021704730B507
:1004F0004FF4806404F1320410F0004548BF4042DC
:100500004FF000013EE700BF42004FEAE2014FEA30
:1005100031014FEA02701FBF12F07F4393F07F4F0B
:1005200081F06051704732F07F4208BF704793F00E
:100530007F4F04BF41F40021704730B54FF4607421
:1005400001F0004521F000411CE700BF50EA010224
:1005500008BF704730B54FF000050AE050EA0102CD
:1005600008BF704730B511F0004502D5404261EB3D
:1005700041014FF4806404F132045FEA915C3FF47E
:10058000D8AE4FF003025FEADC0C18BF03325FEA1B
:10059000DC0C18BF033202EBDC02C2F1200300FACC
:1005A00003FC20FA02F001FA03FE40EA0E0021FAF1
:1005B00002F11444BDE600BF70B54FF0FF0C4CF4DF
:1005C000E06C1CEA11541DBF1CEA135594EA0C0F91
:1005D00095EA0C0F00F0DEF82C4481EA030621EACC
:1005E0004C5123EA4C5350EA013518BF52EA033507
:1005F00041F4801143F4801338D0A0FB02CE4FF0B9
:100600000005E1FB02E506F00042E0FB03E54FF0E8
:100610000006E1FB03569CF0000F18BF4EF0010EE0
:10062000A4F1FF04B6F5007F64F5407404D25FEADC
:100630004E0E6D4146EB060642EAC62141EA55518F
:100640004FEAC52040EA5E504FEACE2EB4F1FD0CD1
:1006500088BFBCF5E06F1ED8BEF1004F08BF5FEA4F
:10066000500E50F1000041EB045170BD06F0004601
:1006700046EA010140EA020081EA0301B4EB5C04AE
:10068000C2BFD4EB0C0541EA045170BD41F48011A6
:100690004FF0000E013C00F3AB8014F1360FDEBFCB
:1006A000002001F0004170BDC4F10004203C35DAA7
:1006B0000C341BDC04F11404C4F1200500FA05F32A
:1006C00020FA04F001FA05F240EA020001F00042CB
:1006D00021F0004110EBD37021FA04F642EB060141
:1006E0005EEA430E08BF20EAD37070BDC4F10C046B
:1006F000C4F1200500FA04F320FA05F001FA04F22F
:1007000040EA020001F0004110EBD37041F100011A
:100710005EEA430E08BF20EAD37070BDC4F1200525
:1007200000FA05F24EEA020E20FA04F301FA05F28D
:1007300043EA020321FA04F001F0004121FA04F235
:1007400020EA020000EBD3705EEA430E08BF20EA05
:10075000D37070BD94F0000F0FD101F0004640003F
:1007600041EB010111F4801F08BF013CF7D041EAC1
:10077000060195F0000F18BF704703F000465200C5
:1007800043EB030313F4801F08BF013DF7D043EA96
:100790000603704794EA0C0F0CEA135518BF95EA4C
:1007A0000C0F0CD050EA410618BF52EA4306D1D1D3
:1007B00081EA030101F000414FF0000070BD50EAF2
:1007C000410606BF1046194652EA430619D094EA7C
:1007D0000C0F02D150EA013613D195EA0C0F05D166
:1007E00052EA03361CBF104619460AD181EA0301BA
:1007F00001F0004141F0FE4141F470014FF0000072
:1008000070BD41F0FE4141F4780170BD70B54FF00C
:10081000FF0C4CF4E06C1CEA11541DBF1CEA13558C
:1008200094EA0C0F95EA0C0F00F0A7F8A4EB05046E
:1008300081EA030E52EA03354FEA013100F0888065
:100840004FEA03334FF0805545EA131343EA12632E
:100850004FEA022245EA111545EA10654FEA0026E3
:100860000EF000419D4208BF964244F1FD0404F59C
:10087000407402D25B084FEA3202B61A65EB0305F8
:100880005B084FEA32024FF480104FF4002CB6EBB5
:10089000020E75EB030E22BFB61A754640EA0C0035
:1008A0005B084FEA3202B6EB020E75EB030E22BF75
:1008B000B61A754640EA5C005B084FEA3202B6EBB6
:1008C000020E75EB030E22BFB61A754640EA9C0075
:1008D0005B084FEA3202B6EB020E75EB030E22BF45
:1008E000B61A754640EADC0055EA060E18D04FEA03
:1008F000051545EA16754FEA06164FEAC30343EAA3
:1009000052734FEAC2025FEA1C1CC0D111F4801F6F
:100910000BD141EA00014FF000004FF0004CB6E768
:1009200011F4801F04BF01430020B4F1FD0C88BF07
:10093000BCF5E06F3FF6AFAEB5EB030C04BFB6EB12
:10094000020C5FEA500C50F1000041EB045170BD05
:100950000EF0004E4EEA113114EB5C04C2BFD4EB32
:100960000C0541EA045170BD41F480114FF0000EB6
:10097000013C90E645EA060E8DE60CEA135594EA32
:100980000C0F08BF95EA0C0F3FF43BAF94EA0C0F35
:100990000AD150EA01347FF434AF95EA0C0F7FF4AA
:1009A00025AF104619462CE795EA0C0F06D152EAFE
:1009B00003353FF4FDAE1046194622E750EA4106E2
:1009C00018BF52EA43067FF4C5AE50EA41047FF4F3
:1009D0000DAF52EA43057FF4EBAE12E74FEA410256
:1009E00012F5001215D211D56FF47873B3EB625281
:1009F00012D94FEAC12343F0004343EA505311F0A8
:100A0000004F23FA02F018BF404270474FF0000039
:100A1000704750EA013005D111F0004008BF6FF077
:100A2000004070474FF00000704700BF4FEA41029E
:100A3000B2F1E04324BFB3F5001CDCF1FE5C0DD93C
:100A400001F0004C4FEAC0024CEA5070B2F1004F86
:100A500040EB830008BF20F00100704711F0804F89
:100A600021D113F13872BCBF01F00040704741F44E
:100A700080114FEA5252C2F11802C2F1200C10FA52
:100A80000CF320FA02F018BF40F001004FEAC12336
:100A90004FEAD32303FA0CFC40EA0C0023FA02F3DA
:100AA0004FEA4303CCE77FEA625307D150EA0133B0
:100AB0001EBF4FF0FE4040F44000704701F0004080
:100AC00040F0FE4040F40000704700BF53B94AB9FF
:100AD000002908BF00281CBF4FF0FF314FF0FF3046
:100AE00000F072B9ADF1080C6DE904CE00F006F823
:100AF000DDF804E0DDE9022304B070472DE9F0479A
:100B0000089E04468846002B4BD18A42154667D979
:100B1000B2FA82F24AB1C2F1200701FA02F320FAD6
:100B200007F7954047EA030894404FEA154E230C17
:100B3000B8FBFEF71FFA85FC0EFB178843EA084353
:100B400007FB0CF1994209D9EB1807F1FF3080F04F
:100B50001B81994240F21881023F2B445B1AA4B2D8
:100B6000B3FBFEF00EFB103344EA034400FB0CFC25
:100B7000A44509D92C1900F1FF3380F00781A44561
:100B800040F2048102382C4440EA0740A4EB0C04F4
:100B900000271EB1D4400023C6E900433946BDE812
:100BA000F0878B4209D9002E00F0EB800027C6E9C0
:100BB000000138463946BDE8F087B3FA83F7002FC5
:100BC00047D18B4202D3824200F2FA80841A61EB51
:100BD000030301209846002EE0D0C6E90048DDE777
:100BE00002B9FFDEB2FA82F2002A40F08F80491B80
:100BF0004FEA154E1FFA85F80127B1FBFEFC230CC6
:100C00000EFB1C1143EA014308FB0CF1994207D982
:100C1000EB180CF1FF3002D2994200F2CD808446ED
:100C2000591AA3B2B1FBFEF00EFB101443EA0444C0
:100C300008FB00F8A04507D92C1900F1FF3302D2B8
:100C4000A04500F2B6801846A4EB080440EA0C4028
:100C50009FE7C7F1200CBB4022FA0CFE4EEA030EC0
:100C600001FA07F420FA0CF521FA0CF34FEA1E48BA
:100C70002543B3FBF8F92C0C08FB19331FFA8EFA45
:100C800044EA034309FB0AF49C4202FA07F200FA21
:100C900007F10BD91EEB030309F1FF3080F08780C9
:100CA0009C4240F28480A9F1020973441B1BADB23F
:100CB000B3FBF8F008FB103345EA034400FB0AFAE3
:100CC000A24508D91EEB040400F1FF336BD2A24504
:100CD00069D90238744440EA0940A0FB0289A4EBB8
:100CE0000A044C45C2464B4654D351D0002E69D01D
:100CF000B1EB0A0564EB030404FA0CFCFD40FC4074
:100D00004CEA0505C6E90054002747E7C2F1200375
:100D100020FA03F7954001FA02F021FA03F34FEAB3
:100D2000154E3843010CB3FBFEF71FFA85F80EFB96
:100D3000173341EA034107FB08F38B4204FA02F43C
:100D400007D9691807F1FF3C2FD28B422DD9023FFA
:100D50002944CB1A81B2B3FBFEF00EFB103341EAFB
:100D6000034100FB08F38B4207D9691800F1FF3CEF
:100D700017D28B4215D902382944C91A40EA0747CD
:100D80003BE73746304609E70746E7E61846FBE605
:100D90004145ABD2B8EB020A69EB0E0201381346AB
:100DA000A4E76046E9E7184695E76746D1E781463C
:100DB0007CE702382C4447E7ACF1020C2B442FE7C8
:100DC000384608E73746E9E6704700BF014B186828
:100DD000704700BF0800002008B5FFF7F7FF044B7D
:100DE0005B68C3F30223034AD35CDBB2D84008BD7F
:100DF000001002400000002008B5FFF7E7FF044B99
:100E00005B68C3F3C223034AD35CDBB2D84008BD9E
:100E1000001002400000002030B4036A23F00103F8
:100E20000362056A4268846924F073040B681C43FA
:100E300025F002058B682B43104DA84203D005F521
:100E40000065A84205D123F00803CD682B4323F0A9
:100E500004030A4DA84203D005F50065A84205D158
:100E600022F440724D6915438A692A4342608461C5
:100E70004A684263036230BC704700BF002C0140E7
:100E800030B4036A23F480730362036A4268C4695E
:100E900024F073040D682C4323F400738D6843EA37
:100EA0000523124DA84203D005F50065A84206D1DE
:100EB00023F40063CD6843EA052323F480630B4DDC
:100EC000A84203D005F50065A84207D122F440529C
:100ED0004D6942EA05128D6942EA05124260C46119
:100EE0004A68C263036230BC704700BF002C0140F7
:100EF00030B4036A23F480530362036A4468C2690E
:100F000022F4E6420D6842EA052223F400538D687C
:100F100043EA0533094DA84203D005F50065A84210
:100F200004D124F480444D6944EA85144460C261CC
:100F30004A680264036230BC704700BF002C014065
:100F400010B4036A046A24F001040462846924F082
:100F5000F00444EA021223F00A030B4382610362A5
:100F60005DF8044B704710B4036A23F0100303626A
:100F70008469036A24F4704444EA023223F0A00333
:100F800043EA0113826103625DF8044B704710B4B9
:100F9000846824F47F4442EA03230B4323438360A1
:100FA0005DF8044B704710B50468A26822F0700227
:100FB0004B68134323F007030A681343A3604B688D
:100FC000502B1ED00AD9602B21D0702B05D10B6974
:100FD0008A68C9680068FFF7DAFF10BD402BFCD1B2
:100FE00003681C6A1A6A22F001021A620268936995
:100FF00023F0F003096943EA0113936103681C625B
:10100000EBE70A6989680068FFF79AFFE5E70A6974
:1010100089680068FFF7A7FFDFE77047022380F8C1
:101020003D300268136843F001031360012380F828
:101030003D3000207047704738B590F83C30012BA8
:1010400018D00446012580F83C50022380F83D303A
:10105000FFF7A9FF2268D36823F04003D36022681A
:10106000D36823F48043D36084F83D50002084F893
:101070003C0038BD0220FCE70368244A904212D0AD
:1010800002F5006290420ED0B0F1804F0BD0A2F575
:101090009832904207D002F58062904203D002F568
:1010A0008062904203D123F070034A681343174AC9
:1010B000904212D002F5006290420ED0B0F1804F03
:1010C0000BD0A2F59832904207D002F58062904290
:1010D00003D002F58062904203D123F44073CA68C2
:1010E000134323F080034A69134303608B68C36290
:1010F0000B688362054B984203D003F50063984266
:1011000001D10B690363012343617047002C014047
:10111000A8B110B5044690F83D305BB1022384F8C5
:101120003D30211D2068FFF7A7FF012384F83D30E3
:10113000002010BD80F83C30FFF76FFFEEE7012084
:101140007047A8B110B5044690F83D305BB102235A
:1011500084F83D30211D2068FFF78EFF012384F8BD
:101160003D30002010BD80F83C30FFF764FFEEE713
:101170000120704730B4036A23F010030362036A4E
:101180004468826922F4E6420D6842EA052223F0AF
:1011900020038D6843EA0513114DA84203D005F5DD
:1011A0000065A84206D123F08003CD6843EA051309
:1011B00023F040030A4DA84203D005F50065A8427C
:1011C00007D124F440644D6944EA85048D6944EAFA
:1011D0008504446082614A688263036230BC704760
:1011E000002C014038B590F83C30012B66D00D46FC
:1011F0000446012380F83C30022380F83D300C2A5D
:101200001AD8DFE802F00719191920191919341929
:10121000191947000068FFF7FFFD2268936943F042
:10122000080393612268936923F0040393612268A1
:10123000936929690B439361012384F83D300020B1
:1012400084F83C0038BD0068FFF794FF226893697A
:1012500043F4006393612268936923F4806393618C
:1012600022689369296943EA01239361E4E70068EE
:10127000FFF706FE2268D36943F00803D3612268B2
:10128000D36923F00403D3612268D36929690B432E
:10129000D361D1E70068FFF72BFE2268D36943F4DE
:1012A0000063D3612268D36923F48063D361226829
:1012B000D369296943EA0123D361BDE70220C1E76D
:1012C00010B4012303FA01F4036A23EA040303625E
:1012D000036A8A40134303625DF8044B70470000C1
:1012E00010B5044601220068FFF7EAFF2368094AA7
:1012F000934203D002F50062934203D15A6C42F448
:1013000000425A642268136843F00103136000200E
:1013100010BD00BF002C014010B4042303FA01F4F7
:10132000036A23EA04030362036A8A4013430362E5
:101330005DF8044B704710B5044604220068FFF7BF
:10134000EBFF2268536C43F4004353642268136834
:1013500043F001031360002010BD90F83C30012BD6
:1013600025D0012380F83C30CB6823F440738A6891
:10137000134323F480634A68134323F400630A6829
:10138000134323F480530A69134323F400534A6937
:10139000134323F480438A69134323F40043134324
:1013A00002685364002380F83C30184670470220DE
:1013B000704790F83C30012B22D030B4012280F8E5
:1013C0003C20022380F83D300468636823F07003FA
:1013D0006360046863680D682B4363600468A368F6
:1013E00023F08003A3600468A36849680B43A360EB
:1013F00080F83D20002380F83C30184630BC704710
:1014000002207047034690F82420012A20D00122B0
:1014100080F824200268906810F0010F07D10D4871
:10142000806810F0010F02D10B48824208D09A6AFE
:1014300042F020029A620120002283F824207047A3
:10144000506820F470200968014351600020F3E7E0
:10145000022070470028014000240140074AD36859
:1014600023F4E0631B041B0C000200F4E06018434B
:1014700040F0BF6040F40030D060704700ED00E005
:1014800030B4174BDB68C3F30223C3F10704042C09
:1014900028BF04241D1D062D18D9033B4FF0FF352E
:1014A00005FA04F421EA0401994005FA03F322EA5B
:1014B0000303194300280BDB0901C9B200F16040A6
:1014C00000F5614080F8001330BC70470023E5E769
:1014D00000F00F000901C9B2024B1954F4E700BF34
:1014E00000ED00E014ED00E000F01F0240090123D0
:1014F0009340024A42F82030704700BF00E100E00C
:1015000000F01F024009012393402030014A42F8B5
:101510002030704700E100E00138B0F1807F0AD24E
:10152000064B5860064AF02182F82310002098608C
:1015300007221A6070470120704700BF10E000E0EA
:1015400000ED00E0042805D0054A136823F00403E9
:1015500013607047024A136843F004031360704736
:1015600010E000E0704708B5FFF7FCFF08BD000081
:10157000F0B482B000263546ABE0002C63D0012CDD
:1015800000D1CE68FF2B72D88446FF2B72D8AC00F6
:10159000DCF800200F27A74022EA070206FA04F42D
:1015A0002243CCF800204A6812F0805F00F090805F
:1015B000654A946944F001049461926902F0010261
:1015C0000192019AAC08A71C604A52F827C005F0A6
:1015D000030297000F22BA402CEA020C5C4A9042A8
:1015E0004ED002F58062904200F08B8002F580625E
:1015F000904200F0888002F58062904200F0858081
:1016000002F58062904200F0828002F58062904292
:1016100034D0062235E04F4FBC4214D00BD94E4F88
:10162000BC4210D007F58037BC420CD0A7F580171C
:10163000BC42A7D107E0A7F58017BC4203D007F54D
:101640008037BC429ED18C687CB1012C08D04261AD
:10165000082697E7CE68083694E7CE680C3691E7FF
:10166000026108268EE700268CE704268AE700F14F
:10167000040C8AE7A5F10804A40089E7052200E02C
:101680000022BA4042EA0C020234304F47F82420CC
:101690004A6812F4803F3CD0304C22681A432260E2
:1016A0004A6812F4003F3AD02C4C62681A436260D8
:1016B0004A6812F4801F38D0284CA2681A43A260EE
:1016C0004A6812F4001F36D0244CE2681343E360EA
:1016D00001350F2D35D80122AA400B6813409A42DC
:1016E000F6D14C68122CB8D095D8022CB2D07FF627
:1016F00044AF032CB7D0112C7FF444AFCE6804362E
:1017000040E70122BDE70222BBE70322B9E704223A
:10171000B7E7124C226822EA03022260C0E70F4CAE
:10172000626822EA03026260C2E70C4CA26822EA05
:101730000302A260C4E7094CE26822EA0303E36003
:10174000C6E702B0F0BC7047001002400000014044
:101750000008014000002110000031100004014089
:101760008368194201D1002070470120704712B9E7
:1017700009040161704701617047C3685940C16045
:101780007047704710B50446074B1868074BA3FB1A
:1017900000308009FFF7C0FE002221464FF0FF30E5
:1017A000FFF76EFE002010BD08000020D34D621030
:1017B00008B5074A136843F0100313600320FFF7CE
:1017C0004DFE0020FFF7DEFFFFF7DBFF002008BD26
:1017D00000200240024A136801331360704700BFC3
:1017E0003C010020014B1868704700BF3C010020FD
:1017F00030B583B00190FFF7F5FF0546019CB4F1C9
:10180000FF3F00D00134FFF7EDFF401BA042FAD3A9
:1018100003B030BD7047000030B482B000230193A4
:1018200090F82430012B00F08B800246012380F8D1
:1018300024304B68062B29D80568686B03EB8303BB
:10184000053B1F249C4020EA04000C6804FA03F3C3
:1018500003436B630B68092B38D91568E86803EB01
:1018600043031E3B07249C4020EA04008C6804FAD2
:1018700003F30343EB600B68103B012B34D90020CA
:10188000002382F8243002B030BC70470C2B0ED8F5
:101890000568286B03EB8303233B1F249C4020EA4D
:1018A00004000C6804FA03F303432B63D2E70568D2
:1018B000E86A03EB8303413B1F249C4020EA0400B9
:1018C0000C6804FA03F30343EB62C3E71568286965
:1018D00003EB430307249C4020EA04008C6804FACD
:1018E00003F303432B61C6E713681648834205D010
:1018F000936A43F0200393620120C1E7986810F4D3
:10190000000F1BD1986840F4000098600B68102B02
:1019100001D00020B4E70C4B1B680C49A1FB03135A
:101920009B0C03EB83035900019102E0019B013BF7
:101930000193019B002BF9D10020A1E700209FE734
:101940000220A0E7002401400800002083DE1B43A2
:1019500030B583B00023019303689A6812F0010F39
:101960002ED19A6842F001029A60174B1B68174A01
:10197000A2FB03239B0C019302E0019B013B01931B
:10198000019B002BF9D10446FFF72CFF0546236885
:101990009B6813F0010F11D1FFF724FF401B0228B1
:1019A000F5D9A36A43F01003A362E36A43F001038D
:1019B000E362002384F82430012002E0002000E0EC
:1019C000002003B030BD00BF0800002083DE1B43B1
:1019D00090F82430012B6AD010B50446012380F81A
:1019E0002430FFF7B5FF024600285BD1A36A23F439
:1019F000407323F0010343F48073A36223682D49ED
:101A00008B4227D0A16A21F48011A162596811F498
:101A1000806F05D0A16A21F4405141F48051A16248
:101A2000A16A11F4805F2BD0E16A21F00601E16226
:101A3000002184F824106FF002011960236899686E
:101A400001F46021B1F5602F1DD0996841F4801137
:101A500099602AE0A1F58061496811F4702FD1D016
:101A6000A16A41F48011A1621349496811F4806FA1
:101A7000D6D0A16A21F4405141F48051A162CFE750
:101A80000021E162D4E70B498B4204D0996841F40C
:101A9000A001996009E0A1F58061496811F4702FF7
:101AA000D3D1F3E7002384F82430104610BD02227E
:101AB00010467047002801400024014038B50368F3
:101AC0009A6812F0010F01D1002038BD04469A68CF
:101AD00022F001029A60FFF785FE054623689B68A5
:101AE00013F0010F0ED0FFF77DFE401B0228F5D941
:101AF000A36A43F01003A362E36A43F00103E362C5
:101B00000120E2E70020E0E7002800F08A8070B5BD
:101B10000446836A002B36D02046FFF7CFFFA36A26
:101B200013F0100377D1002875D1A26A22F48852ED
:101B300022F0020242F00202A262626825683A497B
:101B40008D4226D0E1690A43E66842EA4602A1686E
:101B5000B1F5807F27D0012922D06169012925D0E4
:101B6000696821F469410B436B6021688D682F4BD4
:101B70002B4013438B60A368B3F5807F27D0012BE4
:101B800025D0002126E0C36280F82430FFF742FE12
:101B9000C2E7E169B1F5402FD5D14FF40021D2E77A
:101BA0004FF48073D9E74FF48073D6E736B9A16953
:101BB000013943EA413343F40063D1E7A16A41F0BC
:101BC0002001A162E16A41F00101E162C8E72369F5
:101BD000013B19052568EB6A23F470030B43EB62A4
:101BE00023689968124B0B409A420BD0A36A23F0EA
:101BF000120343F01003A362E36A43F00103E362BC
:101C000001200DE00023E362A36A23F0030343F005
:101C10000103A36204E0A36A43F01003A36201205E
:101C200070BD0120704700BF003C0140FDF7E1FF9F
:101C3000FE0E1FFF2DE9F84305460268136923F4E1
:101C40004053C1680B4313618368026913434269BF
:101C500013430168CA6822F4B05222F00C02134305
:101C6000CB600268536923F4407381690B4353616D
:101C70000268594B9A4257D0FFF7AEF800EB80004C
:101C800000EB80006C68A400B0FBF4F4534FA7FB9A
:101C9000043464092601FFF79FF800EB800000EB95
:101CA00080006C68A400B0FBF4F9FFF795F800EB36
:101CB000800000EB80006C68A400B0FBF4F4A7FB8C
:101CC000043464094FF0640808FB1494240132348E
:101CD000A7FB0434640904F0F0043444FFF77CF8F3
:101CE00000EB800000EB80006E68B600B0FBF6F6FB
:101CF000FFF772F800EB800000EB80006B689B0040
:101D0000B0FBF3F0A7FB0030400908FB10684FEA76
:101D1000081808F13208A7FB0837C7F343172B68E8
:101D200027449F60BDE8F883FFF766F800EB80006A
:101D300000EB80006C68A400B0FBF4F4274FA7FB15
:101D4000043464092601FFF757F800EB800000EB2C
:101D500080006C68A400B0FBF4F9FFF74DF800EBCD
:101D6000800000EB80006C68A400B0FBF4F4A7FBDB
:101D7000043464094FF0640808FB149424013234DD
:101D8000A7FB0434640904F0F0043444FFF734F88A
:101D900000EB800000EB80006E68B600B0FBF6F64A
:101DA000FFF72AF800EB800000EB80006B689B00D7
:101DB000B0FBF3F0A7FB0030400908FB10684FEAC6
:101DC000081808F13208A7FB0837C7F343172B6838
:101DD00027449F60A6E700BF003801401F85EB51F4
:101DE0002DE9F04105460F4616469846069C2B689D
:101DF0001B6837EA03030CBF01230023B3421DD144
:101E0000B4F1FF3FF3D02CB1FFF7ECFCA0EB0800DE
:101E1000A042ECD92A68D36823F4D073D3602A682F
:101E2000536923F001035361202385F8393085F885
:101E30003A30002385F83830032000E00020BDE868
:101E4000F081704758B310B5044690F839300BB3A1
:101E5000242384F839302268D36823F40053D360F4
:101E60002046FFF7E7FE2268136923F490431361CD
:101E70002268536923F02A0353612268D36843F42C
:101E80000053D3600020E063202384F8393084F8C5
:101E90003A3010BD80F83830FFF7D3FFD8E7012083
:101EA00070472DE9F04182B01E4690F83930DBB220
:101EB000202B55D104460D469046002955D0002AC6
:101EC00055D090F83830012B53D0012380F83830AA
:101ED0000023C363212380F83930FFF783FC0746D2
:101EE000A4F82480A4F8268010E000963B46002247
:101EF00080212046FFF774FF00283CD12B88226800
:101F0000C3F3080353602369C3B90235E38C9BB262
:101F1000B3B1E38C013B9BB2E384A368B3F5805F6C
:101F2000E3D000963B46002280212046FFF758FF71
:101F300018BB2A7823685A600135E7E70135E5E7E1
:101F400000963B46002240212046FFF749FF03460A
:101F5000A8B9202284F83920002284F8382000E033
:101F60000223184602B0BDE8F0810123F9E70123FE
:101F7000F7E70223F5E70323F3E70323F1E703235E
:101F8000EFE70000002840D010B403460168204A63
:101F900091422FD81F4A0A441F49A1FB021212097D
:101FA000920002641D4AC263022283F8212018684D
:101FB000016821F47F5121F030015A689C68224366
:101FC000DC6822431C6922435C6922439C692243EA
:101FD000DC6922430A43026000209862D8621863D9
:101FE00058639863012283F8212083F820005DF86C
:101FF000044B70470A4A0A440749A1FB021212091E
:1020000092000264074AC263CEE70120704700BF16
:1020100007040240F8FFFDBFCDCCCCCC000002404D
:10202000F8FBFDBF0004024038B5C36B1A680468B2
:102030002568016C04238B40134200F09B8015F04F
:10204000040F00F09780236813F0200F03D123685A
:1020500023F0040323600368AA4A934246D9783ADE
:10206000934224D01432934228D01432934227D082
:102070001432934227D01432934227D01432934221
:1020800027D01432934227D002F56272934226D0B1
:102090001432934225D01432934224D01432934206
:1020A00002D04FF4802203E04FF4804200E004228B
:1020B000954B5A60C36A03B1984738BD4022F7E791
:1020C0004FF48062F4E74FF48042F1E74FF480224E
:1020D000EEE74FF48002EBE74FF08062E8E704227E
:1020E000E6E74022E4E74FF48062E1E7874A934263
:1020F00024D01432934225D01432934224D0143287
:10210000934224D01432934224D01432934224D0E8
:102110001432934224D002F56272934223D01432D7
:10212000934222D01432934221D01432934202D0EF
:102130004FF4802203E04FF4804200E00422744B0D
:102140005A60B7E74022FAE74FF48062F7E74FF4AE
:102150008042F4E74FF48022F1E74FF48002EEE78B
:102160004FF08062EBE70422E9E74022E7E74FF413
:102170008062E4E702238B40134200F0A38015F055
:10218000020F00F09F80236813F0200F06D1236810
:1021900023F00A032360012380F821300368594AA1
:1021A00093424BD9783A934224D0143293422DD0A3
:1021B000143293422CD0143293422CD014329342D6
:1021C0002CD0143293422CD0143293422CD002F5EE
:1021D000627293422BD0143293422AD0143293422B
:1021E00029D01432934202D04FF4003203E04FF46E
:1021F000005200E00222444B5A60002380F8203055
:10220000836A002B3FF459AF984756E72022F2E744
:102210004FF40072EFE74FF40052ECE74FF4003256
:10222000E9E74FF40012E6E74FF00072E3E702221D
:10223000E1E72022DFE74FF40072DCE7334A934204
:1022400024D01432934225D01432934224D0143235
:10225000934224D01432934224D01432934224D097
:102260001432934224D002F56272934223D0143286
:10227000934222D01432934221D01432934202D09E
:102280004FF4003203E04FF4005200E00222204BF2
:102290005A60B2E72022FAE74FF40072F7E74FF4F2
:1022A0000052F4E74FF40032F1E74FF40012EEE78A
:1022B0004FF00072EBE70222E9E72022E7E74FF454
:1022C0000072E4E7082303FA01F111423FF4F5AE8E
:1022D00015F0080F3FF4F1AE236823F00E032360DE
:1022E000026CC16B012303FA02F24A60836380F837
:1022F0002130002380F82030036B002B3FF4DDAE4B
:102300009847DAE6800002400004024008000240DC
:102310000000024082B00023019300932C4A13680E
:1023200043F0010313602A4B1B6803F00203009380
:10233000019B01330193009B23B9019A4FF6FF7370
:102340009A42F0D1224B1B6813F0020F06D00123F2
:102350000093009B012B04D002B070470023009330
:10236000F7E71B4B5A685A605A6822F460525A6069
:102370005A685A605A6822F4E0625A605A6842F415
:1023800080625A605A6822F0604222F47C125A60DD
:102390005A6842F0005242F480225A601A6842F0B1
:1023A00080721A600A4B1B6813F0007FFAD0084B4A
:1023B0005A6822F003025A605A6842F002025A60D8
:1023C000034B5B6803F00C03082BF9D1C4E700BF93
:1023D0000010024008B5FFF79DFF08BD10B5164C70
:1023E000D4F8883043F47003C4F88830134B1A686B
:1023F00042F001021A605968114A0A405A601A688C
:1024000022F0847222F480321A601A6822F4802248
:102410001A605A6822F0684222F47F025A60196BEF
:10242000084A0A401A634FF41F029A60FFF7D2FF6E
:102430004FF00063A36010BD00ED00E0001002400B
:102440000C00FFE800FFFEFE2DE9F04F89B07B4B4A
:102450009A6942F004029A619A6902F004020192B8
:10246000019A9A6942F008029A619A6902F0080298
:102470000292029A9A6942F010029A619B6903F0F3
:1024800010030393039B00230693022707976C4BCB
:1024900005934FF0200A0DEB0A0444F810AD2146D5
:1024A0006848FFF765F84023049321466548FFF725
:1024B0005FF88025049521466248FFF759F84FF4EC
:1024C0008063049321466048FFF752F84FF400639D
:1024D000049321465C48FFF74BF84FF4805604966E
:1024E00021465948FFF744F8049621465748FFF71C
:1024F0003FF8049721465548FFF73AF84FF0010896
:10250000CDF814804FF00409CDF8109021464D48C5
:10251000FFF72EF81026049621464C48FFF728F8BE
:10252000CDF810A021464948FFF722F80323059370
:10253000CDF8108021464448FFF71AF8CDF81080F6
:1025400021464248FFF714F84FF0080BCDF810B0C1
:1025500021463D48FFF70CF8049721463A48FFF71B
:1025600007F8049621463848FFF702F8CDF810A086
:1025700021463548FEF7FCFFCDF810902146324841
:10258000FEF7F6FFCDF810B021463048FEF7F0FF19
:10259000CDF8109021462D48FEF7EAFF059740231D
:1025A000049321462848FEF7E3FF04952146264878
:1025B000FEF7DEFF4FF48079CDF8109021462248D7
:1025C000FEF7D6FF049521462048FEF7D1FFCDF84F
:1025D000108021461B48FEF7CBFF0497214619487F
:1025E000FEF7C6FFCDF8109021461848FEF7C0FF51
:1025F0004FF40073049321461448FEF7B9FF4FF4DB
:102600008063049321461148FEF7B2FF4FF4005354
:10261000049321460B48FEF7ABFF4FF4804304932D
:1026200021460848FEF7A4FF4FF4004304932146D7
:102630000448FEF79DFF09B0BDE8F08F001002408E
:1026400000003110000C0140001001400008014062
:102650002DE9F04F99B0794B9A6942F400629A6182
:102660009A6902F400620192019A9A6942F4005256
:102670009A619B6903F400530293029B704E714F61
:102680003760002474604FF02008C6F80880DFF837
:10269000BCB1DBF80030DFF8B8A1AAFB0323DB0AEA
:1026A000F36034617461B4613046FEF74AFD102373
:1026B0001693179416A93046FEF77BFE60230F93FE
:1026C0001094119408231293139414944FF40073EC
:1026D000159322460FA93046FEF784FD04220FA968
:1026E0003046FEF77FFD08220FA93046FEF77AFD3F
:1026F0004FF4006308934FF4806309930A94CDF874
:102700002C800C940D940E940DEB08013046FEF7CE
:1027100024FE4D4DDFF83C91C5F800906C60C5F883
:102720000880DBF80030AAFB033A4FEADA23EB60BB
:102730002C616C61AC612846FEF703FDCDF8588032
:102740008023179316A92846FEF733FE049418A990
:10275000052341F8543D2846FEF76EFC60230F9395
:102760001094119408231293139414944FF400734B
:10277000159322460FA92846FEF734FD04220FA91F
:102780002846FEF72FFD08220FA92846FEF72AFD4E
:102790004FF4006308934FF4806309930A94CDF8D3
:1027A0002C800C940D940E940DEB08012846FEF736
:1027B000D4FDD9F8443023F40043C9F844307B6C8D
:1027C00023F400437B6421462846FEF789FD04215B
:1027D0002846FEF785FD08212846FEF781FD2146A3
:1027E0002846FEF7A8FD04212846FEF7A4FD08218F
:1027F0002846FEF7A0FD21463046FEF771FD042174
:102800003046FEF76DFD08213046FEF769FD214692
:102810003046FEF790FD04213046FEF78CFD08217E
:102820003046FEF788FD2B6801221A633268136870
:1028300043F00103136019B0BDE8F08F00100240AF
:1028400048020020002C0140D8030020080000208E
:10285000D34D6210003401402DE9F04186B0424E64
:10286000B36943F40073B361B36903F40073009375
:10287000009B3E4C3E4B23604FF48073A3600025C9
:10288000E56065614FF44023E36165604FF0050842
:10289000C4F810802046FFF737F9364A536843F4EE
:1028A0008023536006A94FF4C02341F8043D20461D
:1028B000FEF7A8FD012304930E220292039302A9BE
:1028C0002046FEF7A9FF02950227039702A920469A
:1028D000FEF7A2FF04970B2702970323039302A995
:1028E0002046FEF799FF0C2302930423039302A9C9
:1028F0002046FEF791FF0723049310230293CDF89F
:102900000C8002A92046FEF787FF2268936843F4F3
:10291000000343F480739360936843F00103936072
:10292000736943F001037361736903F00103019359
:10293000019B114B1D60C3F80480104A9A60104A35
:10294000DA6040F6A2221A601A6842F001021A60A8
:102950002A4629463846FEF793FD3846FEF7C4FD61
:1029600006B0BDE8F08100BF001002401003002057
:102970000024014000000140080002404C240140B6
:1029800084030020F0B585B0284B9A6942F4806238
:102990009A619B6903F480630093009B244C254B50
:1029A00023604FF48073A3600023E36063614FF4FE
:1029B0006022E2616360052626612046FFF7A4F8E5
:1029C000012303930F220192029301A92046FEF7EF
:1029D00023FF0D2301930225029501A92046FEF74E
:1029E0001BFF03950A2301930327029701A92046A1
:1029F000FEF712FF0195042302930DEB030120461D
:102A0000FEF70AFF072303930197029601A92046C8
:102A1000FEF702FF23689A6842F480729A609A680F
:102A200042F001029A6005B0F0BD00BF0010024004
:102A3000C40100200028014030B587B01F4BDA697F
:102A400042F48022DA61DA6902F480220092009A6C
:102A50005A6942F001025A615B6903F00103019374
:102A6000019B1748174D05604FF4E1334360002484
:102A70008460C4600461082343618461C461FFF71A
:102A8000E1F96B6943F080036B614FF4806302935B
:102A900001230493022303930323059302A90A4805
:102AA000FEF766FD094B1C60094A9A605C60902243
:102AB0001A601C3B70225A6007B030BD0010024003
:102AC0008401002000480040000C01401C0002402E
:102AD0000448004000B583B002A941F8040D0A2360
:102AE00001220348FFF7DDF9019803B05DF804FB0C
:102AF0008401002070B5013801280CD80D46164617
:102B0000002404E015F8010BFFF7E4FF0134B442A0
:102B1000F8DB304670BD4FF0FF36FAE7F0B589B00C
:102B2000424EF36943F40033F361F36903F4003375
:102B30000093009B062205211020FEF7A1FC102027
:102B4000FEF7D2FC072205211120FEF799FC112087
:102B5000FEF7CAFC364D374B2B604FF4E1336B6008
:102B60000024AC60EC602C610C236B61AC61EC6107
:102B70002846FFF767F9736943F0010373617369CE
:102B800003F001030193019BB36943F00403B361B4
:102B9000B36903F004030293029BF36943F4003327
:102BA000F361F36903F400330393039B012306935A
:102BB000042304930223059303230793A6F5843685
:102BC00004A93046FEF7D4FC08230493059404A915
:102BD0003046FEF7CDFC184E184B33607460B4607D
:102BE0008027F760346174612023B361F46130465B
:102BF000FFF7C8F96E637562114E124B33601023F4
:102C00007360B460F76034617461B461F46130463C
:102C1000FFF7B8F92E637562224621462620FEF79B
:102C20002FFC2620FEF760FC09B0F0BD001002402A
:102C30009803002000440040400100206C00024046
:102C400040030020800002400B4B1B88132B12D83E
:102C500010B50024094B1C7005E0094B1C70642062
:102C6000FEF7C6FD0134072CF7DD002220210548C0
:102C7000FEF77DFDFEE77047FE0000200D010020FD
:102C80000C0100200008014008B5FEF79FF8084B32
:102C9000A3FB00308009FEF73FFC0420FEF752FC46
:102CA000002211464FF0FF30FEF7EAFB08BD00BFDF
:102CB000D34D621010B58EB0FEF77AFD604CA3695B
:102CC00043F00103A361A36903F001030393039B92
:102CD0000320FEF7C3FB002211466FF00B00FEF746
:102CE000CFFB002211466FF00A00FEF7C9FB00225D
:102CF00011466FF00900FEF7C3FB002211466FF08A
:102D00000400FEF7BDFB002211466FF00300FEF742
:102D1000B7FB002211466FF00100FEF7B1FB002265
:102D200011464FF0FF30FEF7ABFBFFF7ADFF6369D5
:102D300023F001036361FFF787FBFFF789FCFFF7CF
:102D40008BFDFFF71FFEFFF7E9FEFFF775FE01227F
:102D500020213C48FEF70BFD00F0F2FB3A48FEF75D
:102D600037FE3A48FEF734FE00F040FE082405E046
:102D7000374B1C706420FEF73BFD013C002CF7DA5A
:102D8000334B00221A70012204213248FEF7EFFC77
:102D9000314B6FF03B021A60304B3C221A6017E057
:102DA000079B0093069B059A04992D4800F036FF77
:102DB0002BE00C9B00930B9B0A9A0999294800F081
:102DC0002DFF26E002211F48FEF7CAFC00282ED165
:102DD0000520FEF70DFD244B1A88511C1980234C49
:102DE0002349204600F032FF2046FDF7D1F90A239F
:102DF00082B221461F48FFF754F8002104A800F0D2
:102E000031FC164B1B68002BCAD1134B1B68002BDF
:102E1000CFD1049B0E2B02DD104B00221A60099BC0
:102E200013F10E0FCEDA0C4B00221A60CAE7022112
:102E30000448FEF795FC0028F9D1FFF705FFC7E726
:102E4000001002400008014010030020C4010020CF
:102E50000C010020000C01402C0100202801002062
:102E6000E44D00081C4E0008FC000020180400205F
:102E7000D84D00089803002010B52A4B02225A6052
:102E8000294B1A68294BA3FB02139B094FF47A7153
:102E900001FB1323CBB92649D1ED007A9FED257AAA
:102EA00027EE877A244B9B899BB207EE903AF8EE87
:102EB000677ADFED226A67EEA67ADFED216A67EEB8
:102EC000A67A77EE277AC1ED007A0132164B1A60A6
:102ED0001C4B1C78ACB11C4BA3FB02131B0B1B49F6
:102EE00009780131B3FBF1F001FB10334BB9B2FBB0
:102EF000F4F304FB13224AB910211548FEF73DFCF8
:102F000004E0002210211248FEF731FC114B1B781F
:102F100003B110BD0F4C0123237000F097FD002377
:102F20002370F6E70000024010010020D34D62102C
:102F30000C000020A4707D3F84030020BB3ACE3CEF
:102F40000AD7233C0C0100205917B7D10D010020EE
:102F500000080140000100207047FEE7FEE7FEE7A1
:102F6000FEE770477047704708B5FEF733FCFEF781
:102F7000FAFA08BD08B51B4B5B6913F4007303D064
:102F80004FF40073174A5361164A526912F4807F56
:102F900005D0144A4FF48071516143F40073114A13
:102FA000526912F0800F03D00E4A802151610B4309
:102FB0000C4A526912F0400F03D00A4A4021516175
:102FC0000B43084A526912F0200F03D0054A202112
:102FD00051610B4313F4E75F00D108BD00F076FBAD
:102FE000FBE700BF0004014008B5214B5B6913F407
:102FF000004303D04FF400431D4A53611C4A5269F9
:1030000012F4804F04D01A4A4FF4804151610B43AF
:10301000174A526912F4005F04D0154A4FF4005168
:1030200051610B43124A526912F4805F04D0104A76
:103030004FF4805151610B430D4A526912F4006FF5
:1030400004D00B4A4FF4006151610B43084A5269A6
:1030500012F4806F04D0064A4FF4806151610B4333
:1030600013F4E75F00D108BD00F030FBFBE700BFC1
:103070000004014008B50248FEF7D6FF08BD00BFB6
:103080004001002008B50248FEF7CEFF08BD00BF92
:103090004003002010B588420CDD401AB0FBF2F46A
:1030A0009C420CD3DCB2013CE4B24FF00043029AE4
:1030B000136002E00024029B1C60204610BDE4B2B5
:1030C00002FB14010023C8074908FDF7FFFC029B1F
:1030D0001860F2E7D0B4431C32F9133032F91040D3
:1030E0001A1BD717A1FB022301FB0733D00F40EABD
:1030F0004300A4B214FA80F000B2D0BC7047CB0FEA
:10310000B3EBD07F08D090FBF1F301FB13032BB995
:1031100090FBF1F0184470470023F9E74FF0FF33BC
:10312000F6E700002DE9F04F87B00668C4684768ED
:10313000D0F8089039788B00DBB278784200D2B2B0
:103140001344DBB2BA7813445FFA83FBD7F804A0C8
:10315000BAF1000F1BDB257F637F41404A406A4084
:103160005A40A37F9A422ED094F919302376B74B58
:103170005B4493F90A22D3B2A17E5B1A5BB2012BA6
:1031800008D013F1050F05D0FF23637604E0CAF1E0
:10319000000AE0E701236376A276B4F91430E381F4
:1031A0009AB2E18A521A2282E3824FF00108B6F9FC
:1031B0005E3043451BDB94F9193094F91820934293
:1031C0000DD0002314E0B4F91230B6F95E80434507
:1031D00000DA984608F101080FFA88F8E7E7356841
:1031E00003FB05F3B4F90E5093FBF5F300E0002365
:1031F0007168C1F16405626803FB01F302FB0535E8
:10320000934B83FB0523ED17D5EB63157CD42A463E
:10321000F36893427ADC0123E377B4F91030002B92
:103220007ADBB6F95A1099427ADC012384F820300F
:1032300094F91B1096F86030002B79D14FF0FF33D2
:10324000E3768B4203D011B92160C9F810105BBB43
:1032500094F9191001296DD03B789B00DBB2787886
:103260004000C0B20344DBB2B8780344774850FA58
:1032700083F393F80A02013040B2C8EB081C4FEA0E
:103280008C03B4F90EC093FBFCF3C0EB00104FEAC3
:10329000800C01FB03C1C9F8101096F8613013B11E
:1032A000336993424BDB216096F86030022B00F0CB
:1032B0008A80032B00F0A880012B63D094F9193089
:1032C000002BC0F2CD80002BD4BF002201227B68EE
:1032D000002BC0F2C880002BD4BF0020012096F83C
:1032E000601029B17169514502DA824200F0BE8056
:1032F000564A5A4492F90A02052800F3CD80002864
:1033000080F2CB800020C8E06A4281E7B368934234
:1033100083DB0023E37780E79BB25B421BB280E74D
:10332000B6F95C10994283DB002384F820307FE7F4
:10333000002385E7454B5B4493F90A029DE7B16999
:10334000F26905AB00930A23521A5046FFF7A2FE1A
:1033500006F144020599FFF7BDFE94F919309BB2BE
:1033600010FB03F0D9F8103003FA80F34FF4B47176
:1033700002931846FFF7C3FE364B029A03FB002068
:10338000206091E7206805AB009306233C220021D2
:10339000FFF780FE0390059B2C4A02931946FFF726
:1033A00099FE2081294B03F10E0202990398FFF741
:1033B00091FE6081254B03F11C0202990398FFF7EF
:1033C00089FEA0817AE7206805AB009324230A22B6
:1033D0000021FFF75FFE0390059B1F4A02931946E9
:1033E000FFF778FE20811C4B03F14A0202990398F3
:1033F000FFF770FE6081184B03F194020299039865
:10340000FFF768FEA08159E7206805AB00932423ED
:103410000A220021FFF73EFE0390059B0F4A02930C
:103420001946FFF757FE20810C4B03F14A0202991F
:103430000398FFF74FFE6081084B03F19402029955
:103440000398FFF747FEA08138E700BF544E0008FD
:103450001F85EB5198FEFFFF7E4E00085C4F000871
:103460004FF0FF3233E74FF0FF3038E7E27F002ABA
:103470003FF43EAF94F82020002A7FF439AFB4F92E
:10348000081001FB03F1B4F90A2002FB03F2B4F9BE
:103490000C0000FB03F31AE0052000EB40001F4E78
:1034A00000F1F00206EB4202B2F9061001FB03F153
:1034B00000F1F10206EB4202B2F9062002FB03F230
:1034C000F23006EB4000B0F9060000FB03F31448AD
:1034D00080FB01C6C917C1EBA611C9F8001080FB1B
:1034E0000261D217C2EBA112C9F804203A78227700
:1034F0007A786277BA78A277A4F81280A4F8148058
:10350000656080FB0312DB17C3EBA213C9F8083018
:10351000C9F80C5007B0BDE8F08F00BF544E00084A
:10352000D34D62100268C368FF21D976B2F95E10EC
:103530005982B2F95E10D982B2F95E20DA81704701
:1035400070B582B0404E48220021304600F05DFB4D
:103550003E4C62220021204600F057FB94F82530B3
:103560000025012384F8253094F8263084F826506D
:1035700094F8273084F8275094F8283084F828509D
:1035800094F856304FF0FF3384F8563094F85720B3
:1035900084F8573094F8582084F8583094F859201B
:1035A00084F859302A4B1868FCF7AEFF24A3D3E9FE
:1035B0000023FDF701F80022264BFDF727F9FDF760
:1035C00035FAB060F062244BDA6942F00402DA6145
:1035D000DB6903F004030193019B204C204B236023
:1035E0004FF4A0736360A5604FF6FF73E36025613D
:1035F0006561A5612046FDF78BFD2046FDF70EFDB8
:103600002268D36843F00103D3602A4601211E20BB
:10361000FDF736FF1E20FDF767FF2A46032117201E
:10362000FDF72EFF1720FDF75FFF2A460321282014
:10363000FDF726FF2820FDF757FF02B070BD00BF41
:10364000EA2E4454FB2109407C050020140500208B
:10365000740000200080564000100240C405002085
:103660000008004070B504460D4672B61720FDF7FD
:1036700047FF62B6002300E00133012B1DDC124E30
:10368000DA001A449000311836589A001A44900013
:103690002218265008699060486850608869D06098
:1036A000096A1161002DE7D00748DA001A44910039
:1036B0004618002242503261DEE71720FDF714FF62
:1036C0002820FDF711FF70BD7C0500202DE9F04793
:1036D00072B6924B1B68D3F824A0914BD3E90067D4
:1036E000904A936803F0E003DB43C3F342138E4830
:1036F000C3708E498B6803F4E053DB43C3F382232A
:1037000080F8343092688B6892B212F0200F0CBFB0
:10371000012000208649087012F0400F0CBF0120E4
:1037200000208449087012F0800F0CBF0121002195
:10373000814A11709BB213F4806F0CBF01210021EC
:103740007E4A117013F4006F0CBF012100217C4AE6
:10375000117013F4805F0CBF01220022794B1A70A4
:1037600062B6002419E0E20022449100764B0B443B
:103770001A6A01321A62C4EBC403C3EBC3026A4B78
:103780001344DA78D2B21A71D3F80500D3F80910CD
:10379000C3F80D00C3F811100134012C00F3BB80F5
:1037A000C4EBC403C3EBC3025F4B13441A79D2B218
:1037B000DB78DBB29A42EFD0C4EBC403C3EBC303A4
:1037C000594A13441B79002BD5D0604B53F8241071
:1037D0005F4A42F82410002143F82410E5002B1B17
:1037E000C3EBC303504A134493F82100052083F828
:1037F000210093F8220083F8221093F8230083F825
:10380000231093F8240083F824104FEA074949EA6B
:1038100016494FEA064848EA0A00C3F80500C3F80B
:103820000990D3F80580D3F80990D3F80D00D3F8A8
:103830001110B8EB0008197993F803C0C1EBC1016E
:103840006144DFF818C15CF82110D3F8252002FB91
:1038500001F2C3F81D203C492544AA008D1851F8F7
:1038600002C0D3F81DE01833F44441F802C08A586E
:1038700007EE902AF8EEE77AFDEEE77A95ED027A08
:10388000F8EEE77A67EE877AFDEEE77AC5ED047A1F
:10389000C5F81C80D3F80530002B3FF464AF4FEA25
:1038A000C40808EB040293000D461D44E86907EEC6
:1038B000900AF8EE677A17EE900AFCF725FE0246AA
:1038C0000B4600202349FCF7A1FFFDF787F8A8EB82
:1038D0000408C8EBC808144B9844D8F81D3003FB03
:1038E00000F06860D5ED026AD5ED077AF8EE677AE8
:1038F00086EEA77AD8F81D3007EE903AF8EEE77A10
:1039000067EE277A9FED147A67EE877AFDEEE77A05
:10391000C5ED067A2FE7BDE8F08700BFC40500209B
:1039200020010020000C014014050020001001407F
:103930007705002081040020800400207805002005
:1039400076050020100500207C05002004010020E1
:103950001401002000400F410050C3476850000888
:103960001E4B1B681A6912F0010F35D04DF804BDCB
:103970006FF001021A611A49D1E900BC1BF1010282
:103980004CF10003C1E90023002309E0D9001944E8
:103990008800144A0244002151609161D1610133D1
:1039A000012B16DCC3EBC302C2EBC2010E4A0A4470
:1039B0002032D2F80120002AE8DDC3EBC302C2EBBB
:1039C000C201094A0A44D2F821100139C2F8211073
:1039D000E5E75DF804BB7047704700BFC4050020F1
:1039E000200100207C0500201405002010B50E4B9E
:1039F000032283F86020012283F861200B480360D2
:103A00000B4AC2600B4A42600B4A82600B4C236037
:103A10000B4BE3600B4B63600B4BA360FFF782FD26
:103A20002046FFF77FFD10BD100000209406002007
:103A3000180600207C0600203C060020840600209A
:103A400058060020500600200406002010B5514BF7
:103A50009A6812F0200F0CBF012000209A6812F023
:103A6000800F0CBF012100219B6813F0400F0CBF99
:103A700001220022484B187059709A70474A126808
:103A80005A604748FFF74EFB464B19685A689B68D7
:103A900001F57A7040F2C674A04203DC09280FDDFC
:103AA00081B201E040F2C6713F48416302F57A718C
:103AB00040F2C670814205DC092911DD8AB203E0BB
:103AC0000A21F1E740F2C67237498A6303F57A7238
:103AD00040F2C6718A4205DC092A32DD93B203E066
:103AE0000A22F1E740F2C6732F4AD3632F4B9A683C
:103AF00012F4805F0CBF012000209A6812F4806FDE
:103B00000CBF012100219B6813F4006F0CBF012240
:103B10000022274B187059709A70264A12685A6012
:103B20002548FFF7FFFA254B19685A689B6801F58D
:103B30007A7040F2C674A04205DC092811DD81B21A
:103B400003E00A23D0E740F2C6711D48416302F545
:103B50007A7140F2C670814205DC092911DD8AB212
:103B600003E00A21F1E740F2C67215498A6303F5C2
:103B70007A7240F2C6718A4205DC092A08DD93B2E6
:103B800003E00A22F1E740F2C6730D4AD36310BD89
:103B90000A23FAE7000C01407C06002028010020DF
:103BA000940600203C060020003401400010014033
:103BB000500600202C01002084060020040600206E
:103BC000002C0140002103E00A4B5B5843500431B4
:103BD00009480A4B42189A42F6D3094A02E00023E8
:103BE00042F8043B074B9A42F9D3FEF7F7FBFFF785
:103BF00061F87047EC51000800000020DC00002054
:103C0000E0000020A8060020FEE70244034693429D
:103C100000D1704703F8011BF9E700000FB40A4B0D
:103C200013B51C6824B1A36913B9204600F06EF8DF
:103C300005AB049AA1680193204600F0C7FA02B0D0
:103C4000BDE8104004B07047780000200EB400B505
:103C50009CB01DAB029006906FF00041094807919F
:103C60000491094953F8042B05910068019302A9B6
:103C700000F08AF9029B00221A701CB05DF804EB78
:103C800003B07047780000200802FFFF002310B542
:103C90000446C0E90033836081814366C281C0E984
:103CA00004338361194608225C30FFF7AEFF054BF1
:103CB0006362054BA362054BE362054B24622363F9
:103CC00010BD00BF294700084B4700088347000884
:103CD000A7470008014900F085B800BF814A0008E5
:103CE00070B54A1E682555430E4605F1740100F073
:103CF00097F8044640B10021C0E900160C30A060DE
:103D000005F16802FFF781FF204670BD836910B599
:103D1000044633BBC0E912330365124B124A1B68D9
:103D20008262984204BF0123836100F01FF8606043
:103D3000204600F01BF8A060204600F017F8002293
:103D4000E06004216068FFF7A1FF01220921A0685B
:103D5000FFF79CFF02221221E068FFF797FF012383
:103D6000A36110BD2C510008D53C0008F8B51B4BD1
:103D70001E68B369074613B93046FFF7C7FF4836D8
:103D8000D6E90134013B03D5336833B13668F7E730
:103D9000B4F90C506DB16834F4E704213846FFF7EC
:103DA0009FFF30600028F1D10C233B600446204681
:103DB000F8BD0B4B6566C4E90055A560C4E9033541
:103DC000C4E905550822294604F15C00FFF71DFFF0
:103DD000C4E90D55C4E91255E9E700BF2C510008AC
:103DE0000100FFFF2DE9F8438046894600F14804B1
:103DF000002614B93046BDE8F883D4E90175013FC7
:103E000001D52468F5E7AB89012B07D9B5F90E3048
:103E1000013303D029464046C84706436835EEE7DC
:103E200070B5CD1C25F0030508350C2D38BF0C25C9
:103E3000002D064601DBA94203D90C233360002084
:103E400070BD00F0E1FE214A1468214691B9204C72
:103E500023681BB9304600F057FC206029463046E5
:103E600000F052FC431C24D10C233360304600F098
:103E7000CCFEE4E70B685B1B18D40B2B0FD90B604F
:103E8000CD50CC18304600F0C0FE04F10B00231DCD
:103E900020F00700C31AD3D05A42E250D0E78C4238
:103EA0004B6816BF636013600C46EBE70C4649682D
:103EB000CCE7C41C24F00304A04205D0211A3046EC
:103EC00000F022FC0130CFD02560DBE7300100207C
:103ED000340100202DE9F0478E689E4282460C4650
:103EE0009046994637D88A8912F4906F31D0256868
:103EF00009696F1A6569022305EB450595FBF3F522
:103F000009F101033B449D4238BF1D46530530D59E
:103F10002946FFF785FF064650B90C23CAF8003042
:103F2000A38943F04003A3814FF0FF30BDE8F08741
:103F30003A46216900F044FEA38923F4906343F0DC
:103F40008003A381266165613E44ED1B2660A56068
:103F50004E464E4500D94E4632464146206800F056
:103F60003AFEA3689B1BA36023681E4426600020C2
:103F7000DCE72A4600F098FE06460028E2D12169D7
:103F8000504600F043FEC8E72DE9F04F1D468B89EF
:103F90001F069DB080460C4616460FD50B696BB9BF
:103FA0004021FFF73DFF2060206128B90C23C8F8AD
:103FB00000304FF0FF30C8E04023636100230993D5
:103FC00020238DF8293030238DF82A3003954FF0C7
:103FD000010B37463D4615F8013B0BB1252B3ED171
:103FE000B7EB060A0BD05346324621464046FFF750
:103FF00071FF013000F0A480099B534409933B7882
:10400000002B00F09D8000234FF0FF32CDE9052307
:10401000049307938DF853301A932F46052217F80F
:10402000011B5048FCF7BCF8049BD0B9D90644BF2B
:1040300020228DF853201A0744BF2B228DF85320DD
:104040002A782A2A15D0079A2F4600200A253946B1
:1040500011F8013B303B092B4DD9B8B10FE02F4689
:10406000B8E7404A801A0BFA00F0184304903D4626
:10407000D3E7039A111D12680391002A01DB07920E
:1040800004E0524243F00203079204933B782E2B44
:104090000CD17B782A2B33D1039B1A1D1B6803920A
:1040A000002BB8BF4FF0FF33023705932E4D397800
:1040B00003222846FCF774F838B14023401B03FA6A
:1040C00000F0049B034301370493397827488DF8A7
:1040D000281006227E1CFCF763F8002838D0244BF9
:1040E00013BB039B073323F0070308330393099B98
:1040F0004B4409936DE705FB023201200F46A6E70A
:1041000000230137059319460A25384610F8012B7C
:10411000303A092A03D9002BC8D00591C6E705FB20
:10412000012101230746F0E703AB00932246114B20
:1041300004A94046AFF30080B0F1FF3F8146D6D1DD
:10414000A3895B063FF535AF09981DB0BDE8F08F38
:1041500003AB00932246074B04A9404600F0C2F986
:10416000EAE700BF90510008965100089A510008F4
:1041700000000000D53E00089368013B002B10B4FE
:10418000936008DA9469A34201DB0A2903D15DF840
:10419000044B00F00DBB1368581C106019700846E2
:1041A0005DF8044B7047F8B506460F461446D5181F
:1041B000AC4201D1002007E03A4614F8011B30461A
:1041C000FFF7DAFF431CF3D1F8BD00002DE9F04FF3
:1041D0000C469DB017461D46064618B183690BB9BB
:1041E000FFF794FD7C4B9C4258D17468A389180753
:1041F0005ED52369002B5BD00023099320238DF823
:10420000293030238DF82A3003954FF0010BB84642
:10421000454615F8013B0BB1252B54D1B8EB070AE5
:104220000BD053463A4621463046FFF7BCFF0130DB
:1042300000F0C280099B5344099398F80030002B8A
:1042400000F0BA8000234FF0FF32CDE9052304933C
:1042500007938DF853301A93A846052218F8011BCE
:104260005E48FBF79DFF049B78BBD90644BF202224
:104270008DF853201A0744BF2B228DF853202A783B
:104280002A2A2AD0079AA84600200A25414611F872
:10429000013B303B092B69D960B324E0504B9C4271
:1042A00001D1B468A2E74F4B9C4208BFF4689DE778
:1042B0002146304600F0E0FA00289DD04FF0FF3054
:1042C0001DB0BDE8F08FA846A2E7444A801A0BFA59
:1042D00000F0184304904546BEE7039A111D12688A
:1042E0000391002A01DB079204E0524243F00203EB
:1042F0000792049398F800302E2B0ED198F80130D5
:104300002A2B38D1039B1A1D1B680392002BB8BFC0
:104310004FF0FF3308F102080593334D98F8001071
:1043200003222846FBF73CFF40B14023401B03FA21
:1043300000F0049B034308F10108049398F800106F
:104340002A488DF82810062208F10107FBF728FFFC
:10435000002837D0264B1BBB039B073323F00703F2
:1043600008330393099B4B44099350E705FB023242
:10437000012088468AE7002308F1010805931946C1
:104380000A25404610F8012B303A092A03D9002BA0
:10439000C3D00591C1E705FB012101238046F0E769
:1043A00003AB00932246134B04A93046AFF30080C1
:1043B000B0F1FF3F8146D5D1A3895B063FF57EAFC3
:1043C00009987DE703AB009322460A4B04A93046C7
:1043D00000F088F8ECE700BF505100089051000849
:1043E0007051000830510008965100089A51000899
:1043F00000000000A74100082DE9F04791461F4644
:104400008A680B69DDF820809342B8BF1346C9F86B
:10441000003091F8432006460C4612B10133C9F82A
:1044200000302368990642BFD9F800300233C9F83A
:104430000030256815F0060507D104F1190AE36874
:10444000D9F800209B1AAB4228DC94F8433022684C
:10445000003318BF012392062DD404F143023946DC
:104460003046C047013020D02368E568D9F80020E5
:1044700003F00603042B08BFAD1AA36822690CBF22
:1044800025EAE57500259342C4BF9B1AED184FF04D
:1044900000091A344D451AD1002008E00123524684
:1044A00039463046C047013003D14FF0FF30BDE8F8
:1044B000F0870135C3E7E1185A1C302081F843002A
:1044C000224494F8451082F843100233C5E70123D3
:1044D000224639463046C0470130E6D009F101098D
:1044E000D8E700002DE9F04301F1430C0C46097EAA
:1044F00085B06E291746064698460C9A00F0B380A0
:1045000022D8632936D00AD8002900F0B98058296A
:1045100000F0838004F1420584F8421032E06429FF
:1045200001D06929F6D120681368050603F104015A
:104530002AD51B681160002B03DA2D225B4284F818
:1045400043206F480A2239E0732900F09D8008D883
:104550006F2920D07029DDD1236843F02003236028
:1045600003E0752917D07829D4D1782384F8453011
:10457000644855E01368191D1B68116004F1420579
:1045800084F8423001238CE01B68116010F0400F6A
:1045900018BF1BB2CFE713682568181D10602806E6
:1045A00001D51B6802E06806FBD51B8854486F29BB
:1045B00014BF0A220822002184F843106568A56010
:1045C000002DC0F29580216821F004012160002BAC
:1045D0003DD1002D40F08E806546082A0BD123681E
:1045E000DB0708D5236962689A42DEBF302305F8ED
:1045F000013C05F1FF35ACEB05032361CDF80080EC
:104600003B4603AA21463046FFF7F6FE01304DD166
:104610004FF0FF3005B0BDE8F083394884F845100D
:10462000136821681D1D1B6815600A060BD5CA0793
:1046300044BF41F0200121601BB9226822F0200212
:1046400022601022B7E74D0648BF9BB2EFE76546F0
:10465000B3FBF2F102FB1133C35C05F8013D0B46DD
:104660000029F5D1B9E7136825686169181D106044
:1046700028061B6801D5196002E06A06FBD519807F
:10468000002323616546B9E71368191D11601D6891
:10469000626800212846FBF783FD08B1401B60607B
:1046A00063682361002384F84330A7E723692A461F
:1046B00039463046C0470130AAD023689B0713D43F
:1046C000E068039B9842B8BF1846A3E701234A4617
:1046D00039463046C04701309AD00135E368039A25
:1046E0009B1AAB42F2DCEBE7002504F11909F5E770
:1046F000002BACD1037884F8423004F142056CE71A
:10470000A1510008B251000838B5064C00230546F7
:104710000846236000F052FB431C02D1236803B11A
:104720002B6038BDA406002010B50C46B1F90E1060
:1047300000F0E0FA0028ABBF636DA3891B1823F4D7
:104740008053ACBF6365A38110BD2DE9F0411F46C6
:104750008B89DB0505460C46164605D5022300224B
:10476000B1F90E1000F0B6F9A389B4F90E1023F4D4
:104770008053A38132463B462846BDE8F04100F015
:1047800069B810B50C46B1F90E1000F0A3F9431C3E
:10479000A38915BF606523F4805343F48053A3813C
:1047A00018BFA38110BDB1F90E1000F0D3B80000FE
:1047B000F8B50E461446054618B183690BB9FFF7E4
:1047C000A5FA214B9C422AD16C68A369A360A389F6
:1047D0001A072ED5236963B323692068C01A636959
:1047E000F6B28342374604DC2146284600F048F9F9
:1047F00028BBA368013BA36023685A1C22601E707B
:1048000063690130834204D0A389DB0719D50A2EDE
:1048100017D12146284600F033F990B10FE00B4B39
:104820009C4201D1AC68D0E7094B9C4208BFEC68C0
:10483000CBE72146284600F01FF80028CCD04FF0E7
:10484000FF373846F8BD00BF5051000870510008CE
:104850003051000838B5074C05460846114600227D
:1048600022601A46FEF746F9431C02D1236803B1C1
:104870002B6038BDA4060020324B70B51D6806467B
:104880000C4625B1AB6913B92846FFF73FFA2E4B0A
:104890009C420FD16C68B4F90C309AB215072CD435
:1048A000D00611D40922326043F04003A3814FF0B7
:1048B000FF303EE0254B9C4201D1AC68EBE7244B36
:1048C0009C4208BFEC68E6E7510712D5616B41B125
:1048D00004F14403994202D0304600F097F90023D6
:1048E0006363A38923F02403A38100236360236906
:1048F0002360A38943F00803A38123694BB9A389EB
:1049000003F42073B3F5007F03D02146304600F056
:1049100017F9A28912F001030CD00023A360636988
:104920005B42A361236953B9B4F90C3013F08000E2
:10493000BAD170BD920758BF6369A360F2E7002047
:10494000F7E700BF780000205051000870510008C0
:104950003051000838B5064C002305460846236050
:1049600000F004FA431C02D1236803B12B6038BD68
:10497000A40600208A892DE9F041054610070C465F
:1049800058D44B68002B05DC0B6C002B02DC00209C
:10499000BDE8F081E66A002EF9D0002312F48052BF
:1049A0002F68216A2B6032D0606DA3895A0705D524
:1049B0006368C01A636B0BB1236CC01A00230246F4
:1049C000E66A216A2846B047431CA38906D12968B4
:1049D0001D2948D8294ACA40D60744D5002262601A
:1049E000D9042269226004D5421C01D12B6803B985
:1049F0006065616B2F600029C9D004F144039942BE
:104A000002D0284600F002F900206063C0E70123CD
:104A10002846B047411CC8D12B68002BC5D01D2BA0
:104A200001D0162B01D12F60B1E7A38943F04003D9
:104A3000A381ADE70F69002FA9D093070E6808BFC7
:104A40004B690F6018BF0023A6EB07088B60B8F115
:104A5000000F9CDD43463A46216AA66A2846B047C5
:104A6000002806DCA38943F04003A3814FF0FF3008
:104A70008EE70744A8EB0008E9E700BF01004020EB
:104A800038B50B6905460C46DBB118B183690BB923
:104A9000FFF73CF90C4B9C4209D16C68B4F90C301F
:104AA0007BB121462846BDE83840FFF763BF074B7E
:104AB0009C4201D1AC68F1E7054B9C4208BFEC6811
:104AC000ECE7002038BD00BF5051000870510008CD
:104AD0003051000838B5074C0546084611460022FB
:104AE00022601A4600F05AF9431C02D1236803B130
:104AF0002B6038BDA406002070B50E46B1F90E102B
:104B0000002996B014461D4607DA00232B60B389AE
:104B10001A0610D44FF480630EE06A4600F0FCF8E9
:104B20000028F2DB019A02F47042A2F500535A42C7
:104B30005A412A60EEE740230020236016B070BD82
:104B40008B8973B59D0706460C4607D504F14703CC
:104B5000236023610123636102B070BD01AB6A462B
:104B6000FFF7CAFF009905463046FFF759F948B9E3
:104B7000B4F90C309A05EFD423F0030343F0020399
:104B8000A381E3E70D4BB362A389206043F0800368
:104B9000A381009B6361019B20615BB1B4F90E109E
:104BA000304600F0CBF828B1A38923F0030343F08B
:104BB0000103A381A3891D43A581CDE7D53C00084E
:104BC00010B5431E0A44914200D110BD11F8014BAB
:104BD00003F8014FF7E7884210B501EB020307D84D
:104BE000421E99420AD011F8014B02F8014FF8E732
:104BF0008342F5D98118D21AD34200D110BD13F8DF
:104C0000014D01F8014DF7E77047704738B505468B
:104C1000002945D051F8043C0C1F002BB8BFE41804
:104C2000FFF7F2FF1F4A1368104633B96360146040
:104C30002846BDE83840FFF7E8BFA3420CD92168F9
:104C40006218934204BF1A685B68636004BF52181D
:104C500022600460ECE713465A680AB1A242FAD90E
:104C600019685818A0420BD1206801445818824294
:104C70001960DDD1106852685A6001441960D7E7A5
:104C800002D90C232B60D3E7206821188A4204BF85
:104C900011685268626004BF091821605C60C7E750
:104CA00038BD00BF30010020F8B5074614460E4657
:104CB00021B91146BDE8F840FFF7B2B822B9FFF7B5
:104CC000A5FF25462846F8BD00F048F8A0420FD2BF
:104CD00021463846FFF7A4F805460028F2D03146B1
:104CE0002246FFF76DFF31463846FFF78FFFE9E7B1
:104CF0003546E7E738B5074C054608461146002219
:104D000022601A4600F052F8431C02D1236803B116
:104D10002B6038BDA406002038B5074C002305469B
:104D200008461146236000F029F8431C02D123688D
:104D300003B12B6038BD00BFA406002038B5064C77
:104D4000002305460846236000F020F8431C02D1EA
:104D5000236803B12B6038BDA406002051F8043C41
:104D6000181F002BBCBF0B58C0187047024B5822AD
:104D70001A604FF0FF307047A4060020024B582203
:104D80001A604FF0FF307047A4060020024B5822F3
:104D90001A600020704700BFA4060020024B582272
:104DA0001A604FF0FF307047A4060020024B5822D3
:104DB0001A604FF0FF307047A4060020044A0549EE
:104DC0001368002B08BF0B46184410601846704744
:104DD00038010020A806002048656C6C6F2025640F
:104DE0000A0000006C65667420776865656C207247
:104DF00065762025642C2072706D2025642C20702F
:104E00006F73206D6D2025642C20737065656420A0
:104E10006D6D2F732025640A0000000072696768B9
:104E20007420776865656C207265762025642C2077
:104E300072706D2025642C20706F73206D6D20259D
:104E4000642C207370656564206D6D2F732025645C
:104E50000A000000E803E803E80318FC18FC18FC4B
:104E6000E80318FC18FCE803E803E80318FC18FC46
:104E7000E80318FC18FC18FCE803E803E803F40155
:104E80008302FE026203AC03D903E803D903AC0337
:104E90006203FE028302F4015601AE00000052FFDD
:104EA000AAFE0CFE7DFD02FD9EFC54FC27FC18FCB6
:104EB00027FC54FC9EFC02FD7DFD0CFEAAFE52FF69
:104EC0000000AE005601F40118FC27FC54FC9EFCC7
:104ED00002FD7DFD0CFEAAFE52FF0000AE00560151
:104EE000F4018302FE026203AC03D903E803D90391
:104EF000AC036203FE028302F4015601AE0000001F
:104F000052FFAAFE0CFE7DFD02FD9EFC54FC27FC18
:104F100018FCF4015601AE00000052FFAAFE0CFE80
:104F20007DFD02FD9EFC54FC27FC18FC27FC54FC74
:104F30009EFC02FD7DFD0CFEAAFE52FF0000AE00AD
:104F40005601F4018302FE026203AC03D903E803B5
:104F5000D903AC036203FE028302F4012D03B10303
:104F6000E803E403C2039E0390039E03C203E40329
:104F7000E803B1032D0357023F010000C1FEA9FD64
:104F8000D3FC4FFC18FC1CFC3EFC62FC70FC62FC79
:104F90003EFC1CFC18FC4FFCD3FCA9FDC1FE00002C
:104FA0003F0157022D0370FC62FC3EFC1CFC18FC08
:104FB0004FFCD3FCA9FDC1FE00003F0157022D03A9
:104FC000B103E803E403C2039E0390039E03C203FC
:104FD000E403E803B1032D0357023F010000C1FEC3
:104FE000A9FDD3FC4FFC18FC1CFC3EFC62FC70FCD1
:104FF0002D0357023F010000C1FEA9FDD3FC4FFC69
:1050000018FC1CFC3EFC62FC70FC62FC3EFC1CFCC0
:1050100018FC4FFCD3FCA9FDC1FE00003F01570264
:105020002D03B103E803E403C2039E0390039E0330
:10503000C203E403E803B1032D03E80318FC0000F6
:10504000E803000018FC0000E80318FC18FCE80363
:10505000000018FC0000E803000018FCE80300054D
:105060000304010002000000000000000000000036
:105070000000000000000000000000000000000030
:105080000000000000000000000000000000000020
:10509000FFFFFFFF00000000010000000000000013
:1050A00000000000000000000000000001000000FF
:1050B0000000000000000000FFFFFFFF00000000F4
:1050C00001000000FFFFFFFF0000000000000000E3
:1050D00000000000000000000000000000000000D0
:1050E000000000000000000000000000FFFFFFFFC4
:1050F0000100000000000000FFFFFFFF00000000B3
:10510000000000000100000000000000000000009E
:10511000000000000000000001000000000000008E
:10512000FFFFFFFF00000000000000007C000020E7
:10513000000000000000000000000000000000006F
:10514000000000000000000000000000000000005F
:10515000000000000000000000000000000000004F
:10516000000000000000000000000000000000003F
:10517000000000000000000000000000000000002F
:10518000000000000000000000000000000000001F
:10519000232D302B2000686C4C0065666745464720
:1051A00000303132333435363738394142434445A3
:1051B0004600303132333435363738396162636412
:1051C00065660000F8B500BFF8BC08BC9E46704795
:0C51D000F8B500BFF8BC08BC9E46704754
:0851DC0020B9FF7F0100000073
:0451E4007501000849
:0451E8005101000869
:1051EC00000000000102030400A24A040000204257
:1051FC00AB2900000A0000000F0000001E00000098
:10520C009001000046000000000000006400000057
:10521C00C80000002C01000090010000F401000007
:10522C0058020000BC0200002003000084030000B0
:10523C00E803000000000000000000000000020075
:10524C000300050009001000190032001400DC05F1
:10525C00030100009A1925437C0000200000000087
:10526C005051000870510008305100080000000037
:10527C000000000000000000000000000000000022
:10528C000000000000000000000000000000000012
:10529C000000000000000000000000000000000002
:1052AC0000000000000000000000000000000000F2
:0C52BC00000000000000000000000000E6
:0400000508003BC5EF
:00000001FF
