:020000040800F2
:1000000000C0002075310008BD260008BF2600088A
:10001000C1260008C3260008C5260008000000000D
:10002000000000000000000000000000C7260008DB
:10003000C926000800000000CB260008CD260008D5
:10004000B9310008B9310008B9310008B9310008E8
:10005000B9310008B9310008B9310008B9310008D8
:10006000B9310008B9310008B9310008DD250008B0
:10007000B9310008B9310008B9310008B9310008B8
:10008000C1270008D1270008B9310008B93100089C
:10009000B9310008B9310008B9310008D926000883
:1000A000B9310008B9310008B9310008B931000888
:1000B000B9310008B9310008112F0008B931000822
:1000C000B9310008B9310008B9310008B931000868
:1000D000B9310008B9310008B9310008B931000858
:1000E0004D270008B9310008B9310008B9310008BE
:1000F000B9310008B9310008B9310008B931000838
:10010000B9310008B9310008B9310008B931000827
:10011000B9310008B9310008B9310008B931000817
:10012000B9310008B9310008B9310008B931000807
:10013000B9310008B9310008B9310008B9310008F7
:10014000B9310008B9310008B9310008B9310008E7
:1001500010B5054C237833B9044B13B10448AFF301
:1001600000800123237010BD7000002000000000FB
:100170009434000808B5034B1BB103490348AFF39F
:10018000008008BD000000007400002094340008C6
:1001900081F0004102E000BF83F0004330B54FEA38
:1001A00041044FEA430594EA050F08BF90EA020FA5
:1001B0001FBF54EA000C55EA020C7FEA645C7FEA38
:1001C000655C00F0E2804FEA5454D4EB5555B8BF5B
:1001D0006D420CDD2C4480EA020281EA030382EACC
:1001E000000083EA010180EA020281EA0303362D5E
:1001F00088BF30BD11F0004F4FEA01314FF4801C31
:100200004CEA113102D0404261EB410113F0004F42
:100210004FEA03334CEA133302D0524263EB4303F9
:1002200094EA050F00F0A780A4F10104D5F1200E97
:100230000DDB02FA0EFC22FA05F2801841F10001F2
:1002400003FA0EF2801843FA05F359410EE0A5F1C6
:1002500020050EF1200E012A03FA0EFC28BF4CF0F7
:10026000020C43FA05F3C01851EBE37101F00045AD
:1002700007D54FF0000EDCF1000C7EEB00006EEBBA
:100280000101B1F5801F1BD3B1F5001F0CD3490844
:100290005FEA30004FEA3C0C04F101044FEA44529B
:1002A00012F5800F80F09A80BCF1004F08BF5FEA22
:1002B000500C50F1000041EB045141EA050130BD02
:1002C0005FEA4C0C404141EB010111F4801FA4F1A5
:1002D0000104E9D191F0000F04BF01460020B1FAFA
:1002E00081F308BF2033A3F10B03B3F120020CDA32
:1002F0000C3208DD02F1140CC2F10C0201FA0CF010
:1003000021FA02F10CE002F11402D8BFC2F1200C74
:1003100001FA02F120FA0CFCDCBF41EA0C0190402A
:10032000E41AA2BF01EB0451294330BD6FEA040473
:100330001F3C1CDA0C340EDC04F11404C4F120025E
:1003400020FA04F001FA02F340EA030021FA04F370
:1003500045EA030130BDC4F10C04C4F1200220FAC7
:1003600002F001FA04F340EA0300294630BD21FA05
:1003700004F0294630BD94F0000F83F4801306BFCB
:1003800081F480110134013D4EE77FEA645C18BFBF
:100390007FEA655C29D094EA050F08BF90EA020F56
:1003A00005D054EA000C04BF1946104630BD91EA4E
:1003B000030F1EBF0021002030BD5FEA545C05D151
:1003C0004000494128BF41F0004130BD14F5800490
:1003D0003CBF01F5801130BD01F0004545F0FE4104
:1003E00041F470014FF0000030BD7FEA645C1ABF39
:1003F000194610467FEA655C1CBF0B46024650EA70
:10040000013406BF52EA033591EA030F41F400219B
:1004100030BD00BF90F0000F04BF0021704730B521
:100420004FF4806404F132044FF000054FF00001F6
:1004300050E700BF90F0000F04BF0021704730B5B7
:100440004FF4806404F1320410F0004548BF40428C
:100450004FF000013EE700BF42004FEAE2014FEAE1
:1004600031014FEA02701FBF12F07F4393F07F4FBC
:1004700081F06051704732F07F4208BF704793F0BF
:100480007F4F04BF41F40021704730B54FF46074D2
:1004900001F0004521F000411CE700BF50EA0102D5
:1004A00008BF704730B54FF000050AE050EA01027E
:1004B00008BF704730B511F0004502D5404261EBEE
:1004C00041014FF4806404F132045FEA915C3FF42F
:1004D000D8AE4FF003025FEADC0C18BF03325FEACC
:1004E000DC0C18BF033202EBDC02C2F1200300FA7D
:1004F00003FC20FA02F001FA03FE40EA0E0021FAA2
:1005000002F11444BDE600BF70B54FF0FF0C4CF48F
:10051000E06C1CEA11541DBF1CEA135594EA0C0F41
:1005200095EA0C0F00F0DEF82C4481EA030621EA7C
:100530004C5123EA4C5350EA013518BF52EA0335B7
:1005400041F4801143F4801338D0A0FB02CE4FF069
:100550000005E1FB02E506F00042E0FB03E54FF099
:100560000006E1FB03569CF0000F18BF4EF0010E91
:10057000A4F1FF04B6F5007F64F5407404D25FEA8D
:100580004E0E6D4146EB060642EAC62141EA555140
:100590004FEAC52040EA5E504FEACE2EB4F1FD0C82
:1005A00088BFBCF5E06F1ED8BEF1004F08BF5FEA00
:1005B000500E50F1000041EB045170BD06F00046B2
:1005C00046EA010140EA020081EA0301B4EB5C045F
:1005D000C2BFD4EB0C0541EA045170BD41F4801157
:1005E0004FF0000E013C00F3AB8014F1360FDEBF7C
:1005F000002001F0004170BDC4F10004203C35DA58
:100600000C341BDC04F11404C4F1200500FA05F3DA
:1006100020FA04F001FA05F240EA020001F000427B
:1006200021F0004110EBD37021FA04F642EB0601F1
:100630005EEA430E08BF20EAD37070BDC4F10C041B
:10064000C4F1200500FA04F320FA05F001FA04F2DF
:1006500040EA020001F0004110EBD37041F10001CB
:100660005EEA430E08BF20EAD37070BDC4F12005D6
:1006700000FA05F24EEA020E20FA04F301FA05F23E
:1006800043EA020321FA04F001F0004121FA04F2E6
:1006900020EA020000EBD3705EEA430E08BF20EAB6
:1006A000D37070BD94F0000F0FD101F000464000F0
:1006B00041EB010111F4801F08BF013CF7D041EA72
:1006C000060195F0000F18BF704703F00046520076
:1006D00043EB030313F4801F08BF013DF7D043EA47
:1006E0000603704794EA0C0F0CEA135518BF95EAFD
:1006F0000C0F0CD050EA410618BF52EA4306D1D184
:1007000081EA030101F000414FF0000070BD50EAA2
:10071000410606BF1046194652EA430619D094EA2C
:100720000C0F02D150EA013613D195EA0C0F05D116
:1007300052EA03361CBF104619460AD181EA03016A
:1007400001F0004141F0FE4141F470014FF0000022
:1007500070BD41F0FE4141F4780170BD70B54FF0BD
:10076000FF0C4CF4E06C1CEA11541DBF1CEA13553D
:1007700094EA0C0F95EA0C0F00F0A7F8A4EB05041F
:1007800081EA030E52EA03354FEA013100F0888016
:100790004FEA03334FF0805545EA131343EA1263DF
:1007A0004FEA022245EA111545EA10654FEA002694
:1007B0000EF000419D4208BF964244F1FD0404F54D
:1007C000407402D25B084FEA3202B61A65EB0305A9
:1007D0005B084FEA32024FF480104FF4002CB6EB66
:1007E000020E75EB030E22BFB61A754640EA0C00E6
:1007F0005B084FEA3202B6EB020E75EB030E22BF26
:10080000B61A754640EA5C005B084FEA3202B6EB66
:10081000020E75EB030E22BFB61A754640EA9C0025
:100820005B084FEA3202B6EB020E75EB030E22BFF5
:10083000B61A754640EADC0055EA060E18D04FEAB3
:10084000051545EA16754FEA06164FEAC30343EA53
:1008500052734FEAC2025FEA1C1CC0D111F4801F20
:100860000BD141EA00014FF000004FF0004CB6E719
:1008700011F4801F04BF01430020B4F1FD0C88BFB8
:10088000BCF5E06F3FF6AFAEB5EB030C04BFB6EBC3
:10089000020C5FEA500C50F1000041EB045170BDB6
:1008A0000EF0004E4EEA113114EB5C04C2BFD4EBE3
:1008B0000C0541EA045170BD41F480114FF0000E67
:1008C000013C90E645EA060E8DE60CEA135594EAE3
:1008D0000C0F08BF95EA0C0F3FF43BAF94EA0C0FE6
:1008E0000AD150EA01347FF434AF95EA0C0F7FF45B
:1008F00025AF104619462CE795EA0C0F06D152EAAF
:1009000003353FF4FDAE1046194622E750EA410692
:1009100018BF52EA43067FF4C5AE50EA41047FF4A3
:100920000DAF52EA43057FF4EBAE12E74FEA410206
:1009300012F5001215D211D56FF47873B3EB625231
:1009400012D94FEAC12343F0004343EA505311F058
:10095000004F23FA02F018BF404270474FF00000EA
:10096000704750EA013005D111F0004008BF6FF028
:10097000004070474FF00000704700BF53B94AB9BC
:10098000002908BF00281CBF4FF0FF314FF0FF3097
:1009900000F072B9ADF1080C6DE904CE00F006F874
:1009A000DDF804E0DDE9022304B070472DE9F047EB
:1009B000089E04468846002B4BD18A42154667D9CB
:1009C000B2FA82F24AB1C2F1200701FA02F320FA28
:1009D00007F7954047EA030894404FEA154E230C69
:1009E000B8FBFEF71FFA85FC0EFB178843EA0843A5
:1009F00007FB0CF1994209D9EB1807F1FF3080F0A1
:100A00001B81994240F21881023F2B445B1AA4B229
:100A1000B3FBFEF00EFB103344EA034400FB0CFC76
:100A2000A44509D92C1900F1FF3380F00781A445B2
:100A300040F2048102382C4440EA0740A4EB0C0445
:100A400000271EB1D4400023C6E900433946BDE863
:100A5000F0878B4209D9002E00F0EB800027C6E911
:100A6000000138463946BDE8F087B3FA83F7002F16
:100A700047D18B4202D3824200F2FA80841A61EBA2
:100A8000030301209846002EE0D0C6E90048DDE7C8
:100A900002B9FFDEB2FA82F2002A40F08F80491BD1
:100AA0004FEA154E1FFA85F80127B1FBFEFC230C17
:100AB0000EFB1C1143EA014308FB0CF1994207D9D4
:100AC000EB180CF1FF3002D2994200F2CD8084463F
:100AD000591AA3B2B1FBFEF00EFB101443EA044412
:100AE00008FB00F8A04507D92C1900F1FF3302D20A
:100AF000A04500F2B6801846A4EB080440EA0C407A
:100B00009FE7C7F1200CBB4022FA0CFE4EEA030E11
:100B100001FA07F420FA0CF521FA0CF34FEA1E480B
:100B20002543B3FBF8F92C0C08FB19331FFA8EFA96
:100B300044EA034309FB0AF49C4202FA07F200FA72
:100B400007F10BD91EEB030309F1FF3080F087801A
:100B50009C4240F28480A9F1020973441B1BADB290
:100B6000B3FBF8F008FB103345EA034400FB0AFA34
:100B7000A24508D91EEB040400F1FF336BD2A24555
:100B800069D90238744440EA0940A0FB0289A4EB09
:100B90000A044C45C2464B4654D351D0002E69D06E
:100BA000B1EB0A0564EB030404FA0CFCFD40FC40C5
:100BB0004CEA0505C6E90054002747E7C2F12003C7
:100BC00020FA03F7954001FA02F021FA03F34FEA05
:100BD000154E3843010CB3FBFEF71FFA85F80EFBE8
:100BE000173341EA034107FB08F38B4204FA02F48E
:100BF00007D9691807F1FF3C2FD28B422DD9023F4C
:100C00002944CB1A81B2B3FBFEF00EFB103341EA4C
:100C1000034100FB08F38B4207D9691800F1FF3C40
:100C200017D28B4215D902382944C91A40EA07471E
:100C30003BE73746304609E70746E7E61846FBE656
:100C40004145ABD2B8EB020A69EB0E0201381346FC
:100C5000A4E76046E9E7184695E76746D1E781468D
:100C60007CE702382C4447E7ACF1020C2B442FE719
:100C7000384608E73746E9E6704700BF014B186879
:100C8000704700BF0000002030B4036A23F0010366
:100C90000362056A4268846924F073040B681C438C
:100CA00025F002058B682B43104DA84203D005F5B3
:100CB0000065A84205D123F00803CD682B4323F03B
:100CC00004030A4DA84203D005F50065A84205D1EA
:100CD00022F440724D6915438A692A434260846157
:100CE0004A684263036230BC704700BF002C014079
:100CF00030B4036A23F480730362036A4268C469F0
:100D000024F073040D682C4323F400738D6843EAC8
:100D10000523124DA84203D005F50065A84206D16F
:100D200023F40063CD6843EA052323F480630B4D6D
:100D3000A84203D005F50065A84207D122F440522D
:100D40004D6942EA05128D6942EA05124260C461AA
:100D50004A68C263036230BC704700BF002C014088
:100D600030B4036A23F480530362036A4468C2699F
:100D700022F4E6420D6842EA052223F400538D680E
:100D800043EA0533094DA84203D005F50065A842A2
:100D900004D124F480444D6944EA85144460C2615E
:100DA0004A680264036230BC704700BF002C0140F7
:100DB00010B4036A046A24F001040462846924F014
:100DC000F00444EA021223F00A030B438261036237
:100DD0005DF8044B704710B4036A23F010030362FC
:100DE0008469036A24F4704444EA023223F0A003C5
:100DF00043EA0113826103625DF8044B704710B44B
:100E0000846824F47F4442EA03230B432343836032
:100E10005DF8044B704710B50468A26822F07002B8
:100E20004B68134323F007030A681343A3604B681E
:100E3000502B1ED00AD9602B21D0702B05D10B6905
:100E40008A68C9680068FFF7DAFF10BD402BFCD143
:100E500003681C6A1A6A22F001021A620268936926
:100E600023F0F003096943EA0113936103681C62EC
:100E7000EBE70A6989680068FFF79AFFE5E70A6906
:100E800089680068FFF7A7FFDFE7704738B590F87B
:100E90003C30012B18D00446012580F83C50022339
:100EA00080F83D30FFF7B7FF2268D36823F0400396
:100EB000D3602268D36823F48043D36084F83D5024
:100EC000002084F83C0038BD0220FCE70368244A77
:100ED000904212D002F5006290420ED0B0F1804FE5
:100EE0000BD0A2F59832904207D002F58062904272
:100EF00003D002F58062904203D123F070034A6868
:100F00001343174A904212D002F5006290420ED06D
:100F1000B0F1804F0BD0A2F59832904207D002F585
:100F20008062904203D002F58062904203D123F4A4
:100F30004073CA68134323F080034A691343036074
:100F40008B68C3620B688362054B984203D003F53C
:100F50000063984201D10B69036301234361704729
:100F6000002C0140A8B110B5044690F83D305BB1AB
:100F7000022384F83D30211D2068FFF7A7FF0123DD
:100F800084F83D30002010BD80F83C30FFF77DFF35
:100F9000EEE701207047000030B4036A23F010032D
:100FA0000362036A4468826922F4E6420D6842EAF9
:100FB000052223F020038D6843EA0513114DA84252
:100FC00003D005F50065A84206D123F08003CD6863
:100FD00043EA051323F040030A4DA84203D005F568
:100FE0000065A84207D124F440644D6944EA8504B1
:100FF0008D6944EA8504446082614A6882630362C1
:1010000030BC7047002C014038B590F83C30012BC3
:1010100066D00D460446012380F83C30022380F858
:101020003D300C2A1AD8DFE802F0071919192019E7
:1010300019193419191947000068FFF725FE2268AD
:10104000936943F0080393612268936923F00403D2
:1010500093612268936929690B439361012384F8A2
:101060003D30002084F83C0038BD0068FFF794FF55
:101070002268936943F4006393612268936923F4BF
:101080008063936122689369296943EA012393612C
:10109000E4E70068FFF72CFE2268D36943F00803F9
:1010A000D3612268D36923F00403D3612268D36932
:1010B00029690B43D361D1E70068FFF751FE22682D
:1010C000D36943F40063D3612268D36923F4806356
:1010D000D3612268D369296943EA0123D361BDE75B
:1010E0000220C1E710B4012303FA01F4036A23EAE2
:1010F00004030362036A8A40134303625DF8044BEE
:101100007047000010B5044601220068FFF7EAFFAF
:101110002368094A934203D002F50062934203D147
:101120005A6C42F400425A642268136843F0010387
:101130001360002010BD00BF002C014010B4042338
:1011400003FA01F4036A23EA04030362036A8A4090
:10115000134303625DF8044B704710B50446042244
:101160000068FFF7EBFF2268536C43F400435364BD
:101170002268136843F001031360002010BD90F84B
:101180003C30012B25D0012380F83C30CB6823F480
:1011900040738A68134323F480634A68134323F43B
:1011A00000630A68134323F480530A69134323F44A
:1011B00000534A69134323F480438A69134323F499
:1011C0000043134302685364002380F83C30184600
:1011D00070470220704790F83C30012B22D030B489
:1011E000012280F83C20022380F83D3004686368C7
:1011F00023F070036360046863680D682B436360C9
:101200000468A36823F08003A3600468A3684968A6
:101210000B43A36080F83D20002380F83C30184643
:1012200030BC704702207047034690F82420012A02
:1012300020D0012280F824200268906810F0010F6D
:1012400007D10D48806810F0010F02D10B4882428F
:1012500008D09A6A42F020029A620120002283F8A4
:1012600024207047506820F47020096801435160C1
:101270000020F3E7022070470028014000240140CD
:10128000074AD36823F4E0631B041B0C000200F43C
:10129000E060184340F0BF6040F40030D060704719
:1012A00000ED00E030B4174BDB68C3F30223C3F159
:1012B0000704042C28BF04241D1D062D18D9033B48
:1012C0004FF0FF3505FA04F421EA0401994005FACC
:1012D00003F322EA0303194300280BDB0901C9B217
:1012E00000F1604000F5614080F8001330BC7047A9
:1012F0000023E5E700F00F000901C9B2024B1954C1
:10130000F4E700BF00ED00E014ED00E000F01F0284
:10131000400901239340024A42F82030704700BF41
:1013200000E100E00138B0F1807F0AD2064B58603E
:10133000064AF02182F823100020986007221A60E4
:1013400070470120704700BF10E000E000ED00E0B2
:10135000042805D0054A136823F00403136070477E
:10136000024A136843F004031360704710E000E082
:10137000704708B5FFF7FCFF08BD0000F0B482B06D
:1013800000263546ABE0002C63D0012C00D1CE689E
:10139000FF2B72D88446FF2B72D8AC00DCF80020FB
:1013A0000F27A74022EA070206FA04F42243CCF8EA
:1013B00000204A6812F0805F00F09080654A9469CE
:1013C00044F001049461926902F001020192019AD1
:1013D000AC08A71C604A52F827C005F0030297002A
:1013E0000F22BA402CEA020C5C4A90424ED002F521
:1013F0008062904200F08B8002F58062904200F0A3
:10140000888002F58062904200F0858002F580625B
:10141000904200F0828002F58062904234D0062231
:1014200035E04F4FBC4214D00BD94E4FBC4210D0C8
:1014300007F58037BC420CD0A7F58017BC42A7D176
:1014400007E0A7F58017BC4203D007F58037BC4200
:101450009ED18C687CB1012C08D04261082697E7A8
:10146000CE68083694E7CE680C3691E7026108260C
:101470008EE700268CE704268AE700F1040C8AE751
:10148000A5F10804A40089E7052200E00022BA4083
:1014900042EA0C020234304F47F824204A6812F422
:1014A000803F3CD0304C22681A4322604A6812F4D4
:1014B000003F3AD02C4C62681A4362604A6812F4CA
:1014C000801F38D0284CA2681A43A2604A6812F4E0
:1014D000001F36D0244CE2681343E36001350F2D22
:1014E00035D80122AA400B6813409A42F6D14C68C5
:1014F000122CB8D095D8022CB2D07FF644AF032C72
:10150000B7D0112C7FF444AFCE68043640E70122F7
:10151000BDE70222BBE70322B9E70422B7E7124C7A
:10152000226822EA03022260C0E70F4C626822EAC6
:1015300003026260C2E70C4CA26822EA0302A260C6
:10154000C4E7094CE26822EA0303E360C6E702B09D
:10155000F0BC70470010024000000140000801404C
:10156000000021100000311000040140836819427E
:1015700001D1002070470120704712B909040161B0
:10158000704701617047C3685940C1607047704738
:1015900010B50446074B1868074BA3FB00308009C1
:1015A000FFF7C0FE002221464FF0FF30FFF77AFE22
:1015B000002010BD00000020D34D621008B5074A7E
:1015C000136843F0100313600320FFF759FE002057
:1015D000FFF7DEFFFFF7DBFF002008BD0020024021
:1015E000024A136801331360704700BFB80000203F
:1015F000014B1868704700BFB800002030B583B0B9
:101600000190FFF7F5FF0546019CB4F1FF3F00D0C4
:101610000134FFF7EDFF401BA042FAD303B030BD09
:101620007047000030B482B00023019390F824305A
:10163000012B00F08B800246012380F824304B6898
:10164000062B29D80568686B03EB8303053B1F2431
:101650009C4020EA04000C6804FA03F303436B6324
:101660000B68092B38D91568E86803EB43031E3B68
:1016700007249C4020EA04008C6804FA03F3034327
:10168000EB600B68103B012B34D90020002382F85B
:10169000243002B030BC70470C2B0ED80568286B84
:1016A00003EB8303233B1F249C4020EA04000C68C7
:1016B00004FA03F303432B63D2E70568E86A03EBFC
:1016C0008303413B1F249C4020EA04000C6804FA79
:1016D00003F30343EB62C3E71568286903EB430395
:1016E00007249C4020EA04008C6804FA03F30343B7
:1016F0002B61C6E713681648834205D0936A43F00E
:10170000200393620120C1E7986810F4000F1BD1F9
:10171000986840F4000098600B68102B01D00020FE
:10172000B4E70C4B1B680C49A1FB03139B0C03EBA8
:1017300083035900019102E0019B013B0193019B4E
:10174000002BF9D10020A1E700209FE70220A0E7AD
:10175000002401400000002083DE1B4330B583B02D
:101760000023019303689A6812F0010F2ED19A6842
:1017700042F001029A60174B1B68174AA2FB032331
:101780009B0C019302E0019B013B0193019B002B09
:10179000F9D10446FFF72CFF054623689B6813F038
:1017A000010F11D1FFF724FF401B0228F5D9A36ACE
:1017B00043F01003A362E36A43F00103E3620023F2
:1017C00084F82430012002E0002000E0002003B073
:1017D00030BD00BF0000002083DE1B4390F82430A2
:1017E000012B6AD010B50446012380F82430FFF79E
:1017F000B5FF024600285BD1A36A23F4407323F0AF
:10180000010343F48073A36223682D498B4227D0E0
:10181000A16A21F48011A162596811F4806F05D08A
:10182000A16A21F4405141F48051A162A16A11F4EE
:10183000805F2BD0E16A21F00601E162002184F88B
:1018400024106FF0020119602368996801F4602187
:10185000B1F5602F1DD0996841F4801199602AE09C
:10186000A1F58061496811F4702FD1D0A16A41F4CB
:101870008011A1621349496811F4806FD6D0A16A22
:1018800021F4405141F48051A162CFE70021E1628F
:10189000D4E70B498B4204D0996841F4A0019960C8
:1018A00009E0A1F58061496811F4702FD3D1F3E705
:1018B000002384F82430104610BD022210467047E1
:1018C000002801400024014038B503689A6812F0EE
:1018D000010F01D1002038BD04469A6822F00102B0
:1018E0009A60FFF785FE054623689B6813F0010F99
:1018F0000ED0FFF77DFE401B0228F5D9A36A43F006
:101900001003A362E36A43F00103E3620120E2E70C
:101910000020E0E7002800F08A8070B50446836A62
:10192000002B36D02046FFF7CFFFA36A13F0100339
:1019300077D1002875D1A26A22F4885222F00202DF
:1019400042F00202A262626825683A498D4226D0BE
:10195000E1690A43E66842EA4602A168B1F5807F80
:1019600027D0012922D06169012925D0696821F495
:1019700069410B436B6021688D682F4B2B401343EB
:101980008B60A368B3F5807F27D0012B25D0002181
:1019900026E0C36280F82430FFF742FEC2E7E16927
:1019A000B1F5402FD5D14FF40021D2E74FF4807329
:1019B000D9E74FF48073D6E736B9A169013943EA14
:1019C000413343F40063D1E7A16A41F02001A162F1
:1019D000E16A41F00101E162C8E72369013B1905B1
:1019E0002568EB6A23F470030B43EB622368996864
:1019F000124B0B409A420BD0A36A23F0120343F020
:101A00001003A362E36A43F00103E36201200DE0E7
:101A10000023E362A36A23F0030343F00103A362FC
:101A200004E0A36A43F01003A362012070BD01200B
:101A3000704700BF003C0140FDF7E1FFFE0E1FFFB5
:101A400038B5C36B1A6804682568016C04238B40A1
:101A5000134200F09B8015F0040F00F0978023687C
:101A600013F0200F03D1236823F0040323600368DD
:101A7000AA4A934246D9783A934224D014329342E8
:101A800028D01432934227D01432934227D01432F4
:101A9000934227D01432934227D01432934227D056
:101AA00002F56272934226D01432934225D014324A
:101AB000934224D01432934202D04FF4802203E0A8
:101AC0004FF4804200E00422954B5A60C36A03B190
:101AD000984738BD4022F7E74FF48062F4E74FF4AF
:101AE0008042F1E74FF48022EEE74FF48002EBE70B
:101AF0004FF08062E8E70422E6E74022E4E74FF493
:101B00008062E1E7874A934224D01432934225D081
:101B10001432934224D01432934224D0143293428C
:101B200024D01432934224D01432934224D002F5AC
:101B30006272934223D01432934222D014329342E1
:101B400021D01432934202D04FF4802203E04FF4AC
:101B5000804200E00422744B5A60B7E74022FAE763
:101B60004FF48062F7E74FF48042F4E74FF48022AD
:101B7000F1E74FF48002EEE74FF08062EBE70422DA
:101B8000E9E74022E7E74FF48062E4E702238B4075
:101B9000134200F0A38015F0020F00F09F8023682D
:101BA00013F0200F06D1236823F00A0323600123DA
:101BB00080F821300368594A93424BD9783A9342CE
:101BC00024D0143293422DD0143293422CD01432AC
:101BD00093422CD0143293422CD0143293422CD006
:101BE000143293422CD002F5627293422BD01432FD
:101BF00093422AD01432934229D01432934202D015
:101C00004FF4003203E04FF4005200E00222444B54
:101C10005A60002380F82030836A002B3FF459AFCC
:101C2000984756E72022F2E74FF40072EFE74FF4AF
:101C30000052ECE74FF40032E9E74FF40012E6E718
:101C40004FF00072E3E70222E1E72022DFE74FF4E2
:101C50000072DCE7334A934224D01432934225D0F9
:101C60001432934224D01432934224D0143293423B
:101C700024D01432934224D01432934224D002F55B
:101C80006272934223D01432934222D01432934290
:101C900021D01432934202D04FF4003203E04FF4CB
:101CA000005200E00222204B5A60B2E72022FAE7FD
:101CB0004FF40072F7E74FF40052F4E74FF40032AC
:101CC000F1E74FF40012EEE74FF00072EBE702226B
:101CD000E9E72022E7E74FF40072E4E7082303FA7C
:101CE00001F111423FF4F5AE15F0080F3FF4F1AEEB
:101CF000236823F00E032360026CC16B012303FAF7
:101D000002F24A60836380F82130002380F820309B
:101D1000036B002B3FF4DDAE9847DAE6800002400B
:101D200000040240080002400000024082B000238C
:101D3000019300932C4A136843F0010313602A4B6C
:101D40001B6803F002030093019B01330193009B86
:101D500023B9019A4FF6FF739A42F0D1224B1B68C8
:101D600013F0020F06D001230093009B012B04D037
:101D700002B0704700230093F7E71B4B5A685A6084
:101D80005A6822F460525A605A685A605A6822F4BB
:101D9000E0625A605A6842F480625A605A6822F0DF
:101DA000604222F47C125A605A6842F0005242F4B7
:101DB00080225A601A6842F080721A600A4B1B68CF
:101DC00013F0007FFAD0084B5A6822F003025A60E1
:101DD0005A6842F002025A60034B5B6803F00C033E
:101DE000082BF9D1C4E700BF0010024008B5FFF787
:101DF0009DFF08BD10B5164CD4F8883043F470032D
:101E0000C4F88830134B1A6842F001021A6059680E
:101E1000114A0A405A601A6822F0847222F4803211
:101E20001A601A6822F480221A605A6822F0684206
:101E300022F47F025A60196B084A0A401A634FF471
:101E40001F029A60FFF7D2FF4FF00063A36010BD3E
:101E500000ED00E0001002400C00FFE800FFFEFE75
:101E60002DE9F04F89B07B4B9A6942F004029A61E8
:101E70009A6902F004020192019A9A6942F00802FA
:101E80009A619A6902F008020292029A9A6942F0F3
:101E900010029A619B6903F010030393039B0023D4
:101EA00005930693022707974FF0200A0DEB0A04CB
:101EB00044F810AD21466848FFF760FA40230493C8
:101EC00021466548FFF75AFA802504952146624865
:101ED000FFF754FA4FF48063049321465F48FFF7FD
:101EE0004DFA4FF40063049321465C48FFF746FA2D
:101EF0004FF48056049621465848FFF73FFA04965F
:101F000021465748FFF73AFA049721465448FFF70D
:101F100035FA4FF00108CDF814804FF00409CDF8E0
:101F2000109021464C48FFF729FA102604962146C6
:101F30004B48FFF723FACDF810A021464848FFF799
:101F40001DFA03230593CDF8108021464348FFF77F
:101F500015FACDF8108021464148FFF70FFA4FF0EF
:101F6000080BCDF810B021463C48FFF707FA04975C
:101F700021463A48FFF702FA049621463748FFF710
:101F8000FDF9CDF810A021463448FFF7F7F9CDF858
:101F9000109021463148FFF7F1F9CDF810B02146F5
:101FA0002F48FFF7EBF9CDF8109021462C48FFF7AA
:101FB000E5F905974023049321462848FFF7DEF909
:101FC000049521462548FFF7D9F94FF48079CDF8DB
:101FD000109021462148FFF7D1F904952146204869
:101FE000FFF7CCF9CDF8108021461B48FFF7C6F962
:101FF000049721461848FFF7C1F9CDF81090214603
:102000001748FFF7BBF94FF40073049321461448B7
:10201000FFF7B4F94FF48063049321461048FFF7AB
:10202000ADF94FF40053049321460B48FFF7A6F98E
:102030004FF48043049321460748FFF79FF94FF47C
:102040000043049321460448FFF798F909B0BDE81E
:10205000F08F00BF00100240000C01400010014052
:10206000000801402DE9F04F99B0794B9A6942F48C
:1020700000629A619A6902F400620192019A9A6977
:1020800042F400529A619B6903F400530293029B4D
:10209000704E714F3760002474604FF02008C6F80E
:1020A0000880DFF8BCB1DBF80030DFF8B8A1AAFB8C
:1020B0000323DB0AF36034617461B4613046FEF7D8
:1020C00051FF10231693179416A93046FFF783F893
:1020D00060230F9310941194082312931394149473
:1020E0004FF40073159322460FA93046FEF78CFF7C
:1020F00004220FA93046FEF787FF08220FA93046B9
:10210000FEF782FF4FF4006308934FF48063099356
:102110000A94CDF82C800C940D940E940DEB0801CC
:102120003046FFF72CF84D4DDFF83C91C5F8009094
:102130006C60C5F80880DBF80030AAFB033A4FEA70
:10214000DA23EB602C616C61AC612846FEF70AFF74
:10215000CDF858808023179316A92846FFF73BF83F
:10216000049418A9052341F8543D2846FEF78EFE35
:1021700060230F93109411940823129313941494D2
:102180004FF40073159322460FA92846FEF73CFF33
:1021900004220FA92846FEF737FF08220FA9284678
:1021A000FEF732FF4FF4006308934FF48063099306
:1021B0000A94CDF82C800C940D940E940DEB08012C
:1021C0002846FEF7DCFFD9F8443023F40043C9F871
:1021D00044307B6C23F400437B6421462846FEF7A1
:1021E00091FF04212846FEF78DFF08212846FEF7BF
:1021F00089FF21462846FEF7B0FF04212846FEF756
:10220000ACFF08212846FEF7A8FF21463046FEF71E
:1022100079FF04213046FEF775FF08213046FEF7AE
:1022200071FF21463046FEF798FF04213046FEF745
:1022300094FF08213046FEF790FF2B6801221A63B5
:102240003268136843F00103136019B0BDE8F08FE2
:102250000010024084010020002C014014030020E3
:1022600000000020D34D6210003401402DE9F04100
:1022700086B0424EB36943F40073B361B36903F4AB
:1022800000730093009B3E4C3E4B23604FF48073E1
:10229000A3600025E56065614FF44023E36165605C
:1022A0004FF00508C4F810802046FFF733FB364A8C
:1022B000536843F48023536006A94FF4C02341F8C8
:1022C000043D2046FEF7B0FF012304930E22029244
:1022D000039302A92046FFF7A5F902950227039769
:1022E00002A92046FFF79EF904970B2702970323C4
:1022F000039302A92046FFF795F90C2302930423C8
:10230000039302A92046FFF78DF9072304931023B6
:102310000293CDF80C8002A92046FFF783F92268CA
:10232000936843F4000343F480739360936843F02D
:1023300001039360736943F001037361736903F0F0
:1023400001030193019B114B1D60C3F80480104AE7
:102350009A60104ADA6040F6A2221A601A6842F0C7
:1023600001021A602A4629463846FEF79BFF384686
:10237000FEF7CCFF06B0BDE8F08100BF00100240C0
:102380004C020020002401400000014008000240EF
:102390004C240140C0020020F0B585B0284B9A695A
:1023A00042F480629A619B6903F480630093009B0E
:1023B000244C254B23604FF48073A3600023E3601B
:1023C00063614FF46022E261636005262661204666
:1023D000FFF7A0FA012303930F220192029301A9B0
:1023E0002046FFF71FF90D2301930225029501A94D
:1023F0002046FFF717F903950A2301930327029755
:1024000001A92046FFF70EF90195042302930DEB75
:1024100003012046FFF706F907230393019702966D
:1024200001A92046FFF7FEF823689A6842F48072FB
:102430009A609A6842F001029A6005B0F0BD00BF50
:102440000010024000010020002801400B4B1B88B7
:10245000132B12D810B50024094B1C7005E0094B52
:102460001C706420FFF7CAF80134072CF7DD002246
:1024700020210548FFF781F8FEE770478C00002017
:1024800099000020980000200008014008B5FEF7E0
:10249000F5FB084BA3FB00308009FEF743FF042047
:1024A000FEF756FF002211464FF0FF30FEF7FAFE0E
:1024B00008BD00BFD34D621010B582B0FFF77EF8A3
:1024C0003E4CA36943F00103A361A36903F0010338
:1024D0000193019B0320FEF7D3FE002211466FF00B
:1024E0000B00FEF7DFFE002211466FF00A00FEF738
:1024F000D9FE002211466FF00900FEF7D3FE00223C
:1025000011466FF00400FEF7CDFE002211466FF079
:102510000300FEF7C7FE002211466FF00100FEF730
:10252000C1FE002211464FF0FF30FEF7BBFEFFF761
:10253000ADFF636923F001036361FFF791FCFFF7CF
:1025400091FDFFF793FEFFF727FF012220211C4892
:10255000FFF713F81B48FFF741F91B48FFF73EF957
:1025600000F01CFD082405E0184B1C706420FFF7E8
:1025700045F8013C002CF7DA144B00221A700122B6
:1025800004211348FEF7F9FF124B6FF03B021A606B
:10259000114B3C221A600520FFF730F80221084851
:1025A000FEF7E4FF0028F6D002210548FEF7DEFF23
:1025B0000028F9D1FFF74AFFEDE700BF0010024005
:1025C000000801404C02002000010020980000207B
:1025D000000C0140B4000020B000002010B52A4BD0
:1025E00002225A60294B1A68294BA3FB02139B094C
:1025F0004FF47A7101FB1323CBB92649D1ED007A50
:102600009FED257A27EE877A244B9B899BB207EEB4
:10261000903AF8EE677ADFED226A67EEA67ADFED90
:10262000216A67EEA67A77EE277AC1ED007A013249
:10263000164B1A601C4B1C78ACB11C4BA3FB02134D
:102640001B0B1B4909780131B3FBF1F001FB10337F
:102650004BB9B2FBF4F304FB13224AB9102115481D
:10266000FEF791FF04E0002210211248FEF785FFDB
:10267000114B1B7803B110BD0F4C0123237000F0E8
:10268000BDFC00232370F6E7000002409C00002000
:10269000D34D621004000020A4707D3FC0020020D2
:1026A000B29CD13C0AD7233C980000205917B7D1DF
:1026B00099000020000801408E0000207047FEE7CE
:1026C000FEE7FEE7FEE770477047704708B5FEF784
:1026D00087FFFEF74EFE08BD08B51B4B5B6913F480
:1026E000007303D04FF40073174A5361164A5269BE
:1026F00012F4807F05D0144A4FF48071516143F485
:102700000073114A526912F0800F03D00E4A8021E3
:1027100051610B430C4A526912F0400F03D00A4A30
:10272000402151610B43084A526912F0200F03D037
:10273000054A202151610B4313F4E75F00D108BD26
:1027400000F0A4FAFBE700BF000401401B4B5B69EB
:1027500013F4004F03D0194B4FF400425A61174B4A
:102760005B6913F4804F03D0144B4FF480425A61DD
:10277000124B5B6913F4005F03D0104B4FF400520F
:102780005A610E4B5B6913F4805F03D00B4B4FF41F
:1027900080525A61094B5B6913F4006F03D0074BF9
:1027A0004FF400625A61054B5B6913F4806F03D0EC
:1027B000024B4FF480625A61704700BF0004014031
:1027C00008B50248FFF73CF908BD00BFBC00002077
:1027D00008B50248FFF734F908BD00BF7C020020AD
:1027E00010B588420CDD401AB0FBF2F49C420CD3C9
:1027F000DCB2013CE4B24FF00043029A136002E005
:102800000024029B1C60204610BDE4B202FB1401B0
:102810000023C8074908FEF7B1F8029B1860F2E7E9
:10282000D0B4431C32F9133032F910401A1BD717B9
:10283000A1FB022301FB0733D00F40EA4300A4B2FF
:1028400014FA80F000B2D0BC7047CB0FB3EBD07F4E
:1028500008D090FBF1F301FB13032BB990FBF1F0CF
:10286000184470470023F9E74FF0FF33F6E7000004
:102870002DE9F04F87B00668C4684768D0F8089023
:1028800039788B00DBB278784200D2B21344DBB2E5
:10289000BA7813445FFA83FBD7F804A0BAF1000FAB
:1028A0001BDB257F637F41404A406A405A40A37F3B
:1028B0009A422ED094F919302376B74B5B4493F9A2
:1028C0000A22D3B2A17E5B1A5BB2012B08D013F1AE
:1028D000050F05D0FF23637604E0CAF1000AE0E7A4
:1028E00001236376A276B4F91430E3819AB2E18AC7
:1028F000521A2282E3824FF00108B6F95E30434556
:102900001BDB94F9193094F9182093420DD0002361
:1029100014E0B4F91230B6F95E80434500DA984607
:1029200008F101080FFA88F8E7E7356803FB05F3BB
:10293000B4F90E5093FBF5F300E000237168C1F188
:102940006405626803FB01F302FB0535934B83FBCF
:102950000523ED17D5EB63157CD42A46F368934223
:102960007ADC0123E377B4F91030002B7ADBB6F977
:102970005A1099427ADC012384F8203094F91B1014
:1029800096F86030002B79D14FF0FF33E3768B421D
:1029900003D011B92160C9F810105BBB94F919106C
:1029A00001296DD03B789B00DBB278784000C0B243
:1029B0000344DBB2B8780344774850FA83F393F8C2
:1029C0000A02013040B2C8EB081C4FEA8C03B4F98C
:1029D0000EC093FBFCF3C0EB00104FEA800C01FB30
:1029E00003C1C9F8101096F8613013B133699342EE
:1029F0004BDB216096F86030022B00F08A80032BBD
:102A000000F0A880012B63D094F91930002BC0F29C
:102A1000CD80002BD4BF002201227B68002BC0F2A6
:102A2000C880002BD4BF0020012096F8601029B187
:102A30007169514502DA824200F0BE80564A5A441A
:102A400092F90A02052800F3CD80002880F2CB809D
:102A50000020C8E06A4281E7B368934283DB002329
:102A6000E37780E79BB25B421BB280E7B6F95C106C
:102A7000994283DB002384F820307FE7002385E739
:102A8000454B5B4493F90A029DE7B169F26905ABD6
:102A900000930A23521A5046FFF7A2FE06F14402A1
:102AA0000599FFF7BDFE94F919309BB210FB03F0B6
:102AB000D9F8103003FA80F34FF4B471029318463A
:102AC000FFF7C3FE364B029A03FB0020206091E71C
:102AD000206805AB009306233C220021FFF780FE0F
:102AE0000390059B2C4A02931946FFF799FE20811B
:102AF000294B03F10E0202990398FFF791FE6081C2
:102B0000254B03F11C0202990398FFF789FEA0816F
:102B10007AE7206805AB009324230A220021FFF7FF
:102B20005FFE0390059B1F4A02931946FFF778FE4C
:102B300020811C4B03F14A0202990398FFF770FEB3
:102B40006081184B03F1940202990398FFF768FE25
:102B5000A08159E7206805AB009324230A220021B5
:102B6000FFF73EFE0390059B0F4A02931946FFF7BD
:102B700057FE20810C4B03F14A0202990398FFF79C
:102B80004FFE6081084B03F1940202990398FFF70E
:102B900047FEA08138E700BFBC3100081F85EB511C
:102BA00098FEFFFFE6310008C43200084FF0FF3204
:102BB00033E74FF0FF3038E7E27F002A3FF43EAFC3
:102BC00094F82020002A7FF439AFB4F9081001FBF3
:102BD00003F1B4F90A2002FB03F2B4F90C0000FB84
:102BE00003F31AE0052000EB40001F4E00F1F00255
:102BF00006EB4202B2F9061001FB03F100F1F1020B
:102C000006EB4202B2F9062002FB03F2F23006EBB9
:102C10004000B0F9060000FB03F3144880FB01C636
:102C2000C917C1EBA611C9F8001080FB0261D217C9
:102C3000C2EBA112C9F804203A7822777A78627739
:102C4000BA78A277A4F81280A4F81480656080FB9B
:102C50000312DB17C3EBA213C9F80830C9F80C50F4
:102C600007B0BDE8F08F00BFBC310008D34D621043
:102C70000268C368FF21D976B2F95E105982B2F9B1
:102C80005E10D982B2F95E20DA8170472DE9F047F3
:102C900072B68E4B1B68D3F824A08D4BD3E9006726
:102CA0008C4A936803F0E003DB43C3F342138A4981
:102CB000CB709268894B9B6892B212F0200F0CBFC8
:102CC000012000208649087012F0400F0CBF01203F
:102CD00000208449087012F0800F0CBF01210021F0
:102CE000814A11709BB213F4806F0CBF0121002147
:102CF0007E4A117013F4006F0CBF012100217C4A41
:102D0000117013F4805F0CBF01220022794B1A70FE
:102D100062B6002419E0E20022449100764B0B4495
:102D20001A6A01321A62C4EBC403C3EBC3026A4BD2
:102D30001344DA78D2B21A71D3F80500D3F8091027
:102D4000C3F80D00C3F811100134012C00F3BB804F
:102D5000C4EBC403C3EBC3025F4B13441A79D2B272
:102D6000DB78DBB29A42EFD0C4EBC403C3EBC303FE
:102D7000594A13441B79002BD5D0604B53F82410CB
:102D80005F4A42F82410002143F82410E5002B1B71
:102D9000C3EBC303504A134493F82100052083F882
:102DA000210093F8220083F8221093F8230083F87F
:102DB000231093F8240083F824104FEA074949EAC6
:102DC00016494FEA064848EA0A00C3F80500C3F866
:102DD0000990D3F80580D3F80990D3F80D00D3F803
:102DE0001110B8EB0008197993F803C0C1EBC101C9
:102DF0006144DFF818C15CF82110D3F8252002FBEC
:102E000001F2C3F81D203C492544AA008D1851F851
:102E100002C0D3F81DE01833F44441F802C08A58C8
:102E200007EE902AF8EEE77AFDEEE77A95ED027A62
:102E3000F8EEE77A67EE877AFDEEE77AC5ED047A79
:102E4000C5F81C80D3F80530002B3FF464AF4FEA7F
:102E5000C40808EB040293000D461D44E86907EE20
:102E6000900AF8EE677A17EE900AFDF7F5FA024637
:102E70000B4600202349FDF771FCFDF757FDA8EB39
:102E80000408C8EBC808144B9844D8F81D3003FB5D
:102E900000F06860D5ED026AD5ED077AF8EE677A42
:102EA00086EEA77AD8F81D3007EE903AF8EEE77A6A
:102EB00067EE277A9FED147A67EE877AFDEEE77A60
:102EC000C5ED067A2FE7BDE8F08700BF9C0400201F
:102ED000A8000020000C0140EC030020001001407D
:102EE0004F04002059030020580300205004002004
:102EF0004E040020E803002054040020900000202D
:102F0000A000002000400F410050C347D03300080C
:102F10001E4B1B681A6912F0010F35D04DF804BD25
:102F20006FF001021A611A49D1E900BC1BF10102DC
:102F30004CF10003C1E90023002309E0D900194442
:102F40008800144A0244002151609161D16101332B
:102F5000012B16DCC3EBC302C2EBC2010E4A0A44CA
:102F60002032D2F80120002AE8DDC3EBC302C2EB15
:102F7000C201094A0A44D2F821100139C2F82110CD
:102F8000E5E75DF804BB7047704700BF9C04002074
:102F9000A800002054040020EC03002010B50E4BC4
:102FA000032283F86020012283F861200B4803602C
:102FB0000B4AC2600B4A42600B4A82600B4C236092
:102FC0000B4BE3600B4B63600B4BA360FFF750FEB2
:102FD0002046FFF74DFE10BD080000206C050020C4
:102FE000F004002054050020140500205C0500209A
:102FF0003005002028050020DC04002010B5514BCE
:103000009A6812F0200F0CBF012000209A6812F07D
:10301000800F0CBF012100219B6813F0400F0CBFF3
:1030200001220022484B187059709A70474A126862
:103030005A604748FFF71CFC464B19685A689B6862
:1030400001F57A7040F2C674A04203DC09280FDD56
:1030500081B201E040F2C6713F48416302F57A71E6
:1030600040F2C670814205DC092911DD8AB203E015
:103070000A21F1E740F2C67237498A6303F57A7292
:1030800040F2C6718A4205DC092A32DD93B203E0C0
:103090000A22F1E740F2C6732F4AD3632F4B9A6896
:1030A00012F4805F0CBF012000209A6812F4806F38
:1030B0000CBF012100219B6813F4006F0CBF01229B
:1030C0000022274B187059709A70264A12685A606D
:1030D0002548FFF7CDFB254B19685A689B6801F519
:1030E0007A7040F2C674A04205DC092811DD81B275
:1030F00003E00A23D0E740F2C6711D48416302F5A0
:103100007A7140F2C670814205DC092911DD8AB26C
:1031100003E00A21F1E740F2C67215498A6303F51C
:103120007A7240F2C6718A4205DC092A08DD93B240
:1031300003E00A22F1E740F2C6730D4AD36310BDE3
:103140000A23FAE7000C014054050020B0000020DB
:103150006C050020140500200034014000100140DF
:1031600028050020B40000205C050020DC040020BD
:10317000002C0140002103E00A4B5B58435004310E
:1031800009480A4B42189A42F6D3094A02E0002342
:1031900042F8043B074B9A42F9D3FEF72BFEFFF7A8
:1031A0008BF97047BC340008000000206C00002040
:1031B000700000207C050020FEE70000E803E80323
:1031C000E80318FC18FC18FCE80318FC18FCE803DA
:1031D000E803E80318FC18FCE80318FC18FC18FCCA
:1031E000E803E803E803F4018302FE026203AC0390
:1031F000D903E803D903AC036203FE028302F4019E
:103200005601AE00000052FFAAFE0CFE7DFD02FD3D
:103210009EFC54FC27FC18FC27FC54FC9EFC02FD81
:103220007DFD0CFEAAFE52FF0000AE005601F40127
:1032300018FC27FC54FC9EFC02FD7DFD0CFEAAFE42
:1032400052FF0000AE005601F4018302FE02620349
:10325000AC03D903E803D903AC036203FE02830283
:10326000F4015601AE00000052FFAAFE0CFE7DFDE7
:1032700002FD9EFC54FC27FC18FCF4015601AE0034
:10328000000052FFAAFE0CFE7DFD02FD9EFC54FCD8
:1032900027FC18FC27FC54FC9EFC02FD7DFD0CFE67
:1032A000AAFE52FF0000AE005601F4018302FE02A6
:1032B0006203AC03D903E803D903AC036203FE0243
:1032C0008302F4012D03B103E803E403C2039E0368
:1032D00090039E03C203E403E803B1032D035702E6
:1032E0003F010000C1FEA9FDD3FC4FFC18FC1CFCF3
:1032F0003EFC62FC70FC62FC3EFC1CFC18FC4FFCBB
:10330000D3FCA9FDC1FE00003F0157022D0370FC54
:1033100062FC3EFC1CFC18FC4FFCD3FCA9FDC1FE6A
:1033200000003F0157022D03B103E803E403C20389
:103330009E0390039E03C203E403E803B1032D033D
:1033400057023F010000C1FEA9FDD3FC4FFC18FC51
:103350001CFC3EFC62FC70FC2D0357023F01000088
:10336000C1FEA9FDD3FC4FFC18FC1CFC3EFC62FC1A
:1033700070FC62FC3EFC1CFC18FC4FFCD3FCA9FD5D
:10338000C1FE00003F0157022D03B103E803E4032F
:10339000C2039E0390039E03C203E403E803B10348
:1033A0002D03E80318FC0000E803000018FC0000EF
:1033B000E80318FC18FCE803000018FC0000E80310
:1033C000000018FCE80300050304010002000000EF
:1033D00000000000000000000000000000000000ED
:1033E00000000000000000000000000000000000DD
:1033F0000000000000000000FFFFFFFF00000000D1
:1034000001000000000000000000000000000000BB
:1034100000000000010000000000000000000000AB
:10342000FFFFFFFF0000000001000000FFFFFFFFA3
:10343000000000000000000000000000000000008C
:10344000000000000000000000000000000000007C
:1034500000000000FFFFFFFF01000000000000006F
:10346000FFFFFFFF0000000000000000010000005F
:10347000000000000000000000000000000000004C
:103480000100000000000000FFFFFFFF000000003F
:1034900000000000F8B500BFF8BC08BC9E467047AD
:0C34A000F8B500BFF8BC08BC9E467047A1
:0834AC0000D5FF7F01000000C4
:0434B4007501000896
:0434B80051010008B6
:1034BC0000A24A0400002042AB2900000A000000D0
:1034CC000F0000001E0000009001000046000000EC
:1034DC000000000064000000C80000002C01000087
:1034EC0090010000F401000058020000BC02000032
:1034FC002003000084030000E8030000000000002B
:10350C00000000000000020003000500090010008C
:0C351C00190032001400DC05030100005F
:040000050800317549
:00000001FF
