:020000040800F2
:1000000000C00020117000088D4000088F400008DB
:10001000914000089340000895400008000000004F
:1000200000000000000000000000000097400008F1
:1000300099400008000000009B4000089D40000817
:10004000557000085570000855700008557000087C
:10005000557000085570000855700008557000086C
:10006000557000085570000855700008AD3F000835
:10007000557000085570000855700008557000084C
:100080007941000889410008557000085570000842
:10009000557000085570000855700008A940000808
:1000A000557000085570000855700008557000081C
:1000B000557000085570000855700008557000080C
:1000C00055700008557000085570000855700008FC
:1000D0005570000855700008D53D0008557000089F
:1000E000054100085570000855700008557000085B
:1000F00055700008557000085570000855700008CC
:1001000055700008557000085570000855700008BB
:1001100055700008557000085570000855700008AB
:10012000557000085570000855700008557000089B
:10013000557000085570000855700008557000088B
:10014000557000085570000855700008557000087B
:1001500010B5054C237833B9044B13B10448AFF301
:1001600000800123237010BDD80000200000000093
:10017000E487000808B5034B1BB103490348AFF3FC
:10018000008008BD00000000DC000020E4870008BB
:10019000034613F8012B002AFBD1181A01387047C7
:1001A00001F0FF01102A2BDB10F0070F08D010F828
:1001B000013B013A8B422DD010F0070F42B3F6D12C
:1001C000F0B441EA012141EA014122F007047FF045
:1001D00000070023F0E80256083C85EA010586EA9C
:1001E000010685FA47F5A3FA87F586FA47F6A5FAD8
:1001F00087F68EB9EED1F0BC01F0FF0102F00702E4
:1002000032B110F8013B013A83EA010313B1F8D18E
:100210000020704701387047002D06BF354603386F
:10022000073815F0010F07D1013015F4807F02BFA8
:10023000013015F4C03F0130F0BC0138704700BFF9
:1002400081F0004102E000BF83F0004330B54FEA87
:1002500041044FEA430594EA050F08BF90EA020FF4
:100260001FBF54EA000C55EA020C7FEA645C7FEA87
:10027000655C00F0E2804FEA5454D4EB5555B8BFAA
:100280006D420CDD2C4480EA020281EA030382EA1B
:10029000000083EA010180EA020281EA0303362DAD
:1002A00088BF30BD11F0004F4FEA01314FF4801C80
:1002B0004CEA113102D0404261EB410113F0004F92
:1002C0004FEA03334CEA133302D0524263EB430349
:1002D00094EA050F00F0A780A4F10104D5F1200EE7
:1002E0000DDB02FA0EFC22FA05F2801841F1000142
:1002F00003FA0EF2801843FA05F359410EE0A5F116
:1003000020050EF1200E012A03FA0EFC28BF4CF046
:10031000020C43FA05F3C01851EBE37101F00045FC
:1003200007D54FF0000EDCF1000C7EEB00006EEB09
:100330000101B1F5801F1BD3B1F5001F0CD3490893
:100340005FEA30004FEA3C0C04F101044FEA4452EA
:1003500012F5800F80F09A80BCF1004F08BF5FEA71
:10036000500C50F1000041EB045141EA050130BD51
:100370005FEA4C0C404141EB010111F4801FA4F1F4
:100380000104E9D191F0000F04BF01460020B1FA49
:1003900081F308BF2033A3F10B03B3F120020CDA81
:1003A0000C3208DD02F1140CC2F10C0201FA0CF05F
:1003B00021FA02F10CE002F11402D8BFC2F1200CC4
:1003C00001FA02F120FA0CFCDCBF41EA0C0190407A
:1003D000E41AA2BF01EB0451294330BD6FEA0404C3
:1003E0001F3C1CDA0C340EDC04F11404C4F12002AE
:1003F00020FA04F001FA02F340EA030021FA04F3C0
:1004000045EA030130BDC4F10C04C4F1200220FA16
:1004100002F001FA04F340EA0300294630BD21FA54
:1004200004F0294630BD94F0000F83F4801306BF1A
:1004300081F480110134013D4EE77FEA645C18BF0E
:100440007FEA655C29D094EA050F08BF90EA020FA5
:1004500005D054EA000C04BF1946104630BD91EA9D
:10046000030F1EBF0021002030BD5FEA545C05D1A0
:100470004000494128BF41F0004130BD14F58004DF
:100480003CBF01F5801130BD01F0004545F0FE4153
:1004900041F470014FF0000030BD7FEA645C1ABF88
:1004A000194610467FEA655C1CBF0B46024650EABF
:1004B000013406BF52EA033591EA030F41F40021EB
:1004C00030BD00BF90F0000F04BF0021704730B571
:1004D0004FF4806404F132044FF000054FF0000146
:1004E00050E700BF90F0000F04BF0021704730B507
:1004F0004FF4806404F1320410F0004548BF4042DC
:100500004FF000013EE700BF42004FEAE2014FEA30
:1005100031014FEA02701FBF12F07F4393F07F4F0B
:1005200081F06051704732F07F4208BF704793F00E
:100530007F4F04BF41F40021704730B54FF4607421
:1005400001F0004521F000411CE700BF50EA010224
:1005500008BF704730B54FF000050AE050EA0102CD
:1005600008BF704730B511F0004502D5404261EB3D
:1005700041014FF4806404F132045FEA915C3FF47E
:10058000D8AE4FF003025FEADC0C18BF03325FEA1B
:10059000DC0C18BF033202EBDC02C2F1200300FACC
:1005A00003FC20FA02F001FA03FE40EA0E0021FAF1
:1005B00002F11444BDE600BF70B54FF0FF0C4CF4DF
:1005C000E06C1CEA11541DBF1CEA135594EA0C0F91
:1005D00095EA0C0F00F0DEF82C4481EA030621EACC
:1005E0004C5123EA4C5350EA013518BF52EA033507
:1005F00041F4801143F4801338D0A0FB02CE4FF0B9
:100600000005E1FB02E506F00042E0FB03E54FF0E8
:100610000006E1FB03569CF0000F18BF4EF0010EE0
:10062000A4F1FF04B6F5007F64F5407404D25FEADC
:100630004E0E6D4146EB060642EAC62141EA55518F
:100640004FEAC52040EA5E504FEACE2EB4F1FD0CD1
:1006500088BFBCF5E06F1ED8BEF1004F08BF5FEA4F
:10066000500E50F1000041EB045170BD06F0004601
:1006700046EA010140EA020081EA0301B4EB5C04AE
:10068000C2BFD4EB0C0541EA045170BD41F48011A6
:100690004FF0000E013C00F3AB8014F1360FDEBFCB
:1006A000002001F0004170BDC4F10004203C35DAA7
:1006B0000C341BDC04F11404C4F1200500FA05F32A
:1006C00020FA04F001FA05F240EA020001F00042CB
:1006D00021F0004110EBD37021FA04F642EB060141
:1006E0005EEA430E08BF20EAD37070BDC4F10C046B
:1006F000C4F1200500FA04F320FA05F001FA04F22F
:1007000040EA020001F0004110EBD37041F100011A
:100710005EEA430E08BF20EAD37070BDC4F1200525
:1007200000FA05F24EEA020E20FA04F301FA05F28D
:1007300043EA020321FA04F001F0004121FA04F235
:1007400020EA020000EBD3705EEA430E08BF20EA05
:10075000D37070BD94F0000F0FD101F0004640003F
:1007600041EB010111F4801F08BF013CF7D041EAC1
:10077000060195F0000F18BF704703F000465200C5
:1007800043EB030313F4801F08BF013DF7D043EA96
:100790000603704794EA0C0F0CEA135518BF95EA4C
:1007A0000C0F0CD050EA410618BF52EA4306D1D1D3
:1007B00081EA030101F000414FF0000070BD50EAF2
:1007C000410606BF1046194652EA430619D094EA7C
:1007D0000C0F02D150EA013613D195EA0C0F05D166
:1007E00052EA03361CBF104619460AD181EA0301BA
:1007F00001F0004141F0FE4141F470014FF0000072
:1008000070BD41F0FE4141F4780170BD70B54FF00C
:10081000FF0C4CF4E06C1CEA11541DBF1CEA13558C
:1008200094EA0C0F95EA0C0F00F0A7F8A4EB05046E
:1008300081EA030E52EA03354FEA013100F0888065
:100840004FEA03334FF0805545EA131343EA12632E
:100850004FEA022245EA111545EA10654FEA0026E3
:100860000EF000419D4208BF964244F1FD0404F59C
:10087000407402D25B084FEA3202B61A65EB0305F8
:100880005B084FEA32024FF480104FF4002CB6EBB5
:10089000020E75EB030E22BFB61A754640EA0C0035
:1008A0005B084FEA3202B6EB020E75EB030E22BF75
:1008B000B61A754640EA5C005B084FEA3202B6EBB6
:1008C000020E75EB030E22BFB61A754640EA9C0075
:1008D0005B084FEA3202B6EB020E75EB030E22BF45
:1008E000B61A754640EADC0055EA060E18D04FEA03
:1008F000051545EA16754FEA06164FEAC30343EAA3
:1009000052734FEAC2025FEA1C1CC0D111F4801F6F
:100910000BD141EA00014FF000004FF0004CB6E768
:1009200011F4801F04BF01430020B4F1FD0C88BF07
:10093000BCF5E06F3FF6AFAEB5EB030C04BFB6EB12
:10094000020C5FEA500C50F1000041EB045170BD05
:100950000EF0004E4EEA113114EB5C04C2BFD4EB32
:100960000C0541EA045170BD41F480114FF0000EB6
:10097000013C90E645EA060E8DE60CEA135594EA32
:100980000C0F08BF95EA0C0F3FF43BAF94EA0C0F35
:100990000AD150EA01347FF434AF95EA0C0F7FF4AA
:1009A00025AF104619462CE795EA0C0F06D152EAFE
:1009B00003353FF4FDAE1046194622E750EA4106E2
:1009C00018BF52EA43067FF4C5AE50EA41047FF4F3
:1009D0000DAF52EA43057FF4EBAE12E74FEA410256
:1009E000B2F1E04324BFB3F5001CDCF1FE5C0DD98D
:1009F00001F0004C4FEAC0024CEA5070B2F1004FD7
:100A000040EB830008BF20F00100704711F0804FD9
:100A100021D113F13872BCBF01F00040704741F49E
:100A200080114FEA5252C2F11802C2F1200C10FAA2
:100A30000CF320FA02F018BF40F001004FEAC12386
:100A40004FEAD32303FA0CFC40EA0C0023FA02F32A
:100A50004FEA4303CCE77FEA625307D150EA013300
:100A60001EBF4FF0FE4040F44000704701F00040D0
:100A700040F0FE4040F40000704700BF53B94AB94F
:100A8000002908BF00281CBF4FF0FF314FF0FF3096
:100A900001F0F8B8ADF1080C6DE904CE00F006F8ED
:100AA000DDF804E0DDE9022304B070472DE9F047EA
:100AB000089E04468846002B4BD18A42154667D9CA
:100AC000B2FA82F24AB1C2F1200701FA02F320FA27
:100AD00007F7954047EA030894404FEA154E230C68
:100AE000B8FBFEF71FFA85FC0EFB178843EA0843A4
:100AF00007FB0CF1994209D9EB1807F1FF3080F0A0
:100B00001B81994240F21881023F2B445B1AA4B228
:100B1000B3FBFEF00EFB103344EA034400FB0CFC75
:100B2000A44509D92C1900F1FF3380F00781A445B1
:100B300040F2048102382C4440EA0740A4EB0C0444
:100B400000271EB1D4400023C6E900433946BDE862
:100B5000F0878B4209D9002E00F0EB800027C6E910
:100B6000000138463946BDE8F087B3FA83F7002F15
:100B700047D18B4202D3824200F2FA80841A61EBA1
:100B8000030301209846002EE0D0C6E90048DDE7C7
:100B900002B9FFDEB2FA82F2002A40F08F80491BD0
:100BA0004FEA154E1FFA85F80127B1FBFEFC230C16
:100BB0000EFB1C1143EA014308FB0CF1994207D9D3
:100BC000EB180CF1FF3002D2994200F2CD8084463E
:100BD000591AA3B2B1FBFEF00EFB101443EA044411
:100BE00008FB00F8A04507D92C1900F1FF3302D209
:100BF000A04500F2B6801846A4EB080440EA0C4079
:100C00009FE7C7F1200CBB4022FA0CFE4EEA030E10
:100C100001FA07F420FA0CF521FA0CF34FEA1E480A
:100C20002543B3FBF8F92C0C08FB19331FFA8EFA95
:100C300044EA034309FB0AF49C4202FA07F200FA71
:100C400007F10BD91EEB030309F1FF3080F0878019
:100C50009C4240F28480A9F1020973441B1BADB28F
:100C6000B3FBF8F008FB103345EA034400FB0AFA33
:100C7000A24508D91EEB040400F1FF336BD2A24554
:100C800069D90238744440EA0940A0FB0289A4EB08
:100C90000A044C45C2464B4654D351D0002E69D06D
:100CA000B1EB0A0564EB030404FA0CFCFD40FC40C4
:100CB0004CEA0505C6E90054002747E7C2F12003C6
:100CC00020FA03F7954001FA02F021FA03F34FEA04
:100CD000154E3843010CB3FBFEF71FFA85F80EFBE7
:100CE000173341EA034107FB08F38B4204FA02F48D
:100CF00007D9691807F1FF3C2FD28B422DD9023F4B
:100D00002944CB1A81B2B3FBFEF00EFB103341EA4B
:100D1000034100FB08F38B4207D9691800F1FF3C3F
:100D200017D28B4215D902382944C91A40EA07471D
:100D30003BE73746304609E70746E7E61846FBE655
:100D40004145ABD2B8EB020A69EB0E0201381346FB
:100D5000A4E76046E9E7184695E76746D1E781468C
:100D60007CE702382C4447E7ACF1020C2B442FE718
:100D7000384608E73746E9E603685A004CBF43F0B7
:100D8000004323F000431844704700BF61B32DE9CE
:100D9000F84F01F1FF3A90460646D146002707EB8F
:100DA000090404EBD4746410E50071190846FFF7D8
:100DB000E3FFA245834605F10800304409D0FFF760
:100DC000DBFFC34500F1FF3005D8404509D2671C61
:100DD000E5E7C34505D9A74202D004F1FF39DEE7B4
:100DE00000210846BDE8F88F08467047012807D063
:100DF000022807D0044B00280CBF1846002070477B
:100E00000248704702487047D9140008DD140008F2
:100E1000E114000830B5254B83B004468D1E4BB35A
:100E200001A92846AFF30080F0B101992A46FFF7E7
:100E3000ADFF0146C0B1FFF79FFF4B68A064012BD7
:100E40002ED0002B01F1040026DBFFF795FF0023D5
:100E5000C4E913030368002B12DBFFF78DFF0023A7
:100E60002061184603B030BD0023236109231846D2
:100E700003B030BD0E490F48091AC9100191D5E7DA
:100E8000C3F30360FFF7B2FF002814BF0023092358
:100E90002061184603B030BD0123C4E91303D9E72C
:100EA000002323610523184603B030BD0000000075
:100EB00024890008148800080368DA0710B504467E
:100EC00006D49B0700F1480009D500F05FFC2368B9
:100ED000590709D51A070ED5DB0613D510BD00F04A
:100EE0004DFC23685907F5D404F1D00000F056FCFE
:100EF00023681A07F0D404F5A87000F057FC2368A3
:100F0000DB06EBD404F5E870BDE8104000F092BCBD
:100F1000036803B103441846704700BF09207047B7
:100F2000704700BF70B504460D4608E02B6C636146
:100F30002A462369214601209847082808D1296CB0
:100F40002046FFF767FF06460028EFD007F04CF871
:100F50000728FBD13046296CFFF7E2FF281D00F07F
:100F600001FC00BF2DE9F0470C1D054617460FCCCC
:100F7000ADF5727D03AE0FC60FCC0FC60FCC0FC6FA
:100F800094E80F0002ACD5F80C80D5F8189086E8EC
:100F90000F000023236021E0236C6B614FF4F0729B
:100FA00021467AA806F057F82B697AAA29463046D6
:100FB0009847889BCDE900498246636431462B46B9
:100FC0002A460120C0470746F8B94FF4F0727AA9C3
:100FD000204606F040F8BAF1080F1CD1216C2846D3
:100FE000FFF718FF002F08BF0926074618BF0A267B
:100FF0000028D1D0A36B46F01001CDE900492A4664
:10100000636401202B46C04700B1092738460DF51F
:10101000727DBDE8F087BAF1070FF6D13846216C32
:10102000FFF77EFF03A800F09DFB00BF406C7047F8
:10103000F0B5CB6B0B640D1D0F4606460FCDF9B016
:1010400001AC0FC40FCD0FC40FCD0FC495E80F0036
:101050004FF0FF3584E80F00009506E033696A46DB
:10106000314698470828044608D110993046FFF7C2
:10107000D1FE0028F2D0092079B0F0BD6846FFF714
:101080001BFF062CF7D139463046FFF74BFF00BF58
:1010900030B4DD6BC160826119461D64002230BC32
:1010A00060E700BF70B5C66843690B64BEB90369E9
:1010B0000A4604460D46014602209847072807D0F5
:1010C000082803D129462046FFF72CFF06F08CFFA5
:1010D0003046296CFFF724FF281D00F043FB012256
:1010E000FFF740FF06F080FFC2681AB1CA6B0A64BE
:1010F000002237E79CE700BF704700BF836813B149
:101100000146012018477047042907D8DFE801F09D
:101110000308060808000BB90F2A03D902207047FC
:101120000120704700EB820218465368009A136052
:10113000704700BF10B584B0002303AC0A4600948A
:101140001946FFF7E1FF039804B010BD042907D842
:10115000DFE801F00308060808000BB90F2A03D9DD
:10116000022070470120704700EB8200009A12684D
:1011700042601846704700BF10B584B004AC00232D
:1011800044F8042D0A4600941946FFF7DFFF04B027
:1011900010BD00BFF0B5D36B1364151D07460E4696
:1011A0000FCDADF50F7D17AC0FC40FCD0FC40FCD14
:1011B0000FC495E80F004FF0FF3584E80F00169537
:1011C00010E016A8FFF7D8FF314616A8B84716AAB0
:1011D000694678B9049B08209847052804460AD038
:1011E000092807D026996846FFF714FE6A460C21A5
:1011F0000028E6D0092416A8FFF75EFE20460DF56C
:101200000F7DF0BD2DE9F04F0D46C96C89B00C1D66
:10121000164600F0030B0A6806941F46002B68D0A0
:10122000130CD9B212048DF81D30022304EB810493
:1012300005928DF81C302B6DBBF1020F08BFAC6B13
:1012400013F0010346D1019300F008030093D4F892
:101250000090B9F1000F00F0F380022F45D0B4F8F0
:101260000090B4F802800434AB6C28F0010A0F211E
:1012700030469A44FFF75EFF824534D829F00103D7
:101280005344834294BF002001204FEA480808F0ED
:10129000020809F0010948EA0908B8F1010F3AD03B
:1012A00031D3B8F1020F1AD1236823F0004ABBF101
:1012B000000F66D130B1009A002A6CD0BAF1000F4D
:1012C00000F09080002B00DA04340AF1010304EBF3
:1012D0008304BCE7304605A900F046FB78B109203D
:1012E00009B0BDE8F08F0020CFE7D4F804800834BF
:1012F000BAE7120203230592ADF81C309BE70820E1
:1013000009B0BDE8F08FBBF1000F02D0002840F01B
:10131000B48004349BE7BBF1000F18D1A8B1D4E925
:101320000023991C4FEAD272D9D005F1580101333C
:10133000049100F0B580201DFFF7EAFD04AB0146E3
:101340002846AFF30080002867D108347FE70D21DD
:101350003046D5F82080FFF7EDFE8045F5D1AB6A29
:101360009C42F2D12046FFF707FD0F21024630468E
:10137000FFF702FF30462A460021FFF7FDFE072057
:10138000AEE70D213046D5F82080FFF7D3FE80452B
:1013900032D0236896E7BAF1000F23D005F1580345
:1013A00004F10408CDF808B0DDF800900397A346D7
:1013B0001C4602E05745B94640D040460494FFF72A
:1013C000A7FD04AB014600222846AFF3008009F1D7
:1013D000010708F104080028ECD0D1455C46DDE99E
:1013E00002B7D6D130460D21FFF7A4FE049B286238
:1013F000C5E90934062073E7AB6A9C42C9D10422CF
:101400004FF00008A318C5E90AA8C5E90C23236812
:1014100043454DDB0123019357E780460D213046BC
:10142000FFF788FEB8F1020F28623ED12B46049ADE
:1014300043F82C2F6B62AC62062051E75C46D1E783
:1014400005A9304600F090FA00287FF448AF019BD0
:10145000002B3FF454AF0F213046FFF76BFE0E21F7
:1014600002463046FFF788FE30461A4A0F21FFF742
:1014700083FE072009B0BDE8F08F2046FFF77CFC13
:1014800004340746AC632846AFF3008000283FF4DD
:1014900026AF30463A460F21FFF76EFE07201FE7C2
:1014A00030460D21FFF746FE2862049B6B62C2E7BF
:1014B0000AF1010004EB8000FFF75EFC0F210246F9
:1014C0003046FFF759FE30462A464146FFF754FEA4
:1014D000072005E700000000002393E6012391E6C2
:1014E00002238FE62DE9F0410546C4B0042906D851
:1014F000DFE801F04D2B05030900032B5FD002202C
:1015000044B0BDE8F081002BF9D1102AF7D82B6840
:10151000DC0600F1F48022AC2046019200F094F940
:10152000A86B019A0023012606FA03F1114203D0A9
:10153000016844F8231004300133042BF4D1A8636C
:10154000204600F077F90020DAE7012B4FEA124637
:1015500097B252D0052BD2D106EB0708B8F1200F75
:10156000CDD80F2E40F29980B846002F40F0DB8096
:10157000AA6BAA630F2E40F2BE80B8F1000F02D012
:1015800002A800F00BF9002044B0BDE8F081002B68
:10159000B5D1AC6B97B2281D012606FA03F139428A
:1015A00003F1010302D0216801600434102B00F123
:1015B0000400F2D112F40050E5D1AC63A0E7160CA0
:1015C00097B2F319102B9AD82B681A075DD422AC66
:1015D000204600F00DF904EBC601AB6B3FB103EB05
:1015E000C702186841F8040B04339342F9D120462E
:1015F000AB6300F0DBF8002082E7F219102A3FF617
:101600007EAF0F2E3FF67BAF2A68D10708D528465C
:1016100022F0030240F8482B019300F0B3F8019B3D
:10162000019322AC204600F0ADF8A96B019B002F7E
:1016300000F095807F0004EBC6044FF00008043CE6
:1016400001EB870251F8040B44F8040F9142F9D1E1
:10165000B8F1000F0FD002AC102E314638BF102168
:1016600004EBC101843902EBC80452F8040B41F8C1
:10167000040F9442F9D1012B7FF47BAF22AC0432EA
:10168000AA63204600F07AF87DE723F008032B6078
:1016900005F5A87000F0ACF899E7B8F1100F2A68CA
:1016A00043D9D007A8F110080BD5284622F0010233
:1016B00042F0020240F8482B019300F06BF82A68D0
:1016C000019B510725D40F2E04D822A8019300F0C6
:1016D00061F8019B019302AC204600F063F8C6F16B
:1016E00010010029AA6B019BB6DD22AC4F0004EB70
:1016F000C6041146A3E722A800F048F83DE723F00E
:1017000010032B6005F5E870019200F09DF8019A36
:1017100001E7284622F0040240F8D02B019300F0A4
:1017200041F8019BCFE72A68CBE7D0070AD52846C6
:1017300022F0010242F0020240F8482B019300F02F
:1017400029F8019B019322AC204600F023F8B8460B
:10175000A96B019B002F7FF46DAF0A4609E70A468B
:101760008DE700BF00F1340191E838009C46A646A1
:101770004CF8045D90E8FF0FE54600BD90EC210BAE
:10178000704700BF80EC210B704700BF90EC200B2E
:10179000704700BF80EC200B704700BFD0EC200BDF
:1017A000704700BFC0EC200B704700BFF0EC020197
:1017B000F0EC0211F0EC0221F0EC0231F0EC02410D
:1017C000F0EC0251F0EC0261F0EC0271F0EC0281FD
:1017D000F0EC0291F0EC02A1F0EC02B1F0EC02C1ED
:1017E000F0EC02D1F0EC02E1F0EC02F1704700BF46
:1017F000E0EC0201E0EC0211E0EC0221E0EC02314D
:10180000E0EC0241E0EC0251E0EC0261E0EC02713C
:10181000E0EC0281E0EC0291E0EC02A1E0EC02B12C
:10182000E0EC02C1E0EC02D1E0EC02E1E0EC02F11C
:10183000704700BFB0FC0181B0FC0191B0FC01A178
:10184000B0FC01B1704700BFA0FC0181A0FC019178
:10185000A0FC01A1A0FC01B1704700BFEC4600B59F
:101860002DE900502DE9FF1F4FF000032DE90C007A
:1018700001A9FFF7DDFBDDF840E012B0704700BFC3
:10188000EC4600B52DE900502DE9FF1F4FF0000395
:101890002DE90C0001A9FFF705FCDDF840E012B0CE
:1018A000704700BFEC4600B52DE900502DE9FF1F41
:1018B0004FF000032DE90C0001A9FFF715FCDDF83E
:1018C00040E012B0704700BFEC4600B52DE9005073
:1018D0002DE9FF1F4FF000032DE90C0001ABFFF7CE
:1018E000D7FBDDF840E012B0704700BFEC4600B512
:1018F0002DE900502DE9FF1F4FF000032DE90C00EA
:1019000001AAFFF747FCDDF840E012B0704700BFC6
:10191000027A82B9437AABB14268013B10B4437298
:1019200013680321141D01721A02446002605DF8FD
:10193000044B180E70470368013A02721A020260E3
:10194000180E7047B020704700B585B003AA002379
:10195000009219460C22FFF7D7FB039805B05DF8FB
:1019600004FB00BFF0E700BF2DE9F043054685B05A
:101970000E464FF000083046FFF7CAFFB028044675
:1019800000F0B180070620D500F0F003802B65D071
:10199000902B36D0A02B78D0B02B47D0C02B00F0A6
:1019A0008A8000F0F803D02B0BD100F0070201323F
:1019B00042F40022052301212846FFF793FD002869
:1019C000D9D0092005B0BDE8F0830DF10C09002342
:1019D00019468700CDF800900D222846FFF794FBAA
:1019E000FFB2039BCDF80090043760064CBFDF1BAD
:1019F000FF18002319460D2228460397FFF7A6FB80
:101A0000B9E700F00D030D2BDBD003AF002300F08E
:101A10000F02194600972846FFF776FB0023009730
:101A200019460D222846FFF791FBA4E7B1285FD0A5
:101A3000B22800F0CC80B3287ED000F0FC03B42B99
:101A4000BFD000F007020132012342F40022194600
:101A50002846FFF747FD00288DD0B2E73046FFF754
:101A600057FF24020443B4F5004FAAD024010023F9
:101A7000A2B219462846FFF735FD0028A1D114F47B
:101A8000004F18BF4FF0010875E7C24302F007038B
:101A90004FF47F621A41010702F47F624FF00003A6
:101AA00048BF42F4804219462846FFF71BFD002834
:101AB0003FF461AF85E7C62851D0C7285AD000F05F
:101AC000F803C02B69D0C82875D0C9287FF479AF36
:101AD0003046FFF71DFF020300F00F0002F47022F2
:101AE0000130024366E7B8F1000F14D0002069E727
:101AF0003046FFF70DFF00283FF463AF10F0F0030E
:101B00007FF45FAF024619462846FFF7EBFC00283A
:101B10003FF431AF55E703AC43460E2241460094F3
:101B20002846FFF7F1FA0094284643460F22414623
:101B3000FFF70CFB404645E73046FFF7E9FE01039F
:101B400000F00F0001F47021421C01230A432846D3
:101B50001946FFF7C7FC00283FF40DAF31E73046C8
:101B6000FFF7D6FE010300F00F0001F47021421CC4
:101B70000323EBE73046FFF7CBFE024600283FF495
:101B800020AF10F0F0037FF41CAF04212846FFF7CC
:101B9000A9FC00283FF4EFAE13E700F00F0201327A
:101BA000032342F4202219462846FFF79BFC002815
:101BB0003FF4E1AE05E73046FFF7AAFE00F0F00281
:101BC00000F00F031032013343EA0232F2E6002341
:101BD0000DF10C090D221946CDF800902846FFF7AB
:101BE00093FA3046FFF794FE02064FF002070CD539
:101BF000039B00F07F00B840034430460393FFF797
:101C000087FE030607F10707F2D4039BCDF8009087
:101C100000F07F0403F50172BC4000231444194610
:101C20000D2228460394FFF791FAA4E610B5C36C81
:101C300084B05A6803208DF80C00DC798DF80D40D3
:101C400012020833084601A901920293FFF78CFEA5
:101C500004B010BD08B5FFF785FE806C08BD00BF5D
:101C600008B5FFF77FFEC06CC37900EB8300083036
:101C700008BD00BF08B506F0B7F900BF08B5FFF70B
:101C8000F9FF00BF704700BF014B1868704700BFE5
:101C90000800002008B5FFF7F7FF044B5B68C3F3AB
:101CA0000223034AD35CDBB2D84008BD00100240D7
:101CB0000000002008B5FFF7E7FF044B5B68C3F3A3
:101CC000C223034AD35CDBB2D84008BD00100240F7
:101CD0000000002030B4036A23F001030362056AA8
:101CE0004268846924F073040B681C4325F00205E4
:101CF0008B682B43104DA84203D005F50065A84220
:101D000005D123F00803CD682B4323F004030A4DCB
:101D1000A84203D005F50065A84205D122F440721F
:101D20004D6915438A692A43426084614A68426367
:101D3000036230BC704700BF002C014030B4036A1E
:101D400023F480730362036A4268C46924F0730455
:101D50000D682C4323F400738D6843EA0523124D6C
:101D6000A84203D005F50065A84206D123F400631C
:101D7000CD6843EA052323F480630B4DA84203D0CA
:101D800005F50065A84207D122F440524D6942EAA8
:101D900005128D6942EA05124260C4614A68C26355
:101DA000036230BC704700BF002C014030B4036AAE
:101DB00023F480530362036A4468C26922F4E64252
:101DC0000D6842EA052223F400538D6843EA053387
:101DD000094DA84203D005F50065A84204D124F4BA
:101DE00080444D6944EA85144460C2614A680264D3
:101DF000036230BC704700BF002C014010B4036A7E
:101E0000046A24F001040462846924F0F00444EAC2
:101E1000021223F00A030B43826103625DF8044B54
:101E2000704710B4036A23F0100303628469036AE5
:101E300024F4704444EA023223F0A00343EA01137D
:101E4000826103625DF8044B704710B4846824F427
:101E50007F4442EA03230B43234383605DF8044B32
:101E6000704710B50468A26822F070024B681343F3
:101E700023F007030A681343A3604B68502B1ED05E
:101E80000AD9602B21D0702B05D10B698A68C968EB
:101E90000068FFF7DAFF10BD402BFCD103681C6A15
:101EA0001A6A22F001021A620268936923F0F003B1
:101EB000096943EA0113936103681C62EBE70A694D
:101EC00089680068FFF79AFFE5E70A698968006892
:101ED000FFF7A7FFDFE7704738B590F83C30012BDC
:101EE00018D00446012580F83C50022380F83D308C
:101EF000FFF7B7FF2268D36823F04003D36022685E
:101F0000D36823F48043D36084F83D50002084F8E4
:101F10003C0038BD0220FCE70368244A904212D0FE
:101F200002F5006290420ED0B0F1804F0BD0A2F5C6
:101F30009832904207D002F58062904203D002F5B9
:101F40008062904203D123F070034A681343174A1A
:101F5000904212D002F5006290420ED0B0F1804F54
:101F60000BD0A2F59832904207D002F580629042E1
:101F700003D002F58062904203D123F44073CA6813
:101F8000134323F080034A69134303608B68C362E1
:101F90000B688362054B984203D003F500639842B7
:101FA00001D10B690363012343617047002C014099
:101FB000A8B110B5044690F83D305BB1022384F817
:101FC0003D30211D2068FFF7A7FF012384F83D3035
:101FD000002010BD80F83C30FFF77DFFEEE70120C8
:101FE0007047000030B4036A23F010030362036AF1
:101FF0004468826922F4E6420D6842EA052223F031
:1020000020038D6843EA0513114DA84203D005F55E
:102010000065A84206D123F08003CD6843EA05138A
:1020200023F040030A4DA84203D005F50065A842FD
:1020300007D124F440644D6944EA85048D6944EA7B
:102040008504446082614A688263036230BC7047E1
:10205000002C014038B590F83C30012B66D00D467D
:102060000446012380F83C30022380F83D300C2ADE
:102070001AD8DFE802F007191919201919193419AB
:10208000191947000068FFF725FE2268936943F09D
:10209000080393612268936923F004039361226823
:1020A000936929690B439361012384F83D30002033
:1020B00084F83C0038BD0068FFF794FF22689369FC
:1020C00043F4006393612268936923F4806393610E
:1020D00022689369296943EA01239361E4E7006870
:1020E000FFF72CFE2268D36943F00803D36122680E
:1020F000D36923F00403D3612268D36929690B43B0
:10210000D361D1E70068FFF751FE2268D36943F439
:102110000063D3612268D36923F48063D3612268AA
:10212000D369296943EA0123D361BDE70220C1E7EE
:1021300010B4012303FA01F4036A23EA04030362DF
:10214000036A8A40134303625DF8044B7047000042
:1021500010B5044601220068FFF7EAFF2368094A28
:10216000934203D002F50062934203D15A6C42F4C9
:1021700000425A642268136843F001031360002090
:1021800010BD00BF002C014010B4042303FA01F479
:10219000036A23EA04030362036A8A401343036267
:1021A0005DF8044B704710B5044604220068FFF741
:1021B000EBFF2268536C43F40043536422681368B6
:1021C00043F001031360002010BD90F83C30012B58
:1021D00025D0012380F83C30CB6823F440738A6813
:1021E000134323F480634A68134323F400630A68AB
:1021F000134323F480530A69134323F400534A69B9
:10220000134323F480438A69134323F400431343A5
:1022100002685364002380F83C301846704702205F
:10222000704790F83C30012B22D030B4012280F866
:102230003C20022380F83D300468636823F070037B
:102240006360046863680D682B4363600468A36877
:1022500023F08003A3600468A36849680B43A3606C
:1022600080F83D20002380F83C30184630BC704791
:1022700002207047034690F82420012A20D0012232
:1022800080F824200268906810F0010F07D10D48F3
:10229000806810F0010F02D10B48824208D09A6A80
:1022A00042F020029A620120002283F82420704725
:1022B000506820F470200968014351600020F3E762
:1022C000022070470028014000240140074AD368DB
:1022D00023F4E0631B041B0C000200F4E0601843CD
:1022E00040F0BF6040F40030D060704700ED00E087
:1022F00030B4174BDB68C3F30223C3F10704042C8B
:1023000028BF04241D1D062D18D9033B4FF0FF35AF
:1023100005FA04F421EA0401994005FA03F322EADC
:102320000303194300280BDB0901C9B200F1604027
:1023300000F5614080F8001330BC70470023E5E7EA
:1023400000F00F000901C9B2024B1954F4E700BFB5
:1023500000ED00E014ED00E000F01F024009012351
:102360009340024A42F82030704700BF00E100E08D
:102370000138B0F1807F0AD2064B5860064AF0213E
:1023800082F823100020986007221A60704701200D
:10239000704700BF10E000E000ED00E0042805D029
:1023A000054A136823F0040313607047024A136858
:1023B00043F004031360704710E000E0704708B575
:1023C000FFF7FCFF08BD0000F0B482B000263546E0
:1023D000ABE0002C63D0012C00D1CE68FF2B72D86B
:1023E0008446FF2B72D8AC00DCF800200F27A740F2
:1023F00022EA070206FA04F42243CCF800204A68D5
:1024000012F0805F00F09080654A946944F0010406
:102410009461926902F001020192019AAC08A71C32
:10242000604A52F827C005F0030297000F22BA4015
:102430002CEA020C5C4A90424ED002F58062904237
:1024400000F08B8002F58062904200F0888002F5F7
:102450008062904200F0858002F58062904200F038
:10246000828002F58062904234D0062235E04F4FE0
:10247000BC4214D00BD94E4FBC4210D007F5803768
:10248000BC420CD0A7F58017BC42A7D107E0A7F546
:102490008017BC4203D007F58037BC429ED18C68C0
:1024A0007CB1012C08D04261082697E7CE68083637
:1024B00094E7CE680C3691E7026108268EE7002685
:1024C0008CE704268AE700F1040C8AE7A5F10804EA
:1024D000A40089E7052200E00022BA4042EA0C028B
:1024E0000234304F47F824204A6812F4803F3CD031
:1024F000304C22681A4322604A6812F4003F3AD0F6
:102500002C4C62681A4362604A6812F4801F38D00B
:10251000284CA2681A43A2604A6812F4001F36D001
:10252000244CE2681343E36001350F2D35D80122B6
:10253000AA400B6813409A42F6D14C68122CB8D0CE
:1025400095D8022CB2D07FF644AF032CB7D0112C13
:102550007FF444AFCE68043640E70122BDE7022293
:10256000BBE70322B9E70422B7E7124C226822EA4C
:1025700003022260C0E70F4C626822EA0302626035
:10258000C2E70C4CA26822EA0302A260C4E7094C2D
:10259000E26822EA0303E360C6E702B0F0BC7047DA
:1025A000001002400000014000080140000021101E
:1025B00000003110000401408368194201D100205D
:1025C00070470120704712B9090401617047016129
:1025D0007047C3685940C1607047704710B50446E2
:1025E000074B1868074BA3FB00308009FFF7C0FEBC
:1025F000002221464FF0FF30FFF77AFE002010BD89
:1026000008000020D34D621008B5074A136843F054
:10261000100313600320FFF759FE0020FFF7DEFFD1
:10262000FFF7DBFF002008BD00200240024A1368CC
:1026300001331360704700BFD8060020014B1868B3
:10264000704700BFD806002030B583B00190FFF777
:10265000F5FF0546019CB4F1FF3F00D00134FFF7C0
:10266000EDFF401BA042FAD303B030BD704700001D
:1026700030B482B00023019390F82430012B00F095
:102680008B800246012380F824304B68062B29D822
:102690000568686B03EB8303053B1F249C4020EA1D
:1026A00004000C6804FA03F303436B630B68092B03
:1026B00038D91568E86803EB43031E3B07249C40A8
:1026C00020EA04008C6804FA03F30343EB600B6810
:1026D000103B012B34D90020002382F8243002B0B3
:1026E00030BC70470C2B0ED80568286B03EB8303B6
:1026F000233B1F249C4020EA04000C6804FA03F3E7
:1027000003432B63D2E70568E86A03EB8303413B8D
:102710001F249C4020EA04000C6804FA03F30343DE
:10272000EB62C3E71568286903EB430307249C4069
:1027300020EA04008C6804FA03F303432B61C6E724
:1027400013681648834205D0936A43F020039362CE
:102750000120C1E7986810F4000F1BD1986840F47D
:10276000000098600B68102B01D00020B4E70C4BE0
:102770001B680C49A1FB03139B0C03EB830359005B
:10278000019102E0019B013B0193019B002BF9D1D8
:102790000020A1E700209FE70220A0E700240140DD
:1027A0000800002083DE1B4330B583B00023019373
:1027B00003689A6812F0010F2ED19A6842F0010264
:1027C0009A60174B1B68174AA2FB03239B0C0193CB
:1027D00002E0019B013B0193019B002BF9D10446D0
:1027E000FFF72CFF054623689B6813F0010F11D1FA
:1027F000FFF724FF401B0228F5D9A36A43F010031A
:10280000A362E36A43F00103E362002384F8243007
:10281000012002E0002000E0002003B030BD00BF36
:102820000800002083DE1B4390F82430012B6AD07F
:1028300010B50446012380F82430FFF7B5FF0246A7
:1028400000285BD1A36A23F4407323F0010343F40F
:102850008073A36223682D498B4227D0A16A21F49B
:102860008011A162596811F4806F05D0A16A21F42A
:10287000405141F48051A162A16A11F4805F2BD0D4
:10288000E16A21F00601E162002184F824106FF072
:10289000020119602368996801F46021B1F5602F85
:1028A0001DD0996841F4801199602AE0A1F58061FA
:1028B000496811F4702FD1D0A16A41F48011A1624E
:1028C0001349496811F4806FD6D0A16A21F44051B0
:1028D00041F48051A162CFE70021E162D4E70B49C6
:1028E0008B4204D0996841F4A001996009E0A1F5F8
:1028F0008061496811F4702FD3D1F3E7002384F885
:102900002430104610BD02221046704700280140B6
:102910000024014038B503689A6812F0010F01D114
:10292000002038BD04469A6822F001029A60FFF741
:1029300085FE054623689B6813F0010F0ED0FFF754
:102940007DFE401B0228F5D9A36A43F01003A36261
:10295000E36A43F00103E3620120E2E70020E0E7DD
:10296000002800F08A8070B50446836A002B36D0B8
:102970002046FFF7CFFFA36A13F0100377D100289A
:1029800075D1A26A22F4885222F0020242F00202B9
:10299000A262626825683A498D4226D0E1690A43FD
:1029A000E66842EA4602A168B1F5807F27D0012996
:1029B00022D06169012925D0696821F469410B435E
:1029C0006B6021688D682F4B2B4013438B60A3688D
:1029D000B3F5807F27D0012B25D0002126E0C362EC
:1029E00080F82430FFF742FEC2E7E169B1F5402FDD
:1029F000D5D14FF40021D2E74FF48073D9E74FF4DB
:102A00008073D6E736B9A169013943EA413343F40B
:102A10000063D1E7A16A41F02001A162E16A41F0BF
:102A20000101E162C8E72369013B19052568EB6AEA
:102A300023F470030B43EB6223689968124B0B403D
:102A40009A420BD0A36A23F0120343F01003A3624F
:102A5000E36A43F00103E36201200DE00023E36237
:102A6000A36A23F0030343F00103A36204E0A36A13
:102A700043F01003A362012070BD0120704700BF26
:102A8000003C0140FDF7E1FFFE0E1FFF0268D36826
:102A900023F49073D3600268536923F001035361F8
:102AA000202380F83A30704790F83930DBB2212B80
:102AB0002AD18368B3F5805F16D0036A5A1C02627C
:102AC0001A7803685A60C38C013B9BB2C384EBB98C
:102AD0000268D36823F08003D3600268D36843F0B0
:102AE0004003D36000207047036A1B880268C3F369
:102AF0000803536003691BB9036A02330362E2E708
:102B0000036A01330362DEE702207047002070474A
:102B10002DE9F84305460268136923F44053C16860
:102B20000B431361836802691343426913430168CD
:102B3000CA6822F4B05222F00C021343CB60026840
:102B4000536923F4407381690B4353610268594B05
:102B50009A4257D0FFF79EF800EB800000EB800010
:102B60006C68A400B0FBF4F4534FA7FB0434640971
:102B70002601FFF78FF800EB800000EB80006C6807
:102B8000A400B0FBF4F9FFF785F800EB800000EB40
:102B900080006C68A400B0FBF4F4A7FB0434640963
:102BA0004FF0640808FB149424013234A7FB04346A
:102BB000640904F0F0043444FFF76CF800EB800083
:102BC00000EB80006E68B600B0FBF6F6FFF762F827
:102BD00000EB800000EB80006B689B00B0FBF3F023
:102BE000A7FB0030400908FB10684FEA081808F1FD
:102BF0003208A7FB0837C7F343172B6827449F60A9
:102C0000BDE8F883FFF756F800EB800000EB80008A
:102C10006C68A400B0FBF4F4274FA7FB04346409EC
:102C20002601FFF747F800EB800000EB80006C689E
:102C3000A400B0FBF4F9FFF73DF800EB800000EBD7
:102C400080006C68A400B0FBF4F4A7FB04346409B2
:102C50004FF0640808FB149424013234A7FB0434B9
:102C6000640904F0F0043444FFF724F800EB80001A
:102C700000EB80006E68B600B0FBF6F6FFF71AF8BE
:102C800000EB800000EB80006B689B00B0FBF3F072
:102C9000A7FB0030400908FB10684FEA081808F14C
:102CA0003208A7FB0837C7F343172B6827449F60F8
:102CB000A6E700BF003801401F85EB512DE9F04128
:102CC00005460F4616469846069C2B681B6837EA51
:102CD00003030CBF01230023B3421DD1B4F1FF3F16
:102CE000F3D02CB1FFF7AAFCA0EB0800A042ECD96E
:102CF0002A68D36823F4D073D3602A68536923F019
:102D000001035361202385F8393085F83A300023D8
:102D100085F83830032000E00020BDE8F0817047DE
:102D200058B310B5044690F839300BB3242384F817
:102D300039302268D36823F40053D3602046FFF76C
:102D4000E7FE2268136923F49043136122685369F4
:102D500023F02A0353612268D36843F40053D360FD
:102D60000020E063202384F8393084F83A3010BD25
:102D700080F83830FFF7D3FFD8E7012070472DE9FE
:102D8000F04182B01E4690F83930DBB2202B55D18D
:102D900004460D469046002955D0002A55D090F89B
:102DA0003830012B53D0012380F838300023C3631F
:102DB000212380F83930FFF741FC0746A4F824802E
:102DC000A4F8268010E000963B4600228021204691
:102DD000FFF774FF00283CD12B882268C3F3080357
:102DE00053602369C3B90235E38C9BB2B3B1E38C62
:102DF000013B9BB2E384A368B3F5805FE3D0009608
:102E00003B46002280212046FFF758FF18BB2A7856
:102E100023685A600135E7E70135E5E700963B4650
:102E2000002240212046FFF749FF0346A8B920228F
:102E300084F83920002284F8382000E00223184664
:102E400002B0BDE8F0810123F9E70123F7E702238F
:102E5000F5E70323F3E70323F1E70323EFE790F814
:102E60003A30DBB2202B20D109B312B390F83830BE
:102E7000012B20D081628285C2850023C363222278
:102E800080F83A2080F838300168CA6842F48072CD
:102E9000CA6001684A6942F001024A610168CA6871
:102EA00042F02002CA601846704702207047012095
:102EB0007047012070470220704708B50168CB6851
:102EC00023F04003CB60202380F8393000F0A6FFC8
:102ED000002008BD08B590F83A30DBB2222B45D16E
:102EE0008368B3F5805F0ED0036903BB03685A683B
:102EF000836A591C81621A70C38D013B9BB2C385E2
:102F0000F3B1002033E0826A036943B903685B6868
:102F1000C3F308031380836A02338362ECE7036818
:102F20005B68DBB21380836A01338362E4E7036882
:102F30005B68826A511C816203F07F031370DBE7D8
:102F40000268D36823F02003D3600268D36823F4B7
:102F50008073D3600268536923F001035361202317
:102F600080F83A3000F03EFF002000E0022008BD6B
:102F70007047000010B5044602681368D1685269B2
:102F800013F00F0005D113F0200F02D011F0200F25
:102F900053D1002867D012F0010202D111F4907FC2
:102FA00061D013F0010F06D011F4807F03D0E06BE5
:102FB00040F00100E06313F0040F04D01AB1E06B9D
:102FC00040F00200E06313F0020F04D01AB1E06B8E
:102FD00040F00400E06313F0080F04D01AB1E26B74
:102FE00042F00802E263E26B002A48D013F0200F9F
:102FF00002D011F0200F24D123685B6903F0400355
:10300000E26B12F0080F00D13BB32046FFF73EFD04
:1030100023685A6912F0400F1BD05A6922F040020F
:103020005A61636B8BB11A4A5A63606B00F03AF8CD
:1030300028B3606B436B984721E02046FFF74AFFB7
:103040001DE02046FFF746FFD6E72046FFF790FF3A
:1030500015E02046FFF78CFF11E02046FFF788FFC0
:103060000023E3630BE013F0800F02D011F0800F18
:1030700006D113F0400F02D011F0400F04D110BD63
:103080002046FFF711FDFAE72046FFF716FFF6E7A7
:103090009530000808B5406A0023C385C384FFF754
:1030A00067FF08BD08B590F82130022B03D0042338
:1030B0008363012008BD0268136823F00E031360C8
:1030C0000268136823F00103136003684B4A9342BC
:1030D0004ED9783A934224D01432934230D01432ED
:1030E00093422FD0143293422FD0143293422FD0D8
:1030F000143293422FD0143293422FD002F56272D1
:1031000093422ED0143293422DD0143293422CD0BD
:103110001432934202D04FF4803203E04FF48052D5
:1031200000E00122364B5A60012380F82130002351
:1031300080F82030436B002B5ED098470020B9E721
:103140001022EFE74FF48072ECE74FF48052E9E78A
:103150004FF48032E6E74FF48012E3E74FF08072DD
:10316000E0E70122DEE71022DCE74FF48072D9E7C6
:10317000244A934224D01432934225D014329342ED
:1031800024D01432934224D01432934224D01432E7
:10319000934224D01432934224D002F562729342B7
:1031A00023D01432934222D01432934221D01432CD
:1031B000934202D04FF4803203E04FF4805200E09B
:1031C0000122114B5A60AFE71022FAE74FF48072E8
:1031D000F7E74FF48052F4E74FF48032F1E74FF411
:1031E0008012EEE74FF08072EBE70122E9E7102250
:1031F000E7E74FF48072E4E700205BE780000240DD
:1032000000040240080002400000024038B5C36BD1
:103210001A6804682568016C04238B40134200F08F
:103220009B8015F0040F00F09780236813F0200FA7
:1032300003D1236823F0040323600368AA4A93425E
:1032400046D9783A934224D01432934228D014328B
:10325000934227D01432934227D01432934227D07E
:103260001432934227D01432934227D002F562726F
:10327000934226D01432934225D01432934224D064
:103280001432934202D04FF4802203E04FF4804284
:1032900000E00422954B5A60C36A03B1984738BDD9
:1032A0004022F7E74FF48062F4E74FF48042F1E701
:1032B0004FF48022EEE74FF48002EBE74FF080629C
:1032C000E8E70422E6E74022E4E74FF48062E1E722
:1032D000874A934224D01432934225D01432934229
:1032E00024D01432934224D01432934224D0143286
:1032F000934224D01432934224D002F56272934256
:1033000023D01432934222D01432934221D014326B
:10331000934202D04FF4802203E04FF4804200E059
:103320000422744B5A60B7E74022FAE74FF48062F8
:10333000F7E74FF48042F4E74FF48022F1E74FF4CF
:103340008002EEE74FF08062EBE70422E9E74022DB
:10335000E7E74FF48062E4E702238B40134200F07A
:10336000A38015F0020F00F09F80236813F0200F58
:1033700006D1236823F00A032360012380F821305B
:103380000368594A93424BD9783A934224D0143275
:1033900093422DD0143293422CD0143293422CD02D
:1033A000143293422CD0143293422CD014329342D4
:1033B0002CD002F5627293422BD0143293422AD061
:1033C0001432934229D01432934202D04FF4003287
:1033D00003E04FF4005200E00222444B5A60002305
:1033E00080F82030836A002B3FF459AF984756E7A6
:1033F0002022F2E74FF40072EFE74FF40052ECE7BF
:103400004FF40032E9E74FF40012E6E74FF00072A4
:10341000E3E70222E1E72022DFE74FF40072DCE776
:10342000334A934224D01432934225D0143293422B
:1034300024D01432934224D01432934224D0143234
:10344000934224D01432934224D002F56272934204
:1034500023D01432934222D01432934221D014321A
:10346000934202D04FF4003203E04FF4005200E0E8
:103470000222204B5A60B2E72022FAE74FF4007292
:10348000F7E74FF40052F4E74FF40032F1E74FF45E
:103490000012EEE74FF00072EBE70222E9E720228C
:1034A000E7E74FF40072E4E7082303FA01F1114261
:1034B0003FF4F5AE15F0080F3FF4F1AE236823F0AA
:1034C0000E032360026CC16B012303FA02F24A600F
:1034D000836380F82130002380F82030036B002BB9
:1034E0003FF4DDAE9847DAE6800002400004024077
:1034F000080002400000024082B0002301930093C4
:103500002C4A136843F0010313602A4B1B6803F035
:1035100002030093019B01330193009B23B9019A9D
:103520004FF6FF739A42F0D1224B1B6813F0020F43
:1035300006D001230093009B012B04D002B07047FA
:1035400000230093F7E71B4B5A685A605A6822F42D
:1035500060525A605A685A605A6822F4E0625A60AF
:103560005A6842F480625A605A6822F0604222F43B
:103570007C125A605A6842F0005242F480225A602B
:103580001A6842F080721A600A4B1B6813F0007FC1
:10359000FAD0084B5A6822F003025A605A6842F087
:1035A00002025A60034B5B6803F00C03082BF9D14D
:1035B000C4E700BF0010024008B5FFF79DFF08BD3B
:1035C00010B5164CD4F8883043F47003C4F8883032
:1035D000134B1A6842F001021A605968114A0A40F6
:1035E0005A601A6822F0847222F480321A601A68D3
:1035F00022F480221A605A6822F0684222F47F0284
:103600005A60196B084A0A401A634FF41F029A6005
:10361000FFF7D2FF4FF00063A36010BD00ED00E0A4
:10362000001002400C00FFE800FFFEFE2DE9F04F05
:1036300089B07D4B9A6942F004029A619A6902F05E
:1036400004020192019A9A6942F008029A619A6909
:1036500002F008020292029A9A6942F010029A61FC
:103660009B6903F010030393039B4FF00008CDF810
:103670001880022707976D4B05934FF0200A0DEB3A
:103680000A0444F810AD21466948FEF79DFE402328
:10369000049321466648FEF797FE8025049521464F
:1036A0006348FEF791FE4FF480630493214661481E
:1036B000FEF78AFE4FF40063049321465D48FEF74F
:1036C00083FE4FF48056049621465A48FEF77CFE4E
:1036D000CDF81480049621465748FEF775FE0497EE
:1036E00021465548FEF770FE4FF00108CDF81480D2
:1036F0004FF00409CDF8109021464D48FEF764FEC6
:103700001026049621464C48FEF75EFECDF810A028
:1037100021464948FEF758FE03230593CDF8108053
:1037200021464448FEF750FECDF81080214642481D
:10373000FEF74AFE4FF0080BCDF810B021463D4889
:10374000FEF742FE049721463A48FEF73DFE0496F6
:1037500021463848FEF738FECDF810A021463548FE
:10376000FEF732FECDF8109021463248FEF72CFECF
:10377000CDF810B021463048FEF726FECDF8109067
:1037800021462D48FEF720FE05974023049321464D
:103790002848FEF719FE049521462648FEF714FE38
:1037A0004FF48079CDF8109021462248FEF70CFEA8
:1037B000049521462048FEF707FECDF810802146EB
:1037C0001B48FEF701FE049721461948FEF7FCFD51
:1037D000CDF8109021461848FEF7F6FD4FF400731F
:1037E000049321461448FEF7EFFD4FF480630493E1
:1037F00021461148FEF7E8FD4FF40053049321469B
:103800000B48FEF7E1FD4FF480430493214608483E
:10381000FEF7DAFD4FF40043049321460448FEF717
:10382000D3FD09B0BDE8F08F001002400000311058
:10383000000C0140001001400008014008B50022C2
:1038400003211720FEF754FD1720FEF785FD002207
:1038500003212820FEF74CFD2820FEF77DFD08BD42
:103860002DE9F04F99B0794B9A6942F400629A6160
:103870009A6902F400620192019A9A6942F4005234
:103880009A619B6903F400530293029B704E714F3F
:103890003760002474604FF02008C6F80880DFF815
:1038A000BCB1DBF80030DFF8B8A1AAFB0323DB0AC8
:1038B000F36034617461B4613046FEF779FB102324
:1038C0001693179416A93046FEF7ABFC60230F93AE
:1038D0001094119408231293139414944FF40073CA
:1038E000159322460FA93046FEF7B4FB04220FA918
:1038F0003046FEF7AFFB08220FA93046FEF7AAFBC1
:103900004FF4006308934FF4806309930A94CDF851
:103910002C800C940D940E940DEB08013046FEF7AC
:1039200054FC4D4DDFF83C91C5F800906C60C5F833
:103930000880DBF80030AAFB033A4FEADA23EB6099
:103940002C616C61AC612846FEF732FBCDF85880E3
:103950008023179316A92846FEF763FC049418A940
:10396000052341F8543D2846FEF7B6FA60230F932D
:103970001094119408231293139414944FF4007329
:10398000159322460FA92846FEF764FB04220FA9CF
:103990002846FEF75FFB08220FA92846FEF75AFBD0
:1039A0004FF4006308934FF4806309930A94CDF8B1
:1039B0002C800C940D940E940DEB08012846FEF714
:1039C00004FCD9F8443023F40043C9F844307B6C3C
:1039D00023F400437B6421462846FEF7B9FB04210B
:1039E0002846FEF7B5FB08212846FEF7B1FB214625
:1039F0002846FEF7D8FB04212846FEF7D4FB082111
:103A00002846FEF7D0FB21463046FEF7A1FB0421F5
:103A10003046FEF79DFB08213046FEF799FB214614
:103A20003046FEF7C0FB04213046FEF7BCFB082100
:103A30003046FEF7B8FB2B6801221A633268136820
:103A400043F00103136019B0BDE8F08F001002408D
:103A5000E4070020002C0140780B00200800002023
:103A6000D34D6210003401402DE9F04186B0424E42
:103A7000B36943F40073B361B36903F40073009353
:103A8000009B3E4C3E4B23604FF48073A3600025A7
:103A9000E56065614FF44023E36165604FF0050820
:103AA000C4F810802046FEF75BFF364A536843F4A3
:103AB0008023536006A94FF4C02341F8043D2046FB
:103AC000FEF7D8FB012304930E220292039302A96E
:103AD0002046FEF7CDFD02950227039702A9204656
:103AE000FEF7C6FD04970B2702970323039302A951
:103AF0002046FEF7BDFD0C2302930423039302A985
:103B00002046FEF7B5FD0723049310230293CDF85A
:103B10000C8002A92046FEF7ABFD2268936843F4AF
:103B2000000343F480739360936843F00103936050
:103B3000736943F001037361736903F00103019337
:103B4000019B114B1D60C3F80480104A9A60104A13
:103B5000DA6040F6A2221A601A6842F001021A6086
:103B60002A4629463846FEF7C3FB3846FEF7F4FBE3
:103B700006B0BDE8F08100BF00100240AC08002094
:103B80000024014000000140080002404C24014094
:103B9000240B0020F0B585B0284B9A6942F480626E
:103BA0009A619B6903F480630093009B244C254B2E
:103BB00023604FF48073A3600023E36063614FF4DC
:103BC0006022E2616360052626612046FEF7C8FE9A
:103BD000012303930F220192029301A92046FEF7CD
:103BE00047FD0D2301930225029501A92046FEF70A
:103BF0003FFD03950A2301930327029701A920465D
:103C0000FEF736FD0195042302930DEB03012046D8
:103C1000FEF72EFD072303930197029601A9204684
:103C2000FEF726FD23689A6842F480729A609A68CB
:103C300042F001029A6005B0F0BD00BF00100240E2
:103C4000600700200028014030B587B01F4BDA69BB
:103C500042F48022DA61DA6902F480220092009A4A
:103C60005A6942F001025A615B6903F00103019352
:103C7000019B1748174D05604FF4E1334360002462
:103C80008460C4600461082343618461C461FFF7F8
:103C900047F86B6943F080036B614FF480630293D4
:103CA00001230493022303930323059302A90A48E3
:103CB000FEF78AFB094B1C60094A9A605C609022FF
:103CC0001A601C3B70225A6007B030BD00100240E1
:103CD0002007002000480040000C01401C0002406A
:103CE0000448004000B583B002A941F8040D0A233E
:103CF00001220348FFF743F8019803B05DF804FB85
:103D00002007002070B5013801280CD80D46164652
:103D1000002404E015F8010BFFF7E4FF0134B4427E
:103D2000F8DB304670BD4FF0FF36FAE730B589B0AA
:103D3000254CE36943F40033E361E36903F40033A2
:103D40000193019B2148224B03604FF4E133436010
:103D500000258560C56005610C2343618561C561EF
:103D6000FEF7DEFFA36943F00403A361A36903F038
:103D700004030293029BE36943F40033E361E369C4
:103D800003F400330393039B01230693042304935A
:103D90000223059303230793A4F5843404A9204642
:103DA000FEF712FB08230493059504A92046FEF7AD
:103DB0000BFB2A4629462620FEF79AFA2620FEF714
:103DC000CBFA09B030BD00BF00100240380B002014
:103DD0000044004008B50248FFF7CCF808BD00BF1A
:103DE000380B002008B50268084B1B689A4200D0C7
:103DF00008BD074A1378591C117006490878064A0D
:103E0000D05401220148FFF72AF8F1E7380B0020CF
:103E1000F5000020200B0020200900207047000042
:103E20000B4B1B88132B12D810B50024094B1C70A8
:103E300005E0094B1C706420FEF706FC0134072CDA
:103E4000F7DD002220210548FEF7BDFBFEE77047A5
:103E5000F6000020FA000020F900002000080140D0
:103E600008B5FDF711FF084BA3FB00308009FEF7F2
:103E70007FFA0420FEF792FA002211464FF0FF303D
:103E8000FEF736FA08BD00BFD34D621010B582B000
:103E9000FEF7BAFB3F4CA36943F00103A361A3699A
:103EA00003F001030193019B0320FEF70FFA0022A8
:103EB00011466FF00B00FEF71BFA002211466FF05F
:103EC0000A00FEF715FA002211466FF00900FEF70E
:103ED0000FFA002211466FF00400FEF709FA0022E3
:103EE00011466FF00300FEF703FA002211466FF04F
:103EF0000100FEF7FDF9002211464FF0FF30FEF7FA
:103F0000F7F9FFF7ADFF636923F001036361FFF782
:103F10008DFBFFF7A5FCFFF7A7FDFFF73BFEFFF7C3
:103F200005FFFFF791FE012220211B48FEF74BFB06
:103F3000FFF784FC1948FEF777FC1948FEF774FC7C
:103F400000F026FC01F0D8FA082405E0154B1C709F
:103F50006420FEF779FB013C002CF7DA114B0022BC
:103F60001A70012204211048FEF72DFB0520FEF7F0
:103F70006BFB01F045FE02210748FEF71DFB002800
:103F8000F4D002210448FEF717FB0028F9D1FFF70F
:103F900047FFEBE70010024000080140AC0800209A
:103FA00060070020F9000020000C014010B52A4BEA
:103FB00002225A60294B1A68294BA3FB02139B0962
:103FC0004FF47A7101FB1323CBB92649D1ED007A66
:103FD0009FED257A27EE877A244B9B899BB207EECB
:103FE000903AF8EE677ADFED226A67EEA67ADFEDA7
:103FF000216A67EEA67A77EE277AC1ED007A013260
:10400000164B1A601C4B1C78ACB11C4BA3FB021363
:104010001B0B1B4909780131B3FBF1F001FB103395
:104020004BB9B2FBF4F304FB13224AB91021154833
:10403000FEF7CFFA04E0002210211248FEF7C3FA7F
:10404000114B1B7803B110BD0F4C0123237000F0FE
:10405000FBFB00232370F6E700000240FC00002079
:10406000D34D62100C000020A4707D3F240B002073
:10407000BB3ACE3C0AD7233CF90000205917B7D1F0
:10408000FA00002000080140F80000207047FEE719
:10409000FEE7FEE7FEE770477047704708B5FEF79A
:1040A000C5FAFEF78CF908BD154B5B6913F4007F68
:1040B00003D0134B4FF400725A61114B5B6913F438
:1040C000807F03D00E4B4FF480725A610C4B5B69BA
:1040D00013F0800F02D00A4B80225A61084B5B69B3
:1040E00013F0400F02D0064B40225A61044B5B692B
:1040F00013F0200F02D0024B20225A61704700BFFC
:10410000000401401B4B5B6913F4004F03D0194BB3
:104110004FF400425A61174B5B6913F4804F03D090
:10412000144B4FF480425A61124B5B6913F4005FE9
:1041300003D0104B4FF400525A610E4B5B6913F4DD
:10414000805F03D00B4B4FF480525A61094B5B697F
:1041500013F4006F03D0074B4FF400625A61054B14
:104160005B6913F4806F03D0024B4FF480625A6195
:10417000704700BF0004014008B50248FFF746F849
:1041800008BD00BFDC06002008B50248FFF73EF876
:1041900008BD00BFDC08002010B588420CDD401AC5
:1041A000B0FBF2F49C420CD3DCB2013CE4B24FF021
:1041B0000043029A136002E00024029B1C60204628
:1041C00010BDE4B202FB14010023C8074908FCF744
:1041D00055FC029B1860F2E7D0B4431C32F913304F
:1041E00032F910401A1BD717A1FB022301FB07333A
:1041F000D00F40EA4300A4B214FA80F000B2D0BC61
:104200007047CB0FB3EBD07F08D090FBF1F301FBED
:1042100013032BB990FBF1F0184470470023F9E722
:104220004FF0FF33F6E700002DE9F04F87B0066846
:10423000C4684768D0F8089039788B00DBB278788A
:104240004200D2B21344DBB2BA7813445FFA83FB64
:10425000D7F804A0BAF1000F1BDB257F637F414034
:104260004A406A405A40A37F9A422ED094F91930AE
:104270002376B74B5B4493F90A22D3B2A17E5B1A33
:104280005BB2012B08D013F1050F05D0FF23637635
:1042900004E0CAF1000AE0E701236376A276B4F9EC
:1042A0001430E3819AB2E18A521A2282E3824FF0FB
:1042B0000108B6F95E3043451BDB94F9193094F9D7
:1042C000182093420DD0002314E0B4F91230B6F94F
:1042D0005E80434500DA984608F101080FFA88F835
:1042E000E7E7356803FB05F3B4F90E5093FBF5F3EC
:1042F00000E000237168C1F16405626803FB01F30B
:1043000002FB0535934B83FB0523ED17D5EB6315B6
:104310007CD42A46F36893427ADC0123E377B4F92C
:104320001030002B7ADBB6F95A1099427ADC01235F
:1043300084F8203094F91B1096F86030002B79D166
:104340004FF0FF33E3768B4203D011B92160C9F8F7
:1043500010105BBB94F9191001296DD03B789B00BC
:10436000DBB278784000C0B20344DBB2B8780344D3
:10437000774850FA83F393F80A02013040B2C8EB51
:10438000081C4FEA8C03B4F90EC093FBFCF3C0EB9E
:1043900000104FEA800C01FB03C1C9F8101096F819
:1043A000613013B1336993424BDB216096F8603082
:1043B000022B00F08A80032B00F0A880012B63D031
:1043C00094F91930002BC0F2CD80002BD4BF00220D
:1043D00001227B68002BC0F2C880002BD4BF0020D4
:1043E000012096F8601029B17169514502DA8242C4
:1043F00000F0BE80564A5A4492F90A02052800F39A
:10440000CD80002880F2CB800020C8E06A4281E79E
:10441000B368934283DB0023E37780E79BB25B4280
:104420001BB280E7B6F95C10994283DB002384F865
:1044300020307FE7002385E7454B5B4493F90A0270
:104440009DE7B169F26905AB00930A23521A504601
:10445000FFF7A2FE06F144020599FFF7BDFE94F9AD
:1044600019309BB210FB03F0D9F8103003FA80F337
:104470004FF4B47102931846FFF7C3FE364B029A0D
:1044800003FB0020206091E7206805AB0093062322
:104490003C220021FFF780FE0390059B2C4A0293EB
:1044A0001946FFF799FE2081294B03F10E0202996C
:1044B0000398FFF791FE6081254B03F11C020299DE
:1044C0000398FFF789FEA0817AE7206805AB009387
:1044D00024230A220021FFF75FFE0390059B1F4A59
:1044E00002931946FFF778FE20811C4B03F14A0224
:1044F00002990398FFF770FE6081184B03F1940254
:1045000002990398FFF768FEA08159E7206805AB80
:10451000009324230A220021FFF73EFE0390059B0F
:104520000F4A02931946FFF757FE20810C4B03F107
:104530004A0202990398FFF74FFE6081084B03F18E
:10454000940202990398FFF747FEA08138E700BF65
:10455000A88000081F85EB5198FEFFFFD28000085D
:10456000B08100084FF0FF3233E74FF0FF3038E7FB
:10457000E27F002A3FF43EAF94F82020002A7FF427
:1045800039AFB4F9081001FB03F1B4F90A2002FBBA
:1045900003F2B4F90C0000FB03F31AE0052000EB72
:1045A00040001F4E00F1F00206EB4202B2F9061085
:1045B00001FB03F100F1F10206EB4202B2F9062021
:1045C00002FB03F2F23006EB4000B0F9060000FBFC
:1045D00003F3144880FB01C6C917C1EBA611C9F843
:1045E000001080FB0261D217C2EBA112C9F80420AF
:1045F0003A7822777A786277BA78A277A4F812802C
:10460000A4F81480656080FB0312DB17C3EBA213D0
:10461000C9F80830C9F80C5007B0BDE8F08F00BFEA
:10462000A8800008D34D62100268C368FF21D976C4
:10463000B2F95E105982B2F95E10D982B2F95E20E9
:10464000DA81704730B4074A81000B18DD00541935
:1046500000235355E3606361E3612362636230BC0E
:10466000704700BF200C002038B504468300034487
:10467000DA00454D1544EB692B62FDF7DFFFE86179
:10468000AA68424B53F82220E96853F82130002BE6
:1046900011DBD11A481E012810D911F1020F51DA8D
:1046A000A0002044C5003849294448690632D31A7D
:1046B00003444B610AE000226A6139E0A20022440F
:1046C000D000314B03445A6911445961A30023447B
:1046D000D9002D4A0A44536992699B1A002BB8BF2E
:1046E0005B42592B24DD284D0D446B69A8691B1AC8
:1046F000002BB8BF5B42E8696A6A801A00FB03F0CE
:10470000FBF7E0FE02460B461DA1D1E90001FCF7D4
:104710007DF8FCF763F928616B69002B28DBA200A8
:104720002244D100184B0B445A699A61DA695A62E3
:10473000154AA3001819C1000846114489680244AB
:10474000D16038BD11F1020F09D2A2002244D0007D
:104750000D4B03445A69063911445961B6E7A2006A
:104760002244D000084B03445A6911445961ADE713
:10477000D5ED047AF1EE677AC5ED047ACFE700BF94
:104780000000000000F9F540200C0020B80B0020CC
:10479000F8B51F4B1B681F4AA2FB0323DB0A1E4A06
:1047A00013801E4B032783F86070012583F8615046
:1047B0001B4803601B4AC2601B4A42601B4A82605E
:1047C0001B4C23601B4BE3601B4B63601B4BA360C4
:1047D000FFF72AFF2046FFF727FF194B00265E60F0
:1047E0005D6102221A619F6104229A600522DA60EB
:1047F0004FF0FF371F603046FFF724FF114CA660D3
:104800002846FFF71FFF26636560E762F8BD00BF1B
:1048100008000020D34D6210B40C002010000020CE
:10482000B80C0020E80B00209C0C00200C0C002091
:10483000A40C0020780C0020700C0020D40B002069
:10484000B80B0020200C0020F8B5674B9A6812F0D6
:10485000200F0CBF012700279A6812F0800F0CBFB1
:10486000012600269A6812F0400F0CBF0125002592
:104870009B6803F0E003DB43C3F342135B4A93609E
:104880005B4B9B6803F4E053DB43C3F38223136366
:10489000002404E0E0B2FFF7D5FE09E00134012C6A
:1048A00013DC04EB8402D300504AD35C002BF1D11B
:1048B000A2002244D1004D4B0B449A68DB689A4217
:1048C000ECD0E0B2FFF7D0FEE8E74A4B1F705E7015
:1048D0009D70494A12685A604848FFF7A5FC484B4A
:1048E00019685A689D68474B1B8858084618A3F1F9
:1048F0000A04A6424DDDA1B2434E716381188C4279
:104900004EDAA3F10A0292B23F498A6342199442F5
:104910004DDA0A3B9BB23C4AD363354B9A6812F49A
:10492000805F0CBF012000209A6812F4806F0CBFDA
:10493000012100219B6813F4006F0CBF01220022AB
:10494000324B187059709A702B4A52685A6030482E
:10495000FFF76AFC2F4B19685A689D68294B1B8822
:1049600058084618A3F10A04A64227DDA1B22A4E30
:10497000716381188C4228DAA3F10A0292B22649A7
:104980008A634219944227DB092A2ADD43199BB224
:1049900024E0092E02DD014489B2ADE70A21ABE72C
:1049A000092902DD024492B2AEE70A22ACE7092AE5
:1049B00002DD43199BB2AEE70A23ACE7092E02DD04
:1049C000014489B2D3E70A21D1E7092902DD024473
:1049D00092B2D4E70A22D2E70A3B9BB20E4AD363D3
:1049E000F8BD0A23FAE700BF000C0140200C0020AC
:1049F000001001409C0C002000010020B80C002099
:104A00000C0C0020B40C002000340140700C00207D
:104A1000A40C0020D40B0020002C014030B40C6802
:104A2000630A074AA2FB0323DA09064D05FB12427B
:104A3000046804EBD31303600A6030BC704700BF06
:104A4000834B040000CA9A3B43680B7043681B0AFF
:104A50004B70C3888B70C379CB7083680B7183688C
:104A60001B0A4B7143898B71C37ACB710820704745
:104A70000B7843604A7843EA022343608A7843EA2A
:104A800002434360CA7843EA026343600B79836060
:104A90004A7943EA022383608A7943EA02438360C6
:104AA000CA7943EA02638360082070470048704770
:104AB000EC84000800487047C884000870B40B7884
:104AC00083804A7843EA02238380D1F80250062388
:104AD000AA1D9A4204D95A1ECC5C8C540133F7E7C4
:104AE000053500234B554B1D83608E58141D2346FE
:104AF00032199A4204D95A1ECD5C8D540133F7E71E
:104B0000531E0025CD54013C0C44C4608E58043221
:104B10001346B4189C4204D95C1ECD5C0D5501337C
:104B2000F7E7631E0025CD54013A0A4402610B5D8C
:104B3000621C8A5C43EA0223A21C8A5C43EA0243A9
:104B4000E21C8A5C43EA02634361201D70BC70472B
:104B500000487047348400080048704710840008FB
:104B600030B40B780371D1F8015005236A1D9A42C5
:104B700004D95A1ECC5C8C540133F7E7043500236A
:104B80004B5504318160104630BC70470048704777
:104B9000FC83000800487047D8830008004870472D
:104BA0005084000800487047B483000830B40D6892
:104BB00004232A1D9A4204D95A1ECC5C8C5401331A
:104BC000F7E7033500234B5503314160104630BCF5
:104BD000704700000048704754850008004870473F
:104BE0003085000830B40B7843604A7843EA0223EA
:104BF00043608A7843EA02434360CA7843EA026327
:104C000043600B7983604A7943EA022383608A799F
:104C100043EA02438360CA7943EA026383600B7A02
:104C2000C3604A7A43EA0223C3608A7A43EA0243B2
:104C3000C360CA7A43EA0263C360CD68102305F1FA
:104C400010029A4204D95A1ECC5C8C540133F6E708
:104C50000F3500234B550F310161104630BC7047B2
:104C6000004870472085000800487047FC84000811
:104C7000004870479C83000800487047788300080C
:104C8000012800D070474FF6FF739942FAD1244AA9
:104C9000244B1360002382F81C352349C2F83015D9
:104CA000042B0CD81E4803F58372002140F8221013
:104CB000142202FB0302A2F82C140133F0E70023B4
:104CC000042B0CD8164803F59272002140F82210EC
:104CD000142202FB0302A2F8A4140133F0E700231C
:104CE000B3F5007F05D20E4A1A4400211176013334
:104CF000F6E70023B3F5007F06D2094A1A440021E3
:104D000082F818120133F5E7054B002283F83425A9
:104D1000C3F83C2583F84025C3F848255A61B1E71C
:104D2000140100206C8300080C83000890F81C0517
:104D30007047F8B506460D460C780379A3421AD39E
:104D4000347100220424337993421AD92B5D611CFB
:104D5000695C43EA0123A11C695C43EA0143E11C4D
:104D6000695C43EA0163B3600434F16841F82230BE
:104D70000132D2B2E7E7A100C06802F0FBF9F060AF
:104D8000DEE72F5D337CBB421AD304343774002234
:104D9000337C93421AD92B5D611C695C43EA012381
:104DA000A11C695C43EA0143E11C695C43EA0163BD
:104DB00073610434B16941F822300132D2B2E7E7BD
:104DC000B900B06902F0D6F9B061DEE72F5D337F3C
:104DD000BB4204D3201D37774FF0000C12E0B9001E
:104DE000706A02F0C7F97062F4E7431E0022EA54C9
:104DF000013C2C443462736A43F82C400CF1010CE2
:104E00005FFA8CFC337F63450AD92F58041D234673
:104E100038199842E9D95A1EE95CA9540133F7E7D9
:104E2000F8BD70B505460C4643680B7043681B0A15
:104E30004B70C3888B70C379CB7083680B718368A8
:104E40001B0A4B7143898B71C37ACB71C3680B7298
:104E5000C3681B0A4B72C3898B72C37BCB72006918
:104E6000FBF796F90646E0600246296904F1100056
:104E700002F0F1F806F1100070BD70B506460C4660
:104E80004068FBF785F90546204640F8045B2A4652
:104E9000716802F0E0F8281D70BD70B506460D4639
:104EA00003790B708068FBF773F90446C5F80100BD
:104EB0000246B168681D02F0CEF8601D70BD2DE994
:104EC000F04106460C4683880B7083881B0A4B70A2
:104ED0008068FBF75DF90746C4F802000246B16836
:104EE000A01D02F0B8F807F10608F068FBF750F9CA
:104EF000054644F808000A370246F168E01902F056
:104F0000AAF82F443069FBF743F90546E05104370E
:104F100002463169E01902F09EF8E81973692354DA
:104F2000190A421CA154190C821CA1541B0EC21C4C
:104F3000A3540430BDE8F0812DE9F04105460C464C
:104F400003790B7000224A708A70CA700423297991
:104F5000914210D9E96851F82210E1540E0A581C08
:104F600026540E0C981C2654090ED81C21540433C8
:104F70000132D2B2EBE7591C2A7CE254981C002281
:104F80006254D91C225404336254297C914210D9B2
:104F9000A96951F82210E1540E0A581C26540E0C2F
:104FA000981C2654090ED81C215404330132D2B265
:104FB000EBE75A1C297FE154991C4FF0000804F8D4
:104FC0000280DA1C04F801801E1D04F802802B7F89
:104FD000434514D96B6A53F82800FBF7D9F8074604
:104FE000A05104366B6A024653F82810A01902F04B
:104FF00032F83E4408F101085FFA88F8E7E73046E6
:10500000BDE8F0812DE9F84306460D4683680B7034
:1050100083681B0A4B7043898B70C37ACB70C3685B
:105020000B71C3681B0A4B71C3898B71C37BCB7136
:1050300003690B7203691B0A4B72438A8B72C37C30
:10504000CB724069FBF7A4F80446E8600246716938
:1050500005F1100001F0FFFF04F11003B269EA54FA
:10506000B3691B0A04F11102AB54728B04F11203F1
:10507000EA54F27E04F11303EA5414344FF00008AA
:105080000AE00434336A3A4653F80910281901F04B
:10509000E2FF3C4408F10108B369434512D9336A81
:1050A0004FEA880953F82800FBF772F807462046B4
:1050B0000023032BE5D8DA0027FA02F2C1186A545C
:1050C0000133F6E7736A2B55736A1B0A621CAB54F3
:1050D000F28CA31CEA5496F82720E31CEA54201D06
:1050E000002717E000241470547094705C01D47091
:1050F000DC101471DC125471C3F3C34343EA01138F
:1051000093710909D171F5EEC07AF1EE10FA13D45A
:1051100008300137736ABB4212D92A18F36A03EBCD
:105120008703D3ED007A17EE903AC3F3C7510029F5
:10513000D8D001F56071D5E761F07F01D171E7E763
:10514000336B2B54336B1B0A421CAB54728E831C83
:10515000EA5496F83320C31CEA540430002417E0C4
:1051600000271770577097705F01D770DF101771A5
:10517000DF125771C3F3C34343EA01139371090963
:10518000D171F5EEC07AF1EE10FA13D40830013483
:10519000336BA34212D92A18B36B03EB8403D3ED0C
:1051A000007A17EE903AC3F3C7510029D8D001F521
:1051B0006071D5E761F07F01D171E7E7F36B2B54A4
:1051C000F36B1B0A421CAB54F28F831CEA5496F813
:1051D0003F20C31CEA540430002417E00027177056
:1051E000577097705F01D770DF101771DF1257711A
:1051F000C3F3C34343EA011393710909D171F5EE77
:10520000C07AF1EE10FA13D408300134F36BA342E4
:1052100012D92A18736C03EB8403D3ED007A17EECE
:10522000903AC3F3C7510029D8D001F56071D5E792
:1052300061F07F01D171E7E7BDE8F883F8B5044676
:105240000D46021D0B785360497843EA01235360F1
:10525000A97843EA01435360E97843EA0163536064
:105260002B799360697943EA01239360A97943EA32
:1052700001439360E97943EA016393602B7AD36039
:10528000697A43EA0123D360A97A43EA0143D360F0
:10529000E97A43EA0163D360EF68102307F110064F
:1052A0009E4204D9591EE85C68540133F6E70F3773
:1052B0000023EB5505F10F031361AF5D731CEB5C2D
:1052C00047EA0327B31CEB5C47EA0347F31CEB5C9C
:1052D00047EA03670436A369BB4202D3A7610020F3
:1052E0001AE0B900206A01F045FF2062F6E70436B3
:1052F0003346B118994204D9591EEF5C6F540133FB
:10530000F7E74B1E0022EA54013EAB19E3610E465B
:10531000226A42F820300130A36983420CD9B44696
:1053200000221346032BE2D805EB0C01C95CDF0019
:10533000B9400A430133F5E7AF5D731CEB5C47EA04
:105340000327B31CEB5C47EA0347F31CEB5C47EA1B
:1053500003670436636ABB4202D36762002012E02F
:10536000B900E06A01F006FFE062F6E7CB791B06C0
:1053700003F00043A26A1343A3620836E36AA26AF9
:1053800043F820200130636A83421FD9A919CB78E2
:105390005B09A3620A7943EAC203A3624A7943EA3A
:1053A000C223A3628A79D20402F4F0021343A362F7
:1053B0008F79CA79120102F4FE6252EA1712D5D02F
:1053C000A2F5607243EAC253A362CFE7AF5D731CDC
:1053D000EB5C47EA0327B31CEB5C47EA0347F31C8B
:1053E000EB5C47EA03670436236BBB4202D32763B7
:1053F000002012E0B900A06B01F0BCFEA063F6E74C
:10540000CB791B0603F00043626B134363630836DA
:10541000A36B626B43F820200130236B83421FD9BA
:10542000A919CB785B0963630A7943EAC203636312
:105430004A7943EAC22363638A79D20402F4F00210
:10544000134363638F79CA79120102F4FE6252EA50
:105450001712D5D0A2F5607243EAC2536363CFE757
:10546000AF5D731CEB5C47EA0327B31CEB5C47EAB8
:105470000347F31CEB5C47EA03670436E36BBB426C
:1054800002D3E763002012E0B900606C01F072FE05
:105490006064F6E7CB791B0603F00043226C1343EC
:1054A00023640836636C226C43F820200130E36BE0
:1054B00083421FD9A919CB785B0923640A7943EA8F
:1054C000C20323644A7943EAC22323648A79D2045B
:1054D00002F4F002134323648F79CA79120102F4B3
:1054E000FE6252EA1712D5D0A2F5607243EAC253A7
:1054F0002364CFE73046F8BD2DE9F04194B0012296
:1055000045494648FDF7ABFC454B0024C3F8084528
:10551000C3F80C45C3F81445C3F81045414801F0E1
:1055200021FE414B029304940794404B039305944E
:10553000069408940A940B940D940E94109411946C
:105540001394042C2CDC04EB8403354A02EB830314
:10555000B3F82C340BB10134F3E704F169031546B9
:10556000A600371902EB8707A7F82C34304BC7F891
:1055700030340DF10808C7F83484029B9B6840461C
:105580009847C7F83804029BDB6840469847C7F83D
:105590003C0433199B0003F585632B44043300E07E
:1055A0000023244A1360244B00930024042C2ADC9B
:1055B00004EB84031A4A02EB8303B3F82C340BB1D7
:1055C0000134F3E704F169031546A600371902EB2D
:1055D0008707A7F82C34194BC7F83034C7F834D4F0
:1055E000009B9B6868469847C7F83804009BDB68B7
:1055F00068469847C7F83C0433199B0003F5856358
:105600002B44043300E000230D4A1360044801F0EA
:10561000AFFC14B0BDE8F081200B0020380B002057
:105620001401002088850008548300083C8300088A
:10563000948500081001002024830008A485000838
:105640000C01002030B585B0632903DD90F81C35CE
:10565000002B5DD00D46044613681B6800F21F2125
:1056600010469847FF2384F81832FE2384F8193235
:10567000C3B284F81A32C0F3072284F81B22134401
:10568000DBB2DB4384F81C3284F81D5245F307215A
:1056900084F81E1205220023C11D914205DDA118C8
:1056A00091F818120B440132F6E75A42DBB2D2B23B
:1056B00058BF534200F10805DB43214481F81832FA
:1056C000B5F5007F12DC04F506741423AAB2214656
:1056D0001048FDF754FB014610B9284605B030BD0F
:1056E00023462A460C4801F0C9FCF6E70B4B019310
:1056F00003238DF808300A4D039501AA072120469F
:10570000FFF7A0FF284601F0B9FC4FF0FF35E4E7B2
:105710000025E2E7380B00206C840008F4820008C2
:105720008C84000830B587B0632904DD90F81C35FF
:10573000002B00F0AE800D46044613681B6800F293
:105740001F2110469847FF2384F81832FE2384F85F
:105750001932C3B284F81A32C0F3072284F81B222C
:105760001344DBB2DB4384F81C3284F81D5245F34A
:10577000072184F81E1205220023C11D914205DD78
:10578000A11891F818120B440132F6E75A42DBB225
:10579000D2B258BF534200F10805DB43214481F8DF
:1057A0001832B5F5007F12DC04F506741423AAB292
:1057B00021463948FDF7E3FA014610B9284607B0FB
:1057C00030BD23462A46354801F058FCF6E7344BF5
:1057D000009303228DF80420324A02921B6804F2DF
:1057E0001F2168469847FF2384F81832FE2384F867
:1057F0001932C3B284F81A32C0F3072284F81B228C
:105800001344DBB2DB4384F81C32072384F81D32D7
:10581000002384F81E320522C11D914205DDA11826
:1058200091F818120B440132F6E75A42DBB2D2B2B9
:1058300058BF534200F10805DB43214481F8183278
:10584000B5F5007F15DC04F506741423AAB22146D1
:105850001148FDF794FA014628B9124801F00EFCF0
:105860004FF0FF35AAE723462A460C4801F006FC14
:10587000F3E70B4B039303238DF81030094D059587
:1058800003AA07212046FFF7DDFE284601F0F6FBBC
:10589000E3E7002592E700BF380B00206C84000886
:1058A000F48200088C84000830B5A3B08B4B0E93B3
:1058B0000023109313938A4A0F9211931293894BEA
:1058C0000CAA93E8030082E80300874BD3ED057A26
:1058D000F8EEE77ACDED0A7AD3ED0F7AF8EEE77AB3
:1058E000CDED0B7A196908919B6B09937F4BD3ED32
:1058F000007AF8EEE77ACDED067AD3ED017AF8EE8C
:10590000E77ACDED077A1692022314930AAA199228
:10591000179308AA1C921A931D9306AB1F93FCF7CA
:105920008DFE734BA3FB00239B097249CA681A447E
:1059300020924FF47A7202FB130308696E4A02FB4D
:105940000303219320AC21A92046FFF767F811AB90
:1059500094E8030083E80300684B1B681D88632DEF
:1059600005DD644B93F81C35002B00F0AF80614CD3
:105970000E9B1B6804F21F210EA89847FF2384F892
:105980001832FE2384F81932C3B284F81A32C0F3F5
:10599000072284F81B221344DBB2DB4384F81C3259
:1059A00084F81D5245F3072584F81E520523002470
:1059B000C21D9A4206DD4F4A1A4492F81822144436
:1059C0000133F5E76342E4B2DBB258BF5C4200F159
:1059D0000805E443474B1A4482F81842B5F5007FA6
:1059E00011DC1423AAB246494648FDF7C8F901461E
:1059F00018B9002D6CDB23B030BD414B2A4642481C
:105A000001F03CFBF5E7414B009303228DF80420A5
:105A10003F4A0292374C1B6804F21F2168469847A0
:105A2000FF2384F81832FE2384F81932C3B284F8B5
:105A30001A32C0F3072284F81B221344DBB2DB4383
:105A400084F81C32072384F81D32002384F81E32A8
:105A50000522C11D914206DD2649114491F8181214
:105A60000B440132F5E75A42DBB2D2B258BF53427F
:105A700000F10804DB431F4A114481F81832B4F5E1
:105A8000007F13DC1423A2B21D491E48FDF777F9ED
:105A9000014628B91E4801F0F1FA4FF0FF35A8E79A
:105AA000174B2246184801F0E9FAF3E7174B039326
:105AB00003238DF81030164C059403AA07210D48D6
:105AC000FFF7C0FD204601F0D9FAE3E7002590E793
:105AD0002946104801F0D2FA8DE700BF5483000830
